:020000040800F2
:100000000050002045130008D1110008D911000844
:10001000E1110008E9110008F111000800000000DA
:10002000000000000000000000000000F9110008BE
:100030000512000800000000111200081D1200083F
:100040008D1300088D1300088D1300088D13000810
:100050008D1300088D1300088D1300088D13000800
:100060008D1300088D1300088D1300088D130008F0
:100070008D1300088D1300088D1300088D130008E0
:100080008D1300088D1300088D1300088D130008D0
:100090008D1300088D1300088D1300088D130008C0
:1000A0008D1300088D1300088D1300088D130008B0
:1000B000291200088D1300088D1300088D13000805
:1000C0008D1300088D1300088D1300088D13000890
:1000D0008D1300088D1300088D1300088D13000880
:1000E0008D1300088D1300088D1300080000000018
:1000F0000000000000000000000000000000000000
:0C01000000000000000000005FF808F1A3
:10010C0010B5054C237833B9044B13B10448AFF345
:10011C0000800123237010BDA0000020000000000F
:10012C00F437000808B5034B1BB103490348AFF380
:10013C00008008BD00000000A4000020F437000877
:10014C00034613F8012B002AFBD1181A013870470B
:10015C0080B582B000AF01F06DF93860244B1B689C
:10016C003A68D31AB3F5FA7F01D2FF233BE00023A0
:10017C00FB7134E000224FF470711E4801F00DFC4D
:10018C00FB79402202FA03F39BB20122194619486B
:10019C0001F003FC0023BB711BE0BB79012202FAC6
:1001AC0003F39BB21946134801F0E0FB0346012B05
:1001BC000CD10F4A3B681360FA79B9790E48134693
:1001CC009B00134403440B441B780CE0BB790133B4
:1001DC00BB71BB79042BE0D9FB790133FB71FB7943
:1001EC00032BC7D9FF2318460837BD4680BD00BF77
:1001FC00BC000020000C01405C38000880B485B0C5
:10020C0000AFF860B9607A60FB681B4A934215D85E
:10021C00FB681A4AA2FB03239A0CBB681A60FA68A3
:10022C00164BA3FB02139B0C154901FB03F3D31ACA
:10023C007A681360134B03221A6018E0FB68124AA9
:10024C00A2FB03235A0EBB681A60FA680E4BA3FB81
:10025C0002135B0E0D4901FB03F3D31A0C4AA2FBEC
:10026C0003235A097B681A60064B01221A6000BFEF
:10027C001437BD4680BC7047FFE0F50583DE1B4399
:10028C0040420F0040000020893BE65500E1F50597
:10029C001F85EB5180B485B000AFF860B9607A600F
:1002AC00FB68144A934215D8FB68134AA2FB03233C
:1002BC009A0CBB681A60FA680F4BA3FB02139B0CD9
:1002CC000E4901FB03F3D31A7A6813600C4B03221B
:1002DC001A6009E0BB6800221A607B6800221A6071
:1002EC00074B6FF00A021A6000BF1437BD4680BC82
:1002FC00704700BFFFC99A3B83DE1B4340420F008F
:10030C004000002080B500AFFFF722FF03461A46DD
:10031C00AC4B1A70AB4B1B78FF2B00F0AE81A94B8A
:10032C001B78243B302B00F2638101A252F823F09E
:10033C0041050008FD050008FD050008FD05000845
:10034C00FD050008FD050008FD050008FD05000879
:10035C00FD050008FD050008FD050008FD05000869
:10036C00FD050008FD050008FD050008FD05000859
:10037C00FD050008FD050008FD050008FD05000849
:10038C00FD050008FD050008FD050008FD05000839
:10039C00FD050008FD050008FD050008FD05000829
:1003AC00FD05000801040008290400084F0400089A
:1003BC008905000875040008AD050008FD05000856
:1003CC00FD050008FD050008FD050008FD050008F9
:1003DC0065050008FD050008FD050008FD05000881
:1003EC00F9040008FD050008FD050008FD050008DE
:1003FC001D0500080023744A0721744802F030FDE3
:10040C0042F21073704A0721714802F029FD002353
:10041C006D4A07216F4802F023FD2EE100236A4A42
:10042C0007216A4802F01CFD6B4B674A072168489C
:10043C0002F016FD0023644A0721664802F010FD05
:10044C001BE10023604A0721604802F009FD0023EC
:10045C005D4A07215E4802F003FD01235A4A072139
:10046C005C4802F0FDFC08E15C4B1B78002B03D1CF
:10047C005A4B01221A7000E1584B1B78032B19D1EF
:10048C00574B1A68574B1B689A4209D1534B04229D
:10049C001A70554B00221A70514B00221A60ECE076
:1004AC004E4B00221A70504B00221A704C4B0022FB
:1004BC001A60E2E0494B1B78042B0DD1484B1B68AA
:1004CC004A4A1360454B00221A70474B00221A709F
:1004DC00434B00221A60D0E0404B00221A70424B72
:1004EC0000221A703E4B00221A60C6E03B4B1B7870
:1004FC00002B03D1394B02221A70BEE0374B00227D
:10050C001A70394B00221A70354B00221A60B4E075
:10051C00324B1B78002B03D1304B05221A70ACE008
:10052C002E4B00221A70304B00221A702C4B0022DA
:10053C001A60A2E0294B1B78052B03D1274B07220D
:10054C001A709AE0254B00221A70274B00221A7061
:10055C00234B00221A6090E0204B1B78052B03D113
:10056C001E4B06221A7088E01C4B00221A701E4B80
:10057C0000221A701A4B00221A607EE0174B1B786F
:10058C00052B03D1154B08221A7076E0134B002271
:10059C001A70154B00221A70114B00221A606CE075
:1005AC000E4B1B78052B03D10C4B09221A7064E0FF
:1005BC000A4B00221A700C4B00221A70084B0022B6
:1005CC001A605AE02D0000200C380008180000209A
:1005DC001F00002026000020A0860100D000002073
:1005EC00C000002030000020C40000203C0000208F
:1005FC00244B1B782F2B34D9224B1B78392B30D81A
:10060C00214B1B78022B0CD11F4B03221A701D4B54
:10061C001B78303B1A461D4B1A601D4B01221A7079
:10062C0029E0194B1B78032B03D0174B1B78042B99
:10063C0021D1174B1B78052B1DD8144B1A68134668
:10064C009B0013445B001A460E4B1B781344303B43
:10065C000E4A13600E4B1B780133DAB20C4B1A7036
:10066C0009E0094B00221A70094B00221A70074B43
:10067C0000221A6000E000BF00BF024BFF221A707C
:10068C0000BF80BD2D000020D0000020C000002045
:10069C00C400002080B58CB000AFA74B1B780A2B90
:1006AC0000F2988101A252F823F000BFE506000881
:1006BC000B0700082F0700085307000877070008EE
:1006CC009B0700085F080008C1070008F70800082E
:1006DC001D090008A10900080023984A0721984821
:1006EC0002F0BEFB0023954A0721964802F0B8FBA6
:1006FC000023924A0721944802F0B2FB7DE1934A11
:10070C0007218F4802F0ACFB914B1B688B4A0721E9
:10071C008C4802F0A5FB0023884A07218A4802F086
:10072C009FFB8C4B1B68854A0721854802F098FB80
:10073C000023824A0721834802F092FB864A072154
:10074C00814802F08DFB834B1B687C4A07217C4857
:10075C0002F086FB0023794A07217A4802F080FBDD
:10076C007E4A0721784802F07BFB7A4B1B68734A60
:10077C000721734802F074FB0023704A072171486B
:10078C0002F06EFB714A07216F4802F069FB0023EF
:10079C006A4A07216A4802F063FB0023674A072173
:1007AC00684802F05DFB6E4B644A0721664802F014
:1007BC0057FB22E16B4B1B686B4A6C491846FFF7E1
:1007CC0069FD6A4B1B6807F11800694A072102F0A2
:1007DC0047FB664B1A68674BA3FB02135B0B42F299
:1007EC00107101FB03F3D31A07F11000624A0821C0
:1007FC0002F036FB0023FB621BE007F110031846E6
:10080C00FFF79EFC0246FB6A9A420AD907F11002D6
:10081C00FB6A134419784A4AFB6A13440A461A7055
:10082C0004E0474AFB6A134420221A70FB6A013326
:10083C00FB62FB6A052BE0DD4B4B1B684C4A072126
:10084C00404802F00DFB4D4A07213F4802F008FBDF
:10085C00D3E04B4B1B68444A44491846FFF7CEFC87
:10086C00424B1B6807F10800414A072102F0F8FAD5
:10087C003E4B1A683F4BA3FB02135B0B42F2107109
:10088C0001FB03F3D31A38463E4A082102F0E8FA7A
:10089C000023BB6219E03B461846FFF751FC0246A9
:1008AC00BB6A9A4209D93A46BB6A13441978244A5E
:1008BC00BB6A13440A461A7004E0214ABB6A13440B
:1008CC0020221A70BB6A0133BB62BB6A052BE2DDC6
:1008DC00254B1B68264A07211A4802F0C1FA2A4AFE
:1008EC000721194802F0BCFA87E0284B134A07216C
:1008FC00134802F0B5FA0023104A0721114802F000
:10090C00AFFA00230D4A07210F4802F0A9FA74E050
:10091C001F4B0A4A07210A4802F0A2FA0023074A91
:10092C000721084802F09CFA0023044A07210648D4
:10093C0002F096FA61E000BFD00000200C380008ED
:10094C00180000201F00002026000020143800088A
:10095C003C000020C00000201C380008243800088F
:10096C003F420F0038000020CC000020C8000020BF
:10097C002C3800085917B7D1343800084038000813
:10098C0034000020483800085038000815160500BF
:10099C001CC806001B4B1B6807F120001A4A0721D4
:1009AC0002F05EFA07F12003184A0721184802F0FA
:1009BC0057FA0023174A0721174802F051FA00236F
:1009CC00144A0721154802F04BFA154B4FF0FF3231
:1009DC001A6012E000230F4A07210D4802F040FA7A
:1009EC0000230C4A07210C4802F03AFA0023094A6A
:1009FC0007210A4802F034FA00BF00BF3037BD4669
:100A0C0080BD00BFC00000202C38000858380008FA
:100A1C00180000200C3800081F00002026000020C1
:100A2C004000002080B483B000AF0346FB71FB791B
:100A3C002F2B07D9FB79392B04D8FB79303B1F4A74
:100A4C00D35C36E0FB794C2B02D11D4B1B7830E08C
:100A5C00FB792E2B02D11A4B5B782AE0FB79542BB5
:100A6C0002D1174B9B7824E0FB794F2B02D1144B0E
:100A7C00DB781EE0FB79412B02D1114B1B7918E07E
:100A8C00FB79532B02D10E4B5B7912E0FB79482B8F
:100A9C0002D10B4B9B790CE0FB79492B02D1084B13
:100AAC00DB7906E0FB79462B02D1054B1B7A00E083
:100ABC00FF2318460C37BD4680BC70470000002051
:100ACC000C00002080B584B000AF78600B46FB7042
:100ADC000023FB6035E0FA681346DB009B1A7A684A
:100AEC0013441846FFF72CFB0346BB60FB78052B21
:100AFC001FD8FB78BA689A4215DDFA681346DB00FA
:100B0C009B1A7A681A44BB68591EFB78CB1AD35CC3
:100B1C001846FFF787FF034619460E4AFB68134435
:100B2C000A461A700AE00B4AFB681344FF221A703B
:100B3C0004E0084AFB681344FF221A70FB68013377
:100B4C00FB60FB68022BC6DD024B18461037BD4616
:100B5C0080BD00BFDC00002080B584B000AF7860A1
:100B6C000B46FB70FB7819467868FFF7ABFFB86053
:100B7C00FB78052B20D801A252F823F0A10B00081A
:100B8C00A70B0008AD0B0008B30B0008B90B00084D
:100B9C00BF0B00082023FB7311E01023FB730EE046
:100BAC000823FB730BE00423FB7308E00223FB73A5
:100BBC0005E00123FB7302E00123FB7300BF224B12
:100BCC001B68002B2CDB204B1B68052B28DCFA78D0
:100BDC001D4B1B689A4213D11C4AFB7B1370BB68DC
:100BEC009A781A4B5A70BB6801331B7803F07F0359
:100BFC00DAB2164B9A70BB681A78144BDA701FE095
:100C0C00124AFB7B1370BB689A78104B5A70BB6806
:100C1C005A780E4B9A70BB681A780C4BDA700FE04E
:100C2C000A4AFB7B1370BB689A78084B5A70BB68F6
:100C3C005A78064B9A70BB681A78044BDA7000BF6E
:100C4C0000BF1037BD4680BD40000020D4000020FE
:100C5C0080B500AF0E4B1B78DBB219460D48FFF781
:100C6C007BFF04210C4800F01BF8094B1B78DBB20E
:100C7C005A1C0A4B83FB0231D317C91A0B465B0073
:100C8C000B445B00D11ACAB2014B1A7000BF80BD75
:100C9C00D100002018000020D4000020ABAAAA2A02
:100CAC0080B582B000AF7860396000224FF480418B
:100CBC000A4800F072FE3B689AB24FF4967379685A
:100CCC00074801F0E5FA01224FF48041034800F097
:100CDC0064FE00BF0837BD4680BD00BF000C01405C
:100CEC003801002080B500AF00F04CFB00F032F86A
:100CFC0000F024F900F0A0F800F0D4F800F066F849
:100D0C00124801F0FFFC6421002000F0CDFA6421B0
:100D1C00012000F0C9FA6421022000F0C5FA0C4B46
:100D2C001B68012B05D1FFF793FF0521002000F074
:100D3C00BBFA074B5B68012BF1D1FFF7E3FAFFF726
:100D4C00A9FC0A21012000F0AFFAE8E7900100208D
:100D5C000402002080B590B000AF07F118032822E0
:100D6C000021184602F0B0F83B1D00221A605A60B0
:100D7C009A60DA601A610223BB610123BB62102303
:100D8C00FB6200237B6307F11803184600F01EFE7C
:100D9C000346002B01D000F04BF90F237B6000239E
:100DAC00BB600023FB6000233B6100237B613B1D88
:100DBC000021184601F08CF80346002B01D000F0FE
:100DCC0037F900BF4037BD4680BD000080B500AF8D
:100DDC00174B184A1A60164B4FF482725A60144B18
:100DEC0000229A60124B0022DA60114B00221A6129
:100DFC000F4B00225A610E4B4FF400729A610C4B50
:100E0C000022DA610A4B00221A62094B00225A6254
:100E1C00074B00229A62064B0A22DA62044801F060
:100E2C00B3F90346002B01D000F002F900BF80BDDE
:100E3C00E00000200030014080B500AF174B184A8D
:100E4C001A60164B4FF482725A60144B00229A604F
:100E5C00124B0022DA60114B00221A610F4B002258
:100E6C005A610E4B4FF400729A610C4B0022DA61FE
:100E7C000A4B00221A62094B00225A62074B0022CD
:100E8C009A62064B0A22DA62044801F07DF90346A5
:100E9C00002B01D000F0CCF800BF80BD3801002041
:100EAC000038004080B586B000AF07F1080300227F
:100EBC001A605A609A60DA603B4600221A605A60E7
:100ECC001D4B4FF080421A601B4B41F63F725A602B
:100EDC00194B00229A60184B0922DA60164B00223B
:100EEC001A61154B00229A61134801F0BBFB0346B3
:100EFC00002B01D000F09CF84FF48053BB6007F13D
:100F0C00080319460C4801F057FD0346002B01D08D
:100F1C0000F08EF800233B6000237B603B461946B3
:100F2C00054801F02DFF0346002B01D000F080F89E
:100F3C0000BF1837BD4680BD9001002080B586B03B
:100F4C0000AF07F1080300221A605A609A60DA6059
:100F5C002F4B9B692E4A43F0040393612C4B9B69E6
:100F6C0003F004037B607B68294B9B69284A43F0A0
:100F7C0008039361264B9B6903F008033B603B68B5
:100F8C0000224021234800F008FD002244F2C03129
:100F9C00214800F002FD4023BB600123FB600023CD
:100FAC003B6102237B6107F108031946194800F0E5
:100FBC0059FB1F23BB600023FB6002233B6107F13D
:100FCC0008031946144800F04DFB4FF48043BB60F6
:100FDC000123FB6000233B6103237B6107F10803C2
:100FEC0019460D4800F03EFB4FF47073BB600123B3
:100FFC00FB6000233B6102237B6107F10803194668
:10100C00054800F02FFB00BF1837BD4680BD00BF60
:10101C000010024000080140000C014080B582B075
:10102C0000AF786000F058F900BF0837BD4680BDAE
:10103C0080B400AF72B600BF00BFFDE780B485B0CE
:10104C0000AF154B9B69144A43F001039361124B9B
:10105C009B6903F00103BB60BB680F4BDB690E4A55
:10106C0043F08053D3610C4BDB6903F080537B60FE
:10107C007B680A4B5B68FB60FB6823F0E063FB60FA
:10108C00FB6843F00073FB60044AFB68536000BFCD
:10109C001437BD4680BC7047001002400000014070
:1010AC0080B58AB000AF786007F1180300221A608F
:1010BC005A609A60DA607B681B682B4A934224D191
:1010CC002A4B9B69294A43F480539361274B9B69B4
:1010DC0003F480537B617B69244B9B69234A43F067
:1010EC0004039361214B9B6903F004033B613B694F
:1010FC00A023BB610223FB6103237B6207F118036E
:10110C0019461B4800F0AEFA29E07B681B68194AA7
:10111C00934224D1154BDB69144A43F48043D361C9
:10112C00124BDB6903F48043FB60FB680F4B9B693C
:10113C000E4A43F0080393610C4B9B6903F00803C0
:10114C00BB60BB684FF42043BB610223FB610323EC
:10115C007B6207F118031946074800F083FA00BFB9
:10116C002837BD4680BD00BF003001400010024052
:10117C000008014000380040000C014080B584B0EC
:10118C0000AF78607B681B68B3F1804F13D10C4BB8
:10119C00DB690B4A43F00103D361094BDB6903F0B4
:1011AC000103FB60FB68002201211C2000F023FAE4
:1011BC001C2000F03CFA00BF1037BD4680BD00BFBC
:1011CC000010024080B400AF00BFFDE780B400AF58
:1011DC0000BFFDE780B400AF00BFFDE780B400AFF7
:1011EC0000BFFDE780B400AF00BFFDE780B400AFE7
:1011FC0000BFBD4680BC704780B400AF00BFBD4689
:10120C0080BC704780B400AF00BFBD4680BC704747
:10121C0080B500AF00F0FCF800BF80BD80B500AF1A
:10122C00024801F0C1FA00BF80BD00BF9001002050
:10123C0080B586B000AF7860144A154BD31A7B6129
:10124C007B693B61134B1B68002B02D1114B124A7B
:10125C001A60104B1A687B6813443A699A4207D299
:10126C0001F03AFE03460C221A604FF0FF3309E0FE
:10127C00084B1B68FB60074B1A687B681344054AD4
:10128C001360FB6818461837BD4680BD005000201F
:10129C0000040000D80100207803002080B400AFC7
:1012AC0000BFBD4680BC704780B483B000AF78608F
:1012BC00396007497B683A6841F82320054A7B6806
:1012CC00002142F8231000BF0C37BD4680BC70478C
:1012DC00DC0100200402002080B483B000AF0023A6
:1012EC007B601CE0124A7B6852F82330002B13DD24
:1012FC000F4A7B6852F823305A1E0D497B6841F81F
:10130C0023200B4A7B6852F82330002B04DC094A5B
:10131C007B68012142F823107B6801337B607B687A
:10132C00092BDFDD00BF00BF0C37BD4680BC70470A
:10133C00DC01002004020020FFF7B0FF0B480C4931
:10134C000C4A002302E0D458C4500433C4188C4215
:10135C00F9D3094A094C002301E013600432A2427C
:10136C00FBD301F0BFFDFFF7BDFC70470000002070
:10137C00A0000020D8380008A0000020780300202E
:10138C00FEE7000080B500AF084B1B68074A43F02E
:10139C0010031360032000F023F90F2000F008F86D
:1013AC00FFF74CFE0023184680BD00BF0020024012
:1013BC0080B582B000AF7860124B1A68124B1B7864
:1013CC0019464FF47A73B3FBF1F3B2FBF3F31846FF
:1013DC0000F03BF90346002B01D001230EE07B68A3
:1013EC000F2B0AD8002279684FF0FF3000F003F978
:1013FC00064A7B681360002300E001231846083777
:10140C00BD4680BD440000204C0000204800002058
:10141C0080B400AF054B1B781A46054B1B68134470
:10142C00034A136000BFBD4680BC70474C000020CF
:10143C002C02002080B400AF024B1B681846BD463E
:10144C0080BC70472C02002080B485B000AF78605F
:10145C007B6803F00703FB600C4BDB68BB60BA686E
:10146C004FF6FF031340BB60FB681A02BB681343C3
:10147C0043F0BF6343F40033BB60044ABB68D360E2
:10148C0000BF1437BD4680BC704700BF00ED00E0C4
:10149C0080B400AF044BDB681B0A03F0070318464B
:1014AC00BD4680BC704700BF00ED00E080B483B047
:1014BC0000AF0346FB7197F90730002B0BDBFB7970
:1014CC0003F01F02064997F907305B09012000FA67
:1014DC0002F241F8232000BF0C37BD4680BC704798
:1014EC0000E100E080B483B000AF03463960FB71CB
:1014FC0097F90730002B0ADB3B68DAB20C4997F9F5
:10150C0007301201D2B20B4483F800230AE03B6887
:10151C00DAB20849FB7903F00F03043B1201D2B293
:10152C000B441A7600BF0C37BD4680BC704700BF19
:10153C0000E100E000ED00E080B489B000AFF8609D
:10154C00B9607A60FB6803F00703FB61FB69C3F1C8
:10155C000703042B28BF0423BB61FB690433062B50
:10156C0002D9FB69033B00E000237B614FF0FF32A3
:10157C00BB6902FA03F3DA43BB681A407B699A40F1
:10158C004FF0FF317B6901FA03F3D9437B680B40C1
:10159C00134318462437BD4680BC704780B582B0D3
:1015AC0000AF78607B68013BB3F1807F01D30123EE
:1015BC000FE00A4A7B68013B53600F214FF0FF306C
:1015CC00FFF790FF054B00229A60044B07221A602C
:1015DC00002318460837BD4680BD00BF10E000E070
:1015EC0080B582B000AF78607868FFF72DFF00BF40
:1015FC000837BD4680BD80B586B000AF0346B960E4
:10160C007A60FB7300237B61FFF742FF78617A6895
:10161C00B9687869FFF790FF024697F90F301146C9
:10162C001846FFF75FFF00BF1837BD4680BD80B579
:10163C0082B000AF0346FB7197F907301846FFF7ED
:10164C0035FF00BF0837BD4680BD80B582B000AF06
:10165C0078607868FFF7A2FF034618460837BD4646
:10166C0080BD000080B48BB000AF7860396000237F
:10167C007B6200233B6269E101227B6A02FA03F37D
:10168C00FB613B681B68FA691340BB61BA69FB6973
:10169C009A4240F058813B685B689A4A93425ED00C
:1016AC00984A934275D8984A934258D0964A934296
:1016BC006FD8964A934252D0944A934269D8944A2E
:1016CC0093424CD0924A934263D8924A934246D06A
:1016DC00904A93425DD8122B2AD8122B59D801A2CA
:1016EC0052F823F06B17000845170008571700082D
:1016FC00991700089F1700089F1700089F170008EC
:10170C009F1700089F1700089F1700089F170008D5
:10171C009F1700089F1700089F1700089F170008C5
:10172C009F1700089F1700084D1700086117000845
:10173C00794A934213D02CE03B68DB683B6229E08A
:10174C003B68DB6804333B6224E03B68DB680833AE
:10175C003B621FE03B68DB680C333B621AE03B6882
:10176C009B68002B02D104233B6213E03B689B680F
:10177C00012B05D108233B627B68FA691A6109E0E9
:10178C0008233B627B68FA695A6103E000233B62E1
:10179C0000E000BFBB69FF2B01D87B6801E07B68D0
:1017AC0004337B61BB69FF2B02D87B6A9B0002E090
:1017BC007B6A083B9B003B617B691A680F213B6984
:1017CC0001FA03F3DB431A40396A3B6901FA03F36C
:1017DC001A437B691A603B685B6803F08053002BEB
:1017EC0000F0B1804D4B9B694C4A43F0010393616F
:1017FC004A4B9B6903F00103BB60BB68484A7B6A98
:10180C009B08023352F82330FB607B6A03F003031E
:10181C009B000F2202FA03F3DB43FA681340FB60D0
:10182C007B68404A934213D07B683F4A93420DD069
:10183C007B683E4A934207D07B683D4A934201D174
:10184C00032306E0042304E0022302E0012300E06A
:10185C0000237A6A02F0030292009340FA68134361
:10186C00FB602F497B6A9B080233FA6841F82320FE
:10187C003B685B6803F48013002B06D02D4B9A68F1
:10188C002C49BB6913438B6006E02A4B9A68BB69F1
:10189C00DB43284913408B603B685B6803F40013FF
:1018AC00002B06D0234BDA682249BB691343CB606B
:1018BC0006E0204BDA68BB69DB431E491340CB6062
:1018CC003B685B6803F40033002B06D0194B5A6855
:1018DC001849BB6913434B6006E0164B5A68BB6949
:1018EC00DB43144913404B603B685B6803F4803363
:1018FC00002B21D00F4B1A680E49BB6913430B60A8
:10190C0021E000BF00003210000031100000221056
:10191C0000002110000012100000111000100240F5
:10192C000000014000080140000C01400010014083
:10193C0000140140000401400B4B1A68BB69DB43E7
:10194C00094913400B607B6A01337B623B681A6860
:10195C007B6A22FA03F3002B7FF48EAE00BF00BF2C
:10196C002C37BD4680BC70470004014080B485B064
:10197C0000AF78600B467B807B689A687B8813404D
:10198C00002B02D00123FB7301E00023FB73FB7BD4
:10199C0018461437BD4680BC704780B483B000AF86
:1019AC0078600B467B8013467B707B78002B03D0D2
:1019BC007A887B681A6103E07B881A047B681A6159
:1019CC0000BF0C37BD4680BC7047000080B586B0A8
:1019DC0000AF78607B68002B01D1012372E27B6839
:1019EC001B6803F00103002B00F08780924B5B68AF
:1019FC0003F00C03042B0CD08F4B5B6803F00C032F
:101A0C00082B12D18C4B5B6803F48033B3F5803F09
:101A1C000BD1894B1B6803F40033002B6CD07B6813
:101A2C005B68002B68D101234CE27B685B68B3F5E3
:101A3C00803F06D1804B1B687F4A43F48033136090
:101A4C002EE07B685B68002B0CD17B4B1B687A4AC1
:101A5C0023F480331360784B1B68774A23F480237C
:101A6C0013601DE07B685B68B3F5A02F0CD1724B43
:101A7C001B68714A43F4802313606F4B1B686E4ADA
:101A8C0043F4803313600BE06B4B1B686A4A23F4FE
:101A9C0080331360684B1B68674A23F48023136000
:101AAC007B685B68002B13D0FFF7C4FC386108E03F
:101ABC00FFF7C0FC02463B69D31A642B01D9032300
:101ACC0000E25D4B1B6803F40033002BF0D014E0F4
:101ADC00FFF7B0FC386108E0FFF7ACFC02463B694D
:101AEC00D31A642B01D90323ECE1534B1B6803F489
:101AFC000033002BF0D100E000BF7B681B6803F0C3
:101B0C000203002B63D04C4B5B6803F00C03002BDF
:101B1C000BD0494B5B6803F00C03082B1CD1464BD4
:101B2C005B6803F48033002B16D1434B1B6803F026
:101B3C000203002B05D07B681B69012B01D001230C
:101B4C00C0E13D4B1B6823F0F8027B685B69DB004E
:101B5C00394913430B603AE07B681B69002B20D09A
:101B6C00364B01221A60FFF765FC386108E0FFF77D
:101B7C0061FC02463B69D31A022B01D90323A1E174
:101B8C002D4B1B6803F00203002BF0D02A4B1B6873
:101B9C0023F0F8027B685B69DB00274913430B6079
:101BAC0015E0264B00221A60FFF744FC386108E070
:101BBC00FFF740FC02463B69D31A022B01D90323E1
:101BCC0080E11D4B1B6803F00203002BF0D17B68F6
:101BDC001B6803F00803002B3AD07B689B69002B31
:101BEC0019D0174B01221A60FFF724FC386108E06A
:101BFC00FFF720FC02463B69D31A022B01D90323C1
:101C0C0060E10D4B5B6A03F00203002BF0D0012066
:101C1C0000F09CFA1CE00A4B00221A60FFF70AFC49
:101C2C0038610FE0FFF706FC02463B69D31A022B22
:101C3C0008D9032346E100BF0010024000004242D5
:101C4C0080044242924B5B6A03F00203002BE9D101
:101C5C007B681B6803F00403002B00F0A6800023B4
:101C6C00FB758B4BDB6903F08053002B0DD1884B3C
:101C7C00DB69874A43F08053D361854BDB6903F002
:101C8C008053BB60BB680123FB75824B1B6803F45C
:101C9C008073002B18D17F4B1B687E4A43F48073F2
:101CAC001360FFF7C7FB386108E0FFF7C3FB024680
:101CBC003B69D31A642B01D9032303E1754B1B68D1
:101CCC0003F48073002BF0D07B68DB68012B06D10A
:101CDC006F4B1B6A6E4A43F0010313622DE07B6865
:101CEC00DB68002B0CD16A4B1B6A694A23F0010399
:101CFC001362674B1B6A664A23F0040313621CE0F1
:101D0C007B68DB68052B0CD1614B1B6A604A43F086
:101D1C00040313625E4B1B6A5D4A43F001031362BA
:101D2C000BE05B4B1B6A5A4A23F001031362584BBE
:101D3C001B6A574A23F0040313627B68DB68002B91
:101D4C0015D0FFF777FB38610AE0FFF773FB02460B
:101D5C003B69D31A41F28832934201D90323B1E093
:101D6C004B4B1B6A03F00203002BEED014E0FFF781
:101D7C0061FB38610AE0FFF75DFB02463B69D31A51
:101D8C0041F28832934201D903239BE0404B1B6AFA
:101D9C0003F00203002BEED1FB7D012B05D13C4B54
:101DAC00DB693B4A23F08053D3617B68DB69002BF2
:101DBC0000F08780364B5B6803F00C03082B61D076
:101DCC007B68DB69022B46D1334B00221A60FFF78C
:101DDC0031FB386108E0FFF72DFB02463B69D31A53
:101DEC00022B01D903236DE0294B1B6803F0007310
:101DFC00002BF0D17B681B6AB3F5803F08D1244BD4
:101E0C005B6823F400327B689B68214913434B6069
:101E1C001F4B5B6823F474127B68196A7B685B6ADE
:101E2C000B431B4913434B601B4B01221A60FFF7FA
:101E3C0001FB386108E0FFF7FDFA02463B69D31A53
:101E4C00022B01D903233DE0114B1B6803F00073F7
:101E5C00002BF0D035E0104B00221A60FFF7EAFAA5
:101E6C00386108E0FFF7E6FA02463B69D31A022B09
:101E7C0001D9032326E0064B1B6803F00073002BEB
:101E8C00F0D11EE07B68DB69012B07D1012319E03F
:101E9C000010024000700040600042420B4B5B6837
:101EAC00FB60FB6803F480327B681B6A9A4206D1A4
:101EBC00FB6803F470127B685B6A9A4201D00123C1
:101ECC0000E0002318461837BD4680BD00100240C4
:101EDC0080B584B000AF786039607B68002B01D18D
:101EEC000123D0E06A4B1B6803F007033A689A425F
:101EFC0010D9674B1B6823F0070265493B681343F5
:101F0C000B60634B1B6803F007033A689A4201D0DD
:101F1C000123B8E07B681B6803F00203002B20D080
:101F2C007B681B6803F00403002B05D0594B5B68DE
:101F3C00584A43F4E06353607B681B6803F0080362
:101F4C00002B05D0534B5B68524A43F460535360EB
:101F5C00504B5B6823F0F0027B689B684D49134340
:101F6C004B607B681B6803F00103002B40D07B683F
:101F7C005B68012B07D1474B1B6803F40033002B24
:101F8C0015D101237FE07B685B68022B07D1414BA5
:101F9C001B6803F00073002B09D1012373E03D4B48
:101FAC001B6803F00203002B01D101236BE0394BBA
:101FBC005B6823F003027B685B68364913434B6014
:101FCC00FFF738FAF8600AE0FFF734FA0246FB68CC
:101FDC00D31A41F28832934201D9032353E02D4B9B
:101FEC005B6803F00C027B685B689B009A42EBD148
:101FFC00274B1B6803F007033A689A4210D2244B14
:10200C001B6823F0070222493B6813430B60204BEB
:10201C001B6803F007033A689A4201D0012332E0AF
:10202C007B681B6803F00403002B08D0194B5B681A
:10203C0023F4E0627B68DB68164913434B607B68D2
:10204C001B6803F00803002B09D0124B5B6823F4C8
:10205C0060527B681B69DB000E4913434B6000F038
:10206C0021F802460B4B5B681B0903F00F030A496E
:10207C00CB5C22FA03F3094A1360094B1B68184620
:10208C00FFF796F9002318461037BD4680BD00BFF8
:10209C00002002400010024070380008440000206C
:1020AC004800002080B487B000AF0023FB60002301
:1020BC00BB6000237B6100237B6000233B611E4BD4
:1020CC005B68FB60FB6803F00C03042B02D0082B4D
:1020DC0003D027E0194B3B6127E0FB689B0C03F016
:1020EC000F03174AD35C7B60FB6803F48033002B2F
:1020FC0010D0114B5B685B0C03F00103114AD35CED
:10210C00BB607B680D4A03FB02F2BB68B2FBF3F3C6
:10211C007B6104E07B680C4A02FB03F37B617B6907
:10212C003B6102E0054B3B6100BF3B6918461C3725
:10213C00BD4680BC704700BF0010024000127A0000
:10214C00803800089038000800093D0080B485B044
:10215C0000AF78600A4B1B680A4AA2FB03235B0A98
:10216C007A6802FB03F3FB6000BFFB685A1EFA603F
:10217C00002BF9D100BF00BF1437BD4680BC70479F
:10218C0044000020D34D621080B582B000AF78605F
:10219C007B68002B01D1012376E07B685B6A002B06
:1021AC0008D17B685B68B3F5827F09D07B6800221D
:1021BC00DA6105E07B6800221A617B6800225A61B3
:1021CC007B6800229A627B6893F85130DBB2002B5B
:1021DC0006D17B68002283F850207868FEF760FFF8
:1021EC007B68022283F851207B681B681A687B6825
:1021FC001B6822F040021A607B685B6803F48272F1
:10220C007B689B6803F404431A437B68DB6803F424
:10221C0000631A437B681B6903F002031A437B6853
:10222C005B6903F001031A437B689B6903F4007339
:10223C001A437B68DB6903F038031A437B681B6A1B
:10224C0003F0800342EA03017B689B6A03F40052AB
:10225C007B681B680A431A607B689B691A0C7B6855
:10226C001B6802F004025A607B681B68DA697B68A1
:10227C001B6822F40062DA617B6800225A657B6875
:10228C00012283F85120002318460837BD4680BD33
:10229C0080B588B000AFF860B9603B601346FB8036
:1022AC000023FB77FB6893F85030012B01D10223FC
:1022BC002DE1FB68012283F85020FFF7BBF8B861D1
:1022CC00FB88FB82FB6893F85130DBB2012B02D008
:1022DC000223FB7716E1BB68002B02D0FB88002B96
:1022EC0002D10123FB770DE1FB68032283F8512017
:1022FC00FB6800225A65FB68BA681A63FB68FA88A7
:10230C009A86FB68FA88DA86FB6800229A63FB6877
:10231C0000229A87FB680022DA87FB6800225A6445
:10232C00FB6800221A64FB689B68B3F5004F0FD161
:10233C00FB681B681A68FB681B6822F040021A6075
:10234C00FB681B681A68FB681B6842F480421A60C1
:10235C00FB681B681B6803F04003402B07D0FB682D
:10236C001B681A68FB681B6842F040021A60FB6825
:10237C00DB68B3F5006F4FD1FB685B68002B02D0B4
:10238C00FB8A012B42D1FB681B6B1A88FB681B680C
:10239C00DA60FB681B6B9A1CFB681A63FB68DB8EAC
:1023AC009BB2013B9AB2FB68DA862FE0FB681B6894
:1023BC009B6803F00203022B12D1FB681B6B1A887B
:1023CC00FB681B68DA60FB681B6B9A1CFB681A6362
:1023DC00FB68DB8E9BB2013B9AB2FB68DA8615E098
:1023EC00FFF728F80246BB69D31A3A689A4203D819
:1023FC003B68B3F1FF3F02D13B68002B06D10323AE
:10240C00FB77FB68012283F851207BE0FB68DB8EB5
:10241C009BB2002BCAD150E0FB685B68002B02D04A
:10242C00FB8A012B44D1FB681A6BFB681B680C33CD
:10243C0012781A70FB681B6B5A1CFB681A63FB68DA
:10244C00DB8E9BB2013B9AB2FB68DA8630E0FB680C
:10245C001B689B6803F00203022B13D1FB681A6BF9
:10246C00FB681B680C3312781A70FB681B6B5A1CC8
:10247C00FB681A63FB68DB8E9BB2013B9AB2FB686C
:10248C00DA8615E0FEF7D6FF0246BB69D31A3A6826
:10249C009A4203D83B68B3F1FF3F02D13B68002B53
:1024AC0006D10323FB77FB68012283F8512029E036
:1024BC00FB68DB8E9BB2002BC9D1BA693968F8680E
:1024CC0000F0B2F80346002B02D0FB6820225A65BC
:1024DC00FB689B68002B0AD100233B61FB681B68DF
:1024EC00DB683B61FB681B689B683B613B69FB6875
:1024FC005B6D002B02D00123FB7703E0FB6801220C
:10250C0083F85120FB68002283F85020FB7F18468B
:10251C002037BD4680BD000080B588B000AFF860A4
:10252C00B9603B601346FB71FEF784FF0246BB6A41
:10253C009B1A3A681344FB61FEF77CFFB861394B78
:10254C001B685B011B0DFA6902FB03F37B6154E012
:10255C003B68B3F1FF3F50D0FEF76CFF0246BB69FE
:10256C00D31AFA699A4202D9FB69002B3DD1FB6858
:10257C001B685A68FB681B6822F0E0025A60FB6813
:10258C005B68B3F5827F11D1FB689B68B3F5004F94
:10259C0004D0FB689B68B3F5806F07D1FB681B68A0
:1025AC001A68FB681B6822F040021A60FB689B6A81
:1025BC00B3F5005F0FD1FB681B681A68FB681B68DA
:1025CC0022F400521A60FB681B681A68FB681B68CF
:1025DC0042F400521A60FB68012283F85120FB6818
:1025EC00002283F85020032317E07B69002B01D1D4
:1025FC000023FB617B69013B7B61FB681B689A686C
:10260C00BB681340BA689A420CBF01230023DBB2AB
:10261C001A46FB799A429BD1002318462037BD46B7
:10262C0080BD00BF4400002080B586B002AFF860CA
:10263C00B9607A607B680093BB6800228021F868DF
:10264C00FFF76AFF0346002B07D0FB685B6D43F076
:10265C002002FB685A65032300E00023184610375C
:10266C00BD4680BD80B582B000AF78607B68002B22
:10267C0001D1012341E07B6893F83D30DBB2002BA4
:10268C0006D17B68002283F83C207868FEF776FD43
:10269C007B68022283F83D207B681A687B680433D0
:1026AC001946104600F074FA7B68012283F8462024
:1026BC007B68012283F83E207B68012283F83F204F
:1026CC007B68012283F840207B68012283F841203B
:1026DC007B68012283F842207B68012283F8432027
:1026EC007B68012283F844207B68012283F8452013
:1026FC007B68012283F83D20002318460837BD462D
:10270C0080BD000080B485B000AF78607B6893F822
:10271C003D30DBB2012B01D001233AE07B68022271
:10272C0083F83D207B681B68DA687B681B6842F085
:10273C000102DA607B681B68184A93420ED07B68F2
:10274C001B68B3F1804F09D07B681B68144A934215
:10275C0004D07B681B68134A934211D17B681B68B9
:10276C009B6803F00703FB60FB68062B10D07B68AB
:10277C001B681A687B681B6842F001021A6007E04C
:10278C007B681B681A687B681B6842F001021A6040
:10279C00002318461437BD4680BC7047002C0140FE
:1027AC00000400400008004080B582B000AF7860A3
:1027BC007B681B681B6903F00203022B22D17B6828
:1027CC001B68DB6803F00203022B1BD17B681B68C0
:1027DC006FF002021A617B6801221A777B681B6812
:1027EC009B6903F00303002B03D0786800F0B4F965
:1027FC0005E0786800F0A7F9786800F0B6F97B6816
:10280C0000221A777B681B681B6903F00403042BF6
:10281C0022D17B681B68DB6803F00403042B1BD1FB
:10282C007B681B686FF004021A617B6802221A77BE
:10283C007B681B689B6903F44073002B03D078689A
:10284C0000F08AF905E0786800F07DF9786800F00E
:10285C008CF97B6800221A777B681B681B6903F074
:10286C000803082B22D17B681B68DB6803F0080384
:10287C00082B1BD17B681B686FF008021A617B6800
:10288C0004221A777B681B68DB6903F00303002BB7
:10289C0003D0786800F060F905E0786800F053F92F
:1028AC00786800F062F97B6800221A777B681B68F5
:1028BC001B6903F01003102B22D17B681B68DB68AB
:1028CC0003F01003102B1BD17B681B686FF01002F8
:1028DC001A617B6808221A777B681B68DB6903F432
:1028EC004073002B03D0786800F036F905E0786867
:1028FC0000F029F9786800F038F97B6800221A7723
:10290C007B681B681B6903F00103012B0ED17B68EC
:10291C001B68DB6803F00103012B07D17B681B6884
:10292C006FF001021A617868FEF778FB7B681B6810
:10293C001B6903F08003802B0ED17B681B68DB685E
:10294C0003F08003802B07D17B681B686FF080023B
:10295C001A61786800F07BFA7B681B681B6903F0CE
:10296C004003402B0ED17B681B68DB6803F04003EF
:10297C00402B07D17B681B686FF040021A617868A6
:10298C0000F0FCF87B681B681B6903F02003202B0C
:10299C000ED17B681B68DB6803F02003202B07D16A
:1029AC007B681B686FF020021A61786800F046FAA9
:1029BC0000BF0837BD4680BD80B584B000AF7860DD
:1029CC0039600023FB737B6893F83C30012B01D1F9
:1029DC000223B4E07B68012283F83C207B6802224E
:1029EC0083F83D207B681B689B68BB60BB6823F049
:1029FC007703BB60BB6823F47F43BB607B681B68B9
:102A0C00BA689A603B681B68B3F5005F3ED0B3F5BB
:102A1C00005F00F28780B3F5805F00F08680B3F52D
:102A2C00805F7FD8702B1AD0702B7BD8602B50D046
:102A3C00602B77D8502B3CD0502B73D8402B58D0D0
:102A4C00402B6FD8302B64D0302B6BD8202B60D020
:102A5C00202B67D8002B5CD0102B5AD062E07B68FF
:102A6C0018683B6899683B685A683B68DB6800F0FB
:102A7C0068F97B681B689B68BB60BB6843F0770395
:102A8C00BB607B681B68BA689A604FE07B6818680B
:102A9C003B6899683B685A683B68DB6800F051F901
:102AAC007B681B689A687B681B6842F480429A605A
:102ABC003CE07B6818683B6859683B68DB681A46E1
:102ACC0000F0C8F87B681B685021184600F01FF90D
:102ADC002CE07B6818683B6859683B68DB681A46D1
:102AEC0000F0E6F87B681B686021184600F00FF9CF
:102AFC001CE07B6818683B6859683B68DB681A46C1
:102B0C0000F0A8F87B681B684021184600F0FFF81D
:102B1C000CE07B681A683B681B681946104600F08D
:102B2C00F6F803E00123FB7300E000BF7B68012291
:102B3C0083F83D207B68002283F83C20FB7B184601
:102B4C001037BD4680BD80B483B000AF786000BF45
:102B5C000C37BD4680BC704780B483B000AF786042
:102B6C0000BF0C37BD4680BC704780B483B000AF4B
:102B7C00786000BF0C37BD4680BC704780B483B012
:102B8C0000AF786000BF0C37BD4680BC70470000BA
:102B9C0080B485B000AF786039607B681B68FB60DF
:102BAC007B68294A93420BD07B68B3F1804F07D0E6
:102BBC007B68264A934203D07B68254A934208D10E
:102BCC00FB6823F07003FB603B685B68FA68134397
:102BDC00FB607B681C4A93420BD07B68B3F1804F3F
:102BEC0007D07B68194A934203D07B68184A9342FA
:102BFC0008D1FB6823F44073FB603B68DB68FA6820
:102C0C001343FB60FB6823F080023B685B69134352
:102C1C00FB607B68FA681A603B689A687B68DA62CA
:102C2C003B681A687B689A627B68074A934203D1B7
:102C3C003B681A697B681A637B6801225A6100BF82
:102C4C001437BD4680BC7047002C01400004004086
:102C5C000008004080B487B000AFF860B9607A60BB
:102C6C00FB681B6A7B61FB681B6A23F00102FB6833
:102C7C001A62FB689B693B613B6923F0F0033B6183
:102C8C007B681B013A6913433B617B6923F00A03A0
:102C9C007B617A69BB6813437B61FB683A699A6113
:102CAC00FB687A691A6200BF1C37BD4680BC70474E
:102CBC0080B487B000AFF860B9607A60FB681B6ABB
:102CCC007B61FB681B6A23F01002FB681A62FB68CD
:102CDC009B693B613B6923F470433B617B681B033D
:102CEC003A6913433B617B6923F0A0037B61BB68AA
:102CFC001B017A6913437B61FB683A699A61FB6833
:102D0C007A691A6200BF1C37BD4680BC704780B41C
:102D1C0085B000AF786039607B689B68FB60FB68AE
:102D2C0023F07003FB603A68FB68134343F007031E
:102D3C00FB607B68FA689A6000BF1437BD4680BCA4
:102D4C00704780B487B000AFF860B9607A603B60C0
:102D5C00FB689B687B617B6923F47F437B613B68E9
:102D6C001A027B681A43BB6813437A6913437B616D
:102D7C00FB687A699A6000BF1C37BD4680BC7047FF
:102D8C0080B485B000AF786039607B6893F83C30D4
:102D9C00012B01D1022346E07B68012283F83C2001
:102DAC007B68022283F83D207B681B685B68FB60B4
:102DBC007B681B689B68BB60FB6823F07003FB603F
:102DCC003B681B68FA681343FB607B681B68FA68F6
:102DDC005A607B681B68164A93420ED07B681B684E
:102DEC00B3F1804F09D07B681B68124A934204D020
:102DFC007B681B68104A93420CD1BB6823F080039C
:102E0C00BB603B685B68BA681343BB607B681B683C
:102E1C00BA689A607B68012283F83D207B680022A7
:102E2C0083F83C20002318461437BD4680BC7047FD
:102E3C00002C0140000400400008004080B483B026
:102E4C0000AF786000BF0C37BD4680BC704780B4C3
:102E5C0083B000AF786000BF0C37BD4680BC7047B4
:102E6C000CB430B5174B0C1E1D689DB008DA8B23C3
:102E7C004FF0FF302B601DB0BDE8304002B0704702
:102E8C004FF40273ADF814300CBF234604F1FF333A
:102E9C00049307934FF6FF7302900690ADF816302B
:102EAC00284621AB209A02A9019300F093F9431C08
:102EBC00BCBF8B232B60002CDDD00022029B1A7030
:102ECC00D9E700BF5000002003460244934200D1D2
:102EDC00704703F8011BF9E7014B1868704700BFF6
:102EEC005000002070B500260C4D0D4C641BA41036
:102EFC00A64209D100F078FC00260A4D0A4C641B4E
:102F0C00A410A64205D170BD55F8043B9847013674
:102F1C00EEE755F8043B98470136F2E7D038000845
:102F2C00D0380008D0380008D438000870477047F3
:102F3C0038B50546002940D051F8043C0C1F002B35
:102F4C00B8BFE41800F0DEF81C4A136833B96360AC
:102F5C0014602846BDE8384000F0DAB8A34208D91E
:102F6C00206821188B4201BF19685B680918216021
:102F7C00EDE71A465B680BB1A342FAD911685018F9
:102F8C00A0420BD120680144501883421160E0D15B
:102F9C0018685B68084410605360DAE702D90C23A8
:102FAC002B60D6E7206821188B4201BF19685B683B
:102FBC000918216063605460CBE738BD74030020AE
:102FCC0070B50F4E0C463168054611B900F0AAFBDE
:102FDC0030602146284600F0A5FB431C03D14FF07E
:102FEC00FF34204670BDC41C24F00304A042F8D06A
:102FFC00211A284600F096FB0130F2D1EFE700BF12
:10300C00700300202DE9F843CD1C25F0030508358D
:10301C000C2D38BF0C25002D064601DBA94204D926
:10302C000C2333600020BDE8F883DFF8D48000F077
:10303C0069F8D8F800301C4644BB29463046FFF7E7
:10304C00BFFF431C044658D1D8F800402746002F38
:10305C0043D1002C4BD023683946304604EB03098E
:10306C0000F060FB814542D1216830466D1A29463B
:10307C00FFF7A6FF01303AD023682B442360D8F821
:10308C0000305A6862BBC8F800700FE02268521B0F
:10309C0020D40B2A17D96119A342256018BF596097
:1030AC00636808BFC8F8001062514B60304600F0EE
:1030BC002FF804F10B00231D20F00700C21A1CBFCF
:1030CC001B1AA350AFE76268A3420CBFC8F80020DC
:1030DC005A60EBE723466468AEE73C467F68B6E788
:1030EC001A465B68A342FBD100235360DEE70C2336
:1030FC003046336000F00CF894E70560D6E700BF6B
:10310C00740300200148FFF711BF00BF6C030020BF
:10311C000148FFF70CBF00BF6C0300202DE9F047FE
:10312C001F468E688246BE420C4690460B682DD8D0
:10313C00B1F90C2012F4906F26D06569096905EB82
:10314C004505A3EB010905EBD5757B1C4B446D10B4
:10315C009D4238BF1D46530527D52946FFF752FF20
:10316C00064660B34A46216900F0FAFAA38923F4B3
:10317C00906343F08003A38126614E4426603E4653
:10318C006561A5EB0905A560BE4200D93E463246F5
:10319C004146206800F0ACFA0020A3689B1BA3609A
:1031AC00236833442360BDE8F0872A4600F0E6FA32
:1031BC0006460028E0D150462169FFF7B9FE0C23E2
:1031CC00CAF80030A3894FF0FF3043F04003A381CD
:1031DC00E9E700002DE9F04F98468B8907461B065E
:1031EC000D4614469DB010D50B6973B94021FFF7FD
:1031FC0009FF2860286130B90C233B604FF0FF3089
:10320C001DB0BDE8F08F40236B6100230993202390
:10321C008DF8293030234FF00109CDF80C80DFF800
:10322C0098818DF82A3023469A4613F8012B0AB15F
:10323C00252AF9D1BAEB040B0BD05B462246294662
:10324C003846FFF76BFF013000F0A780099A5A440B
:10325C0009929AF80030002B00F09F8000234FF069
:10326C00FF32CDE905230AF1010A049307938DF887
:10327C0053301A935446052214F8011B4E4800F0A3
:10328C0061FA049AD8B9D00644BF20238DF8533084
:10329C00110744BF2B238DF853309AF800302A2B9A
:1032AC0015D0544600204FF00A0C079A214611F80D
:1032BC00013B303B092B4BD9B0B1079214E0A0EB8A
:1032CC00080309FA03F31343A2460493D2E7039BC2
:1032DC00191D1B680391002BBBBF5B4242F002021D
:1032EC0007930793B8BF049223782E2B0AD16378E7
:1032FC002A2B32D1039B02341A1D1B68039243EA1A
:10330C00E3730593DFF8B4A003225046217800F054
:10331C0019FA38B14022049BA0EB0A0082401343F7
:10332C000134049314F8011B062225488DF828104B
:10333C0000F008FA002836D0224B1BBB039B073346
:10334C0023F0070308330393099B334409936AE77B
:10335C000C4601200CFB0232A8E700234FF00A0CAC
:10336C00194601340593204610F8012B303A092AEE
:10337C0003D9002BC6D00591C4E7044601230CFBEE
:10338C000121F0E703AB00932A4638460E4B04A903
:10339C00AFF30080421C0646D6D1AB895B063FF5E5
:1033AC002DAF09982CE703AB00932A463846064B01
:1033BC0004A900F07DF8EDE7923800089838000871
:1033CC009C38000800000000293100082DE9F04766
:1033DC00164698468A680B6907469342B8BF13464F
:1033EC00336091F843200C46DDF820900AB101338C
:1033FC0033602368990642BF336802333360256813
:10340C0015F0060506D104F1190AE36832689B1A17
:10341C00AB422BDC94F843302268003B18BF0123ED
:10342C00920630D44146384604F14302C847013075
:10343C0023D02368226903F00603042B14BF002554
:10344C0033684FF0000608BFE56804F11A0408BFA2
:10345C00ED1A54F8123C08BF25EAE5759342C4BF37
:10346C009B1AED18B5421AD1002008E001235246F0
:10347C0041463846C847013003D14FF0FF30BDE814
:10348C00F0870135C1E73020E11881F843005A1C60
:10349C0094F845102244023382F84310C2E701230A
:1034AC00224641463846C8470130E6D00136D9E7B6
:1034BC002DE9FF470F7E9146782F80460C469A46A1
:1034CC000C9E01F1430207D8622F0AD8002F00F09E
:1034DC00D380582F00F0BA8004F1420684F8427071
:1034EC003AE0A7F16303152BF6D801A151F823F0AC
:1034FC005535000869350008E5340008E534000846
:10350C00E5340008E534000869350008E5340008A6
:10351C00E5340008E5340008E53400086B36000893
:10352C009335000825360008E5340008E53400081A
:10353C008D360008E534000893350008E5340008A2
:10354C00E53400082D36000833681A1D1B683260FC
:10355C0004F1420684F8423001239EE0336820686F
:10356C00191D3160060601D51D6803E04506FBD523
:10357C00B3F90050002D03DA2D236D4284F843304B
:10358C000A23594811E021683368080653F8045B94
:10359C0002D4490648BFADB26F2F336014BF0A2363
:1035AC0008235148002184F843106668002EA8BFF8
:1035BC002168A660A4BF21F0040121600DB9002E82
:1035CC004BD01646B5FBF3F103FB1157C75D06F85C
:1035DC00017D2F46BB420D46F4D9082B0BD1236835
:1035EC00DF0708D5236961689942DEBF302306F8EE
:1035FC00013C06F1FF36921B22614B4621464046A8
:10360C00CDF800A003AAFFF7E1FE01304AD14FF03C
:10361C00FF3004B0BDE8F087236843F0200323603B
:10362C007827324884F84570236831681F0651F8B2
:10363C00045B02D45F0648BFADB23160D90744BF0A
:10364C0043F0200323601DB11023ABE72648E9E7C4
:10365C00236823F020032360F6E71646BDE73368A2
:10366C002568181D616930602E061B6801D519602C
:10367C0002E06806FBD51980002316462361BCE7DF
:10368C00336800211A1D32601E686268304600F0F3
:10369C0059F808B1801B606063682361002384F8CB
:1036AC004330AAE73246494640462369D0470130A9
:1036BC00ADD023689B0713D4E068039B9842B8BF36
:1036CC001846A6E70123324649464046D04701300A
:1036DC009DD00135E36803995B1AAB42F2DCEBE752
:1036EC00002504F11906F5E7A3380008B4380008E2
:1036FC00884210B501EB020402D98442234607D854
:10370C00431EA14208D011F8012B03F8012FF8E752
:10371C00014602448A4200D110BD13F8014D02F853
:10372C00014DF7E738B50023054D044608462B60DC
:10373C00FDF77EFD431C02D12B6803B1236038BD1D
:10374C0068030020034610B5C9B2024493421846E0
:10375C0001D1002003E0047801338C42F6D110BD76
:10376C000A44914200F1FF3300D1704710B511F8B3
:10377C00014B914203F8014FF9D110BD2DE9F041F5
:10378C00804615460C4621B91146BDE8F041FFF7BD
:10379C0039BC2AB9FFF7CCFB00242046BDE8F081E8
:1037AC0000F01AF88542064602D8B5EB500FF4D853
:1037BC0029464046FFF726FC07460028ECD0B542C8
:1037CC002A46214628BF3246FFF7CAFF214640460B
:1037DC00FFF7AEFB3C46E0E751F8043C181F002B0A
:1037EC00BCBF0B58C0187047F8B500BFF8BC08BC7C
:1037FC009E467047F8B500BFF8BC08BC9E467047A3
:10380C00253036640000000047494120202000008C
:10381C005020202020200000503838383838000044
:10382C002530366C6400000053482E2530346C640F
:10383C000000000053484946542000004C2E25300F
:10384C00346C6400544F54414C200000257300002C
:10385C0043373431413038353242453936334454AC
:10386C0050244C460000000000000000010203043C
:10387C000607080902030405060708090A0B0C0DC4
:10388C000E0F10100102232D302B2000686C4C0001
:10389C006566674546470030313233343536373844
:1038AC0039414243444546003031323334353637A2
:0C38BC003839616263646566000000003A
:0838C80084C8FF7F010000002D
:0438D00031010008BA
:0438D4000D010008DA
:1038D800C0F9A4B0999282F880900000C77FF8C020
:1038E800889289CF8EBCCE003132333435360036DB
:1038F80035343332310039383736353400FF00007B
:1039080059010000111F8001E7CD5B07D85900005D
:10391800060000000024F400100000000100000070
:10392800540000200000000030020020980200200F
:10393800000300200000000000000000000000005C
:10394800000000000000000000000000000000006F
:10395800000000000000000000000000000000005F
:10396800000000000000000000000000000000004F
:040000050800134597
:00000001FF
