:020000040800F2
:1000000000500020CD2500084123000849230008A6
:100010005123000859230008612300080000000054
:10002000000000000000000000000000692300083C
:100030007523000800000000812300088D230008BC
:1000400015260008152600081526000815260008A4
:100050001526000815260008152600081526000894
:100060001526000815260008152600081526000884
:100070001526000815260008152600081526000874
:100080001526000815260008152600081526000864
:100090001526000815260008152600081526000854
:1000A0001526000815260008152600081526000844
:1000B00099230008152600081526000815260008B3
:1000C0001526000815260008152600081526000824
:1000D0001526000815260008152600081526000814
:1000E0001526000815260008152600080000000047
:1000F0000000000000000000000000000000000000
:0C01000000000000000000005FF808F1A3
:1001100010B5054C237833B9044B13B10448AFF341
:1001200000800123237010BD280200200000000081
:10013000C46D000808B5034B1BB103490348AFF376
:10014000008008BD000000002C020020C46D0008E3
:10015000034613F8012B002AFBD1181A0138704707
:1001600081F0004102E000BF83F0004330B54FEA68
:1001700041044FEA430594EA050F08BF90EA020FD5
:100180001FBF54EA000C55EA020C7FEA645C7FEA68
:10019000655C00F0E2804FEA5454D4EB5555B8BF8B
:1001A0006D420CDD2C4480EA020281EA030382EAFC
:1001B000000083EA010180EA020281EA0303362D8E
:1001C00088BF30BD11F0004F4FEA01314FF4801C61
:1001D0004CEA113102D0404261EB410113F0004F73
:1001E0004FEA03334CEA133302D0524263EB43032A
:1001F00094EA050F00F0A780A4F10104D5F1200EC8
:100200000DDB02FA0EFC22FA05F2801841F1000122
:1002100003FA0EF2801843FA05F359410EE0A5F1F6
:1002200020050EF1200E012A03FA0EFC28BF4CF027
:10023000020C43FA05F3C01851EBE37101F00045DD
:1002400007D54FF0000EDCF1000C7EEB00006EEBEA
:100250000101B1F5801F1BD3B1F5001F0CD3490874
:100260005FEA30004FEA3C0C04F101044FEA4452CB
:1002700012F5800F80F09A80BCF1004F08BF5FEA52
:10028000500C50F1000041EB045141EA050130BD32
:100290005FEA4C0C404141EB0101013C28BFB1F544
:1002A000801FE9D291F0000F04BF01460020B1FA8F
:1002B00081F308BF2033A3F10B03B3F120020CDA62
:1002C0000C3208DD02F1140CC2F10C0201FA0CF040
:1002D00021FA02F10CE002F11402D8BFC2F1200CA5
:1002E00001FA02F120FA0CFCDCBF41EA0C0190405B
:1002F000E41AA2BF01EB0451294330BD6FEA0404A4
:100300001F3C1CDA0C340EDC04F11404C4F120028E
:1003100020FA04F001FA02F340EA030021FA04F3A0
:1003200045EA030130BDC4F10C04C4F1200220FAF7
:1003300002F001FA04F340EA0300294630BD21FA35
:1003400004F0294630BD94F0000F83F4801306BFFB
:1003500081F480110134013D4EE77FEA645C18BFEF
:100360007FEA655C29D094EA050F08BF90EA020F86
:1003700005D054EA000C04BF1946104630BD91EA7E
:10038000030F1EBF0021002030BD5FEA545C05D181
:100390004000494128BF41F0004130BD14F58004C0
:1003A0003CBF01F5801130BD01F0004545F0FE4134
:1003B00041F470014FF0000030BD7FEA645C1ABF69
:1003C000194610467FEA655C1CBF0B46024650EAA0
:1003D000013406BF52EA033591EA030F41F40021CC
:1003E00030BD00BF90F0000F04BF0021704730B552
:1003F0004FF4806404F132044FF000054FF0000127
:1004000050E700BF90F0000F04BF0021704730B5E7
:100410004FF4806404F1320410F0004548BF4042BC
:100420004FF000013EE700BF42004FEAE2014FEA11
:1004300031014FEA02701FBF12F07F4393F07F4FEC
:1004400081F06051704732F07F4208BF704793F0EF
:100450007F4F04BF41F40021704730B54FF4607402
:1004600001F0004521F000411CE700BF50EA010205
:1004700008BF704730B54FF000050AE050EA0102AE
:1004800008BF704730B511F0004502D5404261EB1E
:1004900041014FF4806404F132045FEA915C3FF45F
:1004A000D8AE4FF003025FEADC0C18BF03325FEAFC
:1004B000DC0C18BF033202EBDC02C2F1200300FAAD
:1004C00003FC20FA02F001FA03FE40EA0E0021FAD2
:1004D00002F11444BDE600BF70B54FF0FF0C4CF4C0
:1004E000E06C1CEA11541DBF1CEA135594EA0C0F72
:1004F00095EA0C0F00F0DEF82C4481EA030621EAAD
:100500004C5123EA4C5350EA013518BF52EA0335E7
:1005100041F4801143F4801338D0A0FB02CE4FF099
:100520000005E1FB02E506F00042E0FB03E54FF0C9
:100530000006E1FB03569CF0000F18BF4EF0010EC1
:10054000A4F1FF04B6F5007F64F5407404D25FEABD
:100550004E0E6D4146EB060642EAC62141EA555170
:100560004FEAC52040EA5E504FEACE2EB4F1FD0CB2
:1005700088BFBCF5E06F1ED8BEF1004F08BF5FEA30
:10058000500E50F1000041EB045170BD06F00046E2
:1005900046EA010140EA020081EA0301B4EB5C048F
:1005A000C2BFD4EB0C0541EA045170BD41F4801187
:1005B0004FF0000E013C00F3AB8014F1360FDEBFAC
:1005C000002001F0004170BDC4F10004203C35DA88
:1005D0000C341BDC04F11404C4F1200500FA05F30B
:1005E00020FA04F001FA05F240EA020001F00042AC
:1005F00021F0004110EBD37021FA04F642EB060122
:100600005EEA430E08BF20EAD37070BDC4F10C044B
:10061000C4F1200500FA04F320FA05F001FA04F20F
:1006200040EA020001F0004110EBD37041F10001FB
:100630005EEA430E08BF20EAD37070BDC4F1200506
:1006400000FA05F24EEA020E20FA04F301FA05F26E
:1006500043EA020321FA04F001F0004121FA04F216
:1006600020EA020000EBD3705EEA430E08BF20EAE6
:10067000D37070BD94F0000F0FD101F00046400020
:1006800041EB010111F4801F08BF013CF7D041EAA2
:10069000060195F0000F18BF704703F000465200A6
:1006A00043EB030313F4801F08BF013DF7D043EA77
:1006B0000603704794EA0C0F0CEA135518BF95EA2D
:1006C0000C0F0CD050EA410618BF52EA4306D1D1B4
:1006D00081EA030101F000414FF0000070BD50EAD3
:1006E000410606BF1046194652EA430619D094EA5D
:1006F0000C0F02D150EA013613D195EA0C0F05D147
:1007000052EA03361CBF104619460AD181EA03019A
:1007100001F0004141F0FE4141F470014FF0000052
:1007200070BD41F0FE4141F4780170BD70B54FF0ED
:10073000FF0C4CF4E06C1CEA11541DBF1CEA13556D
:1007400094EA0C0F95EA0C0F00F0A7F8A4EB05044F
:1007500081EA030E52EA03354FEA013100F0888046
:100760004FEA03334FF0805545EA131343EA12630F
:100770004FEA022245EA111545EA10654FEA0026C4
:100780000EF000419D4208BF964244F1FD0404F57D
:10079000407402D25B084FEA3202B61A65EB0305D9
:1007A0005B084FEA32024FF480104FF4002CB6EB96
:1007B000020E75EB030E22BFB61A754640EA0C0016
:1007C0005B084FEA3202B6EB020E75EB030E22BF56
:1007D000B61A754640EA5C005B084FEA3202B6EB97
:1007E000020E75EB030E22BFB61A754640EA9C0056
:1007F0005B084FEA3202B6EB020E75EB030E22BF26
:10080000B61A754640EADC0055EA060E18D04FEAE3
:10081000051545EA16754FEA06164FEAC30343EA83
:1008200052734FEAC2025FEA1C1CC0D111F4801F50
:100830000BD141EA00014FF000004FF0004CB6E749
:1008400011F4801F04BF01430020B4F1FD0C88BFE8
:10085000BCF5E06F3FF6AFAEB5EB030C04BFB6EBF3
:10086000020C5FEA500C50F1000041EB045170BDE6
:100870000EF0004E4EEA113114EB5C04C2BFD4EB13
:100880000C0541EA045170BD41F480114FF0000E97
:10089000013C90E645EA060E8DE60CEA135594EA13
:1008A0000C0F08BF95EA0C0F3FF43BAF94EA0C0F16
:1008B0000AD150EA01347FF434AF95EA0C0F7FF48B
:1008C00025AF104619462CE795EA0C0F06D152EADF
:1008D00003353FF4FDAE1046194622E750EA4106C3
:1008E00018BF52EA43067FF4C5AE50EA41047FF4D4
:1008F0000DAF52EA43057FF4EBAE12E74FF0FF3C39
:1009000006E000BF4FF0010C02E000BF4FF0010C09
:100910004DF804CD4FEA410C7FEA6C5C4FEA430C82
:1009200018BF7FEA6C5C1BD001B050EA410C0CBFD1
:1009300052EA430C91EA030F02BF90EA020F002033
:10094000704710F1000F91EA030F58BF994208BF9A
:1009500090422CBFD8176FEAE37040F00100704757
:100960004FEA410C7FEA6C5C02D150EA013C07D1AE
:100970004FEA430C7FEA6C5CD6D152EA033CD3D0F9
:100980005DF8040B704700BF8446104662468C46F3
:100990001946634600E000BF01B5FFF7B7FF002826
:1009A00048BF10F1000F01BD4DF808EDFFF7F4FF4F
:1009B0000CBF012000205DF808FB00BF4DF808EDDA
:1009C000FFF7EAFF34BF012000205DF808FB00BFFD
:1009D0004DF808EDFFF7E0FF94BF012000205DF81F
:1009E00008FB00BF4DF808EDFFF7CEFF94BF0120D4
:1009F00000205DF808FB00BF4DF808EDFFF7C4FFCD
:100A000034BF012000205DF808FB00BF4FEA410C15
:100A10007FEA6C5C02D150EA013C0AD14FEA430CF8
:100A20007FEA6C5C02D152EA033C02D14FF0000035
:100A300070474FF0010070474FEA410212F5001273
:100A400015D211D56FF47873B3EB625212D94FEA15
:100A5000C12343F0004343EA505311F0004F23FAFF
:100A600002F018BF404270474FF00000704750EA54
:100A7000013005D111F0004008BF6FF00040704711
:100A80004FF00000704700BF4A0011D212F500126B
:100A900011D20DD56FF47873B3EB62520ED44FEAD6
:100AA000C12343F0004343EA505323FA02F0704756
:100AB0004FF00000704750EA013002D14FF0FF3094
:100AC00070474FF00000704780B582B000AF01F072
:100AD000FBFD3860244B1B683A68D31AB3F5FA7FE4
:100AE00001D2FF233BE00023FB7134E000224FF4EE
:100AF00070711E4802F09BF8FB79402202FA03F362
:100B00009BB201221946194802F091F80023BB71EB
:100B10001BE0BB79012202FA03F39BB2194613488A
:100B200002F06EF80346012B0CD10F4A3B681360AC
:100B3000FA79B9790E4813469B00134403440B44D9
:100B40001B780CE0BB790133BB71BB79042BE0D976
:100B5000FB790133FB71FB79032BC7D9FF231846BF
:100B60000837BD4680BD00BF44020020000C014094
:100B7000786E000880B485B000AFF860B9607A6024
:100B8000FB681B4A934215D8FB681A4AA2FB032351
:100B90009A0CBB681A60FA68164BA3FB02139B0CF5
:100BA000154901FB03F3D31A7A681360134B032230
:100BB0001A6018E0FB68124AA2FB03235A0EBB68B6
:100BC0001A60FA680E4BA3FB02135B0E0D4901FB82
:100BD00003F3D31A0C4AA2FB03235A097B681A6059
:100BE000064B01221A6000BF1437BD4680BC704717
:100BF000FFE0F50583DE1B4340420F004C00002060
:100C0000893BE65500E1F5051F85EB5180B485B0C1
:100C100000AFF860B9607A60FB68144A934215D857
:100C2000FB68134AA2FB03239A0CBB681A60FA689C
:100C30000F4BA3FB02139B0C0E4901FB03F3D31ACA
:100C40007A6813600C4B03221A6009E0BB6800222B
:100C50001A607B6800221A60074B4FF0FF321A605F
:100C600000BF1437BD4680BC704700BFFFC99A3B28
:100C700083DE1B4340420F004C000020B0B500AFA4
:100C8000FFF722FF03461A46B94B1A70B84B1B7880
:100C9000FF2B00F0B484B64B1B78243B302B00F2C2
:100CA000278401A252F823F069140008F114000807
:100CB000F1140008F1140008F1140008F114000800
:100CC000F1140008F1140008F1140008F1140008F0
:100CD000F1140008F1140008F1140008F1140008E0
:100CE000F1140008F1140008F1140008F1140008D0
:100CF000F1140008F1140008F1140008F1140008C0
:100D0000F1140008F1140008F1140008F1140008AF
:100D1000F1140008F1140008F11400086D0D00082A
:100D2000130E00085B100008C70E000881100008B1
:100D3000A90F0008F1140008F1140008F1140008CC
:100D4000F1140008F11400089D140008F1140008C3
:100D5000F1140008F114000821140008F11400082F
:100D6000F1140008F114000845140008814B1B78A9
:100D7000002B1CD1804B42F210721A607E4B1B6814
:100D80001846FFF72FFB04460D467C4B1B681846A0
:100D9000FFF728FB02460B4620462946FFF7C6FC14
:100DA00002460B467649C1E9002300F028BC714B8E
:100DB0001B780F2B23D172494FF00002714BC1E910
:100DC00000236E4B1B681846FFF70CFB6C4BD3E9F6
:100DD0000023FFF781FB02460B4610461946FFF73A
:100DE00053FE0346644A1360624B00221A70664B3E
:100DF00000221A70654B00221A6000F000BC5D4BA7
:100E000000221A70604B00221A70604B00221A6098
:100E1000F5E3584B1B78002B1BD1574B43F6982218
:100E20001A60554B1B681846FFF7DCFA04460D465E
:100E3000524B1B681846FFF7D5FA02460B46204670
:100E40002946FFF773FC02460B464D49C1E90023D2
:100E5000D5E3484B1B780F2B23D149494FF00002B3
:100E60004FF08043C1E90023444B1B681846FFF74D
:100E7000B9FA434BD3E90023FFF72EFB02460B469A
:100E800010461946FFF700FE03463B4A1360394BF4
:100E900000221A703C4B00221A703C4B00221A6050
:100EA000ADE3344B1B78052B03D1324B06221A706D
:100EB000A5E3304B00221A70334B00221A70334BDB
:100EC00000221A609BE32B4B1B78002B1BD12A4B73
:100ED00044F620621A60284B1B681846FFF782FA16
:100EE00004460D46254B1B681846FFF77BFA024661
:100EF0000B4620462946FFF719FC02460B462049BF
:100F0000C1E900237BE31B4B1B780F2B22D11C492B
:100F10004FF000021E4BC1E90023184B1B68184616
:100F2000FFF760FA164BD3E90023FFF7D5FA024624
:100F30000B4610461946FFF7A7FD03460E4A1360FD
:100F40000C4B00221A70104B00221A700F4B00221B
:100F50001A6054E3074B1B780A2B1BD1054B022266
:100F60001A70094B00221A70084B00221A6046E3DF
:100F700035000020590200206003002048000020B6
:100F8000680300200000F03F4C02002048020020CF
:100F9000000014409D4B00221A709D4B00221A70D5
:100FA0009C4B00221A602AE3984B1B78002B1BD124
:100FB000994B4CF250321A60974B1B681846FFF75A
:100FC00011FA04460D46954B1B681846FFF70AFABE
:100FD00002460B4620462946FFF7A8FB02460B4671
:100FE0008F49C1E900230AE3884B1B780F2B22D1DC
:100FF0008B494FF000028B4BC1E90023874B1B68E4
:101000001846FFF7EFF9864BD3E90023FFF764FAA0
:1010100002460B4610461946FFF736FD03467E4A48
:1010200013607A4B00221A70794B00221A70794BA8
:1010300000221A60E3E2754B1B780A2B03D1734B35
:101040000E221A70DBE2714B00221A70704B0022E4
:101050001A70704B00221A60D1E20023724A0721F5
:10106000724803F065FD00236F4A0721704803F0C2
:101070005FFD01236C4A07216E4803F059FDBEE273
:10108000624B1B78002B03D1604B01221A70B6E231
:101090005E4B1B78102B24D15E4B1B685E4A13609D
:1010A0005D4B1B681846FFF79DF904460D465B4BE8
:1010B0001B681846FFF796F902460B46204629465C
:1010C000FFF734FB02460B465549C1E900234F4B5D
:1010D00000221A704E4B00221A704E4B00221A60EA
:1010E0008DE24A4B1B780F2B26D14A4B1B681846C2
:1010F000FFF778F902460B464949C1E90023474BFF
:101100001B681846FFF76EF9454BD3E90023FFF73C
:10111000E3F902460B4610461946FFF7B5FC0346B5
:101120003D4A1360394B00221A70394B00221A7065
:10113000384B00221A6062E2344B1B78082B0FD127
:10114000344B1A683C4B1B689A4209D12F4B092239
:101150001A702F4B00221A702E4B00221A605EE18B
:101160002A4B1B78062B0FD12A4B1A68324B1B686F
:101170009A4209D1254B07221A70254B00221A707A
:10118000244B00221A604AE1204B1B78072B40F0C9
:101190009E80204B1B68022B00F08680022B00F201
:1011A0008B80002B02D0012B4ED085E0234B1A6898
:1011B000234BA3FB02131B09322101FB03F3D31AB8
:1011C000182B0FD81D4B19681C4B1A681C4BA3FB1E
:1011D00002031B09322000FB03F3D31ACB1A0F4A78
:1011E00013600FE0154B1968144B1A68144BA3FBDE
:1011F00002031B09322000FB03F3D31ACB1A32334C
:10120000064A13600F4B00221A7056E05902002064
:101210004C0200204802002060030020480000200B
:101220006803002000002440E06D0008200000203A
:10123000270000202E00002038000020440000205D
:101240001F85EB51580200209C4B1A689C4BA3FB56
:1012500002135B09642101FB03F3D31A312B0FD86E
:10126000964B1968954B1A68954BA3FB02035B09D3
:10127000642000FB03F3D31ACB1A924A13600FE0E9
:101280008E4B19688D4B1A688D4BA3FB02035B09CB
:10129000642000FB03F3D31ACB1A6433894A13602A
:1012A000894B01221A7008E0844B1B68854A136041
:1012B000854B02221A7000E000BF844B00221A7096
:1012C000834B00221A70834B00221A6097E17F4BF8
:1012D0001B78092B73D17F4B1B68784A13607A4BBC
:1012E0001B78002B02D0012B2DD059E0734B1A68CC
:1012F000734BA3FB02131B09322101FB03F3D31A27
:10130000182B0FD86D4B19686C4B1A686C4BA3FBEC
:1013100002031B09322000FB03F3D31ACB1A694ADC
:10132000136042E0654B1968644B1A68644BA3FB79
:1013300002031B09322000FB03F3D31ACB1A32330A
:10134000604A136031E05D4B1A685D4BA3FB0213EA
:101350005B09642101FB03F3D31A312B0FD8574BE0
:101360001968564B1A68564BA3FB02035B096420AD
:1013700000FB03F3D31ACB1A524A136015E04F4B0C
:1013800019684E4B1A684E4BA3FB02035B0964209D
:1013900000FB03F3D31ACB1A64334A4A136004E008
:1013A000464B1B68474A136000BF484B00221A7027
:1013B000474B00221A70474B00221A601FE1434B33
:1013C0001B78022B0FD1434B1A68434B1B689A4280
:1013D00009D13E4B03221A703D4B00221A703D4B3F
:1013E00000221A601BE0394B1B78032B0DD1394BBF
:1013F0001B68394A1360354B00221A70344B0022A7
:101400001A70344B00221A60F9E0304B00221A7037
:101410002F4B00221A702F4B00221A60EFE0EEE0F3
:101420002A4B1B78002B03D1284B05221A70E6E0CB
:10143000264B00221A70264B00221A70254B0022E0
:101440001A60DCE0214B1B78002B03D11F4B0A22D2
:101450001A70D4E01D4B00221A701D4B00221A7026
:101460001C4B00221A60CAE0184B1B78002B03D1DA
:10147000164B10221A70C2E0144B1B780A2B03D1B2
:10148000124B0C221A70BAE0104B00221A70104B4B
:1014900000221A700F4B00221A60B0E00B4B1B7831
:1014A000002B03D1094B0F221A70A8E0074B1B78C1
:1014B0000A2B13D1054B0B221A70A0E04400002028
:1014C0001F85EB51480000205802002059020020DF
:1014D0004C02002048020020380000204A4B002225
:1014E0001A704A4B00221A70494B00221A6086E09B
:1014F000484B1B782F2B76D9464B1B78392B72D84B
:10150000414B1B78052B0CD13F4B08221A70414BE5
:101510001B78303B1A463E4B1A603C4B01221A7036
:101520006BE0394B1B78082B1BD0374B1B78062BF5
:1015300017D0354B1B78092B13D0334B1B78022B5C
:101540000FD0314B1B78032B0BD02F4B1B78042B68
:1015500007D02D4B1B78102B03D02B4B1B780F2B58
:1015600017D12A4B1B78052B3CD8294B1A681346F8
:101570009B0013445B001A46264B1B781344303BF8
:10158000234A1360214B1B780133DAB21F4B1A70C8
:1015900028E01D4B1B78072B17D11C4B1B78002B09
:1015A0002BD11B4B1A6813469B0013445B001A4651
:1015B000184B1B781344303B154A1360134B1B78B0
:1015C0000133DAB2114B1A7017E00F4B04221A7074
:1015D000104B1B78303B1A460D4B1A600B4B012207
:1015E0001A700AE009E0084B00221A70074B00222B
:1015F0001A70074B00221A6000E000BF00BF054BC5
:10160000FF221A7000BFB0BD590200204C0200201A
:10161000480200203500002080B58EB002AFA94BF3
:101620001B78102B00F24E8201A252F823F000BF6B
:1016300075160008A5160008CB1600080917000843
:101640001D1A0008471700086D17000893170008B7
:10165000B3170008D9170008FF1700083919000848
:1016600025180008D1190008F7190008911A000878
:101670005D1A00080023944A0721944803F058FAA1
:10168000934B1B68904A0721924803F051FA924B02
:10169000D3E90023CDE90023904A0721904803F0C5
:1016A00047FA22E28F4A0721884803F041FA8E4B1D
:1016B0001B688E4A0721874803F03AFA0023824AC2
:1016C0000721874803F034FA0FE2894B1B6807F1C2
:1016D0002000864A072103F02BFA07F12003854AF0
:1016E00007217A4803F024FA834A0721794803F056
:1016F0001FFA0023744A0721794803F019FA7F4B37
:101700004FF0FF321A60F0E1794B1B6807F12000BF
:10171000764A072103F00CFA07F12003754A0721E6
:101720006A4803F005FA0023674A0721694803F075
:10173000FFF9734A07216A4803F0FAF96F4B4FF03B
:10174000FF321A60D1E16A4B1B68684A07215F4883
:1017500003F0EEF900235C4A07215E4803F0E8F944
:10176000684A07215E4803F0E3F9BEE1604B1B685D
:101770005E4A0721554803F0DBF90023524A07214E
:10178000544803F0D5F9604A0721554803F0D0F9D1
:10179000ABE15E4A07214D4803F0CAF95C4A0721D4
:1017A0004C4803F0C5F95B4A07214D4803F0C0F9E6
:1017B0009BE14F4B1B684D4A0721444803F0B8F9A1
:1017C0000023414A0721434803F0B2F9524A072156
:1017D000434803F0ADF988E1454B1B68434A0721B4
:1017E0003A4803F0A5F90023374A0721394803F0A6
:1017F0009FF93C4A07213A4803F09AF975E1002322
:10180000314A0721314803F093F900232E4A07217A
:10181000304803F08DF9414B2B4A0721304803F043
:1018200087F962E13E4B1B683E4A3F491846FFF785
:10183000EDF93D4B1B6807F118002C4A072103F016
:1018400077F9394B1A68394BA3FB02135B0B42F251
:10185000107101FB03F3D31A07F11000344A082179
:1018600003F066F90023FB621BE007F11003184642
:10187000FEF76EFC0246FB6A9A420AD907F1100293
:10188000FB6A13441978114AFB6A13440A461A701A
:1018900004E00E4AFB6A134420221A70FB6A0133EB
:1018A000FB62FB6A052BE0DD1E4B1B680F4A07211C
:1018B000084803F03DF91F4A0721094803F038F9A9
:1018C00013E100BF59020020E06D00082000002055
:1018D000600300202700002068030020E86D000856
:1018E0002E000020F06D000848000020F86D000870
:1018F00048020020006E0008046E00084C00002022
:101900000C6E0008146E00081C6E0008246E00089F
:101910002C6E0008346E00083C6E00083F420F0039
:101920004000002054020020500200205917B7D177
:10193000446E0008506E00086E4B1B686E4A6F497B
:101940001846FFF717F96D4B1B6807F108006C4A42
:10195000072103F0EDF8694B1A686A4BA3FB0213E9
:101960005B0B42F2107101FB03F3D31A3846664A4F
:10197000082103F0DDF80023BB6219E03B4618465E
:10198000FEF7E6FB0246BB6A9A4209D93A46BB6AB1
:10199000134419785D4ABB6A13440A461A7004E07E
:1019A0005A4ABB6A134420221A70BB6A0133BB62D5
:1019B000BB6A052BE2DD504B1B68514A0721544896
:1019C00003F0B6F8534A0721534803F0B1F88CE00E
:1019D000524B534A07214D4803F0AAF80023504ABE
:1019E00007214B4803F0A4F800234D4A07214A4839
:1019F00003F09EF879E04B4B494A0721434803F036
:101A000097F80023464A0721414803F091F8002344
:101A1000434A0721404803F08BF866E0424B1B68BD
:101A200007F12000364A072103F082F807F120036E
:101A30003E4A0721354803F07BF80023384A072146
:101A4000334803F075F80023354A0721324803F084
:101A50006FF8374B4FF0FF321A6046E0324B1B688D
:101A600007F12000264A072103F062F807F120035E
:101A70002E4A0721254803F05BF82E4A0721244807
:101A800003F056F82C4A0721234803F051F82CE0C4
:101A9000254B1B6807F12000194A072103F048F87D
:101AA00007F12003214A0721184803F041F8214A91
:101AB0000721174803F03CF8204A0721164803F095
:101AC00037F812E00023164A0721104803F030F8D7
:101AD0000023134A07210E4803F02AF80023104A76
:101AE00007210D4803F024F800BF00BF3037BD4682
:101AF00080BD00BF3C0000205402002050020020A6
:101B0000F86D00085917B7D1586E00082000002062
:101B100027000020606E00082E000020151605002A
:101B2000E06D00081CC8060048020020006E000896
:101B30004C000020686E0008F06D0008706E000810
:101B400080B483B000AF0346FB71FB792F2B07D91C
:101B5000FB79392B04D8FB79303B374AD35C66E0FC
:101B6000FB794C2B02D1354B1B7860E0FB792E2B97
:101B700002D1324B5B785AE0FB79542B02D12F4BC8
:101B80009B7854E0FB794F2B02D12C4BDB784EE055
:101B9000FB79412B02D1294B1B7948E0FB79532B70
:101BA00002D1264B5B7942E0FB79482B02D1234BD3
:101BB0009B793CE0FB79492B02D1204BDB7936E065
:101BC000FB79462B02D11D4B1B7A30E0FB79472B6A
:101BD00002D11A4B5B7A2AE0FB79502B02D1174BCA
:101BE0009B7A24E0FB79432B02D1144BDB7A1EE075
:101BF000FB79452B02D1114B1B7B18E0FB79552B50
:101C000002D10E4B5B7B12E0FB794E2B02D10B4BCA
:101C10009B7B0CE0FB79522B02D1084BDB7B06E06F
:101C2000FB79442B02D1054B1B7C00E0FF231846B7
:101C30000C37BD4680BC7047000000200C0000201F
:101C400080B584B000AF78600B46FB700023FB606A
:101C500035E0FA681346DB009B1A7A68134418468D
:101C6000FEF776FA0346BB60FB78052B1FD8FB789E
:101C7000BA689A4215DDFA681346DB009B1A7A6847
:101C80001A44BB68591EFB78CB1AD35C1846FFF781
:101C900057FF034619460E4AFB6813440A461A705A
:101CA0000AE00B4AFB681344FF221A7004E0084A5A
:101CB000FB681344FF221A70FB680133FB60FB686A
:101CC000022BC6DD024B18461037BD4680BD00BF53
:101CD0006402002080B584B000AF78600B46FB70D2
:101CE000FB7819467868FFF7ABFFB860FB78052BE7
:101CF00020D801A252F823F0111D0008171D00087A
:101D00001D1D0008231D0008291D00082F1D0008A7
:101D10002023FB7311E01023FB730EE00823FB73F9
:101D20000BE00423FB7308E00223FB7305E00123AF
:101D3000FB7302E00123FB7300BF224B1B68002BE7
:101D40002CDB204B1B68052B28DCFA781D4B1B680D
:101D50009A4213D11C4AFB7B1370BB689A781A4BCA
:101D60005A70BB6801331B7803F07F03DAB2164B5D
:101D70009A70BB681A78144BDA701FE0124AFB7B2A
:101D80001370BB689A78104B5A70BB685A780E4B28
:101D90009A70BB681A780C4BDA700FE00A4AFB7B2A
:101DA0001370BB689A78084B5A70BB685A78064B18
:101DB0009A70BB681A78044BDA7000BF00BF103706
:101DC000BD4680BD4C0000205C02002080B500AF05
:101DD0000E4B1B78DBB219460D48FFF77BFF042141
:101DE0000C4800F01BF8094B1B78DBB25A1C0A4B5D
:101DF00083FB0231D317C91A0B465B000B445B000F
:101E0000D11ACAB2014B1A7000BF80BD5A0200201D
:101E1000200000205C020020ABAAAA2A80B582B074
:101E200000AF7860396000224FF480410A4800F02A
:101E3000FEFE3B689AB24FF496737968074801F04A
:101E400071FB01224FF48041034800F0F0FE00BF17
:101E50000837BD4680BD00BF000C0140C002002015
:101E600080B500AF00F0D8FB00F032F800F024F9A4
:101E700000F0A0F800F0D4F800F066F8124801F085
:101E80008BFD6421002000F059FB6421012000F04B
:101E900055FB6421022000F051FBFEF7EFFE0B4BD7
:101EA0001B68012B05D1FFF791FF0521002000F0F1
:101EB00045FB064B5B68012BEFD1FFF7ADFB0A2119
:101EC000012000F03BFBE8E7180300209C03002002
:101ED00080B590B000AF07F1180328220021184602
:101EE00002F09DFE3B1D00221A605A609A60DA6083
:101EF0001A610223BB610123BB621023FB62002332
:101F00007B6307F11803184600F0AAFE0346002B76
:101F100001D000F04BF90F237B600023BB6000234E
:101F2000FB6000233B6100237B613B1D00211846C1
:101F300001F018F90346002B01D000F037F900BF7B
:101F40004037BD4680BD000080B500AF174B184A32
:101F50001A60164B4FF482725A60144B00229A603A
:101F6000124B0022DA60114B00221A610F4B002243
:101F70005A610E4B4FF400729A610C4B0022DA61E9
:101F80000A4B00221A62094B00225A62074B0022B8
:101F90009A62064B0A22DA62044801F03FFA0346CD
:101FA000002B01D000F002F900BF80BD68020020C4
:101FB0000030014080B500AF174B184A1A60164B2D
:101FC0004FF482725A60144B00229A60124B002226
:101FD000DA60114B00221A610F4B00225A610E4B3E
:101FE0004FF400729A610C4B0022DA610A4B002216
:101FF0001A62094B00225A62074B00229A62064B72
:102000000A22DA62044801F009FA0346002B01D0E3
:1020100000F0CCF800BF80BDC002002000380040B6
:1020200080B586B000AF07F1080300221A605A603D
:102030009A60DA603B4600221A605A601D4B4FF0EE
:1020400080421A601B4B41F63F725A60194B0022C6
:102050009A60184B0922DA60164B00221A61154B60
:1020600000229A61134801F047FC0346002B01D07F
:1020700000F09CF84FF48053BB6007F10803194649
:102080000C4801F0E3FD0346002B01D000F08EF870
:1020900000233B6000237B603B461946054801F066
:1020A000B9FF0346002B01D000F080F800BF1837BD
:1020B000BD4680BD1803002080B586B000AF07F193
:1020C000080300221A605A609A60DA602F4B9B69FD
:1020D0002E4A43F0040393612C4B9B6903F00403E5
:1020E0007B607B68294B9B69284A43F00803936116
:1020F000264B9B6903F008033B603B6800224021AC
:10210000234800F094FD002244F2C031214800F041
:102110008EFD4023BB600123FB6000233B61022353
:102120007B6107F108031946194800F0E5FB1F23FE
:10213000BB600023FB6002233B6107F108031946E3
:10214000144800F0D9FB4FF48043BB600123FB60CF
:1021500000233B6103237B6107F1080319460D4807
:1021600000F0CAFB4FF47073BB600123FB600023D7
:102170003B6102237B6107F108031946054800F023
:10218000BBFB00BF1837BD4680BD00BF001002403A
:1021900000080140000C014080B582B000AF7860BB
:1021A00000F0E4F900BF0837BD4680BD80B400AF41
:1021B00072B600BF00BFFDE780B485B000AF154B1D
:1021C0009B69144A43F001039361124B9B6903F02E
:1021D0000103BB60BB680F4BDB690E4A43F08053C1
:1021E000D3610C4BDB6903F080537B607B680A4B47
:1021F0005B68FB60FB6823F0E063FB60FB6843F017
:102200000073FB60044AFB68536000BF1437BD468F
:1022100080BC7047001002400000014080B58AB0C9
:1022200000AF786007F1180300221A605A609A60C4
:10223000DA607B681B682B4A934224D12A4B9B6946
:10224000294A43F480539361274B9B6903F48053DD
:102250007B617B69244B9B69234A43F004039361B0
:10226000214B9B6903F004033B613B69A023BB61E5
:102270000223FB6103237B6207F1180319461B4805
:1022800000F03AFB29E07B681B68194A934224D18D
:10229000154BDB69144A43F48043D361124BDB696D
:1022A00003F48043FB60FB680F4B9B690E4A43F0CD
:1022B000080393610C4B9B6903F00803BB60BB6888
:1022C0004FF42043BB610223FB6103237B6207F1D0
:1022D00018031946074800F00FFB00BF2837BD461A
:1022E00080BD00BF003001400010024000080140E6
:1022F00000380040000C014080B584B000AF786029
:102300007B681B68B3F1804F13D10C4BDB690B4A20
:1023100043F00103D361094BDB6903F00103FB6068
:10232000FB68002201211C2000F0AFFA1C2000F005
:10233000C8FA00BF1037BD4680BD00BF0010024084
:1023400080B400AF00BFFDE780B400AF00BFFDE781
:1023500080B400AF00BFFDE780B400AF00BFFDE771
:1023600080B400AF00BFFDE780B400AF00BFBD4642
:1023700080BC704780B400AF00BFBD4680BC7047D2
:1023800080B400AF00BFBD4680BC704780B500AFD1
:1023900000F088F900BF80BD80B500AF024801F0B1
:1023A0004DFB00BF80BD00BF1803002080B400AF0C
:1023B00001231846BD4680BC704780B582B000AF8F
:1023C0007860396002F07EFC034616221A604FF0F6
:1023D000FF3318460837BD4680BD80B582B000AFD8
:1023E00078604FF0FF317868FFF7E7FF00BFFDE747
:1023F00080B586B000AFF860B9607A6000237B6179
:102400000AE0AFF300800146BB685A1CBA60CAB24A
:102410001A707B6901337B617A697B689A42F0DBD1
:102420007B6818461837BD4680BD80B586B000AFC2
:10243000F860B9607A6000237B6109E0BB685A1CD0
:10244000BA601B781846AFF300807B6901337B616B
:102450007A697B689A42F1DB7B6818461837BD467B
:1024600080BD80B483B000AF78604FF0FF33184672
:102470000C37BD4680BC704780B483B000AF786035
:1024800039603B684FF400525A60002318460C37FD
:10249000BD4680BC704780B483B000AF7860012334
:1024A00018460C37BD4680BC704780B485B000AF7D
:1024B000F860B9607A60002318461437BD4680BCC6
:1024C0007047000080B586B000AF7860144A154BA5
:1024D000D31A7B617B693B61134B1B68002B02D1D4
:1024E000114B124A1A60104B1A687B6813443A6900
:1024F0009A4207D202F0E6FB03460C221A604FF024
:10250000FF3309E0084B1B68FB60074B1A687B68C8
:102510001344054A1360FB6818461837BD4680BD52
:102520000050002000040000700300201805002067
:1025300080B400AF00BFBD4680BC704780B483B09C
:1025400000AF7860396007497B683A6841F823201A
:10255000054A7B68002142F8231000BF0C37BD46B6
:1025600080BC7047740300209C03002080B483B0BB
:1025700000AF00237B601CE0124A7B6852F82330D6
:10258000002B13DD0F4A7B6852F823305A1E0D4989
:102590007B6841F823200B4A7B6852F82330002BDC
:1025A00004DC094A7B68012142F823107B6801336F
:1025B0007B607B68092BDFDD00BF00BF0C37BD46A9
:1025C00080BC7047740300209C030020FFF7B0FF1D
:1025D0000B480C490C4A002302E0D458C450043381
:1025E000C4188C42F9D3094A094C002301E0136056
:1025F0000432A242FBD302F06BFBFFF731FC7047C1
:102600000000002024020020307200082802002070
:1026100014050020FEE7000080B500AF084B1B68E2
:10262000074A43F010031360032000F023F90F2042
:1026300000F008F8FFF7C0FD0023184680BD00BF7A
:102640000020024080B582B000AF7860124B1A685B
:10265000124B1B7819464FF47A73B3FBF1F3B2FBBC
:10266000F3F3184600F03BF90346002B01D0012399
:102670000EE07B680F2B0AD8002279684FF0FF30FC
:1026800000F003F9064A7B681360002300E0012391
:1026900018460837BD4680BD500000205800002075
:1026A0005400002080B400AF054B1B781A46054B40
:1026B0001B681344034A136000BFBD4680BC7047CB
:1026C00058000020C403002080B400AF024B1B68F8
:1026D0001846BD4680BC7047C403002080B485B056
:1026E00000AF78607B6803F00703FB600C4BDB688E
:1026F000BB60BA684FF6FF031340BB60FB681A0269
:10270000BB68134343F0BF6343F40033BB60044A28
:10271000BB68D36000BF1437BD4680BC704700BFA4
:1027200000ED00E080B400AF044BDB681B0A03F04F
:1027300007031846BD4680BC704700BF00ED00E0AF
:1027400080B483B000AF0346FB7197F90730002BCC
:102750000BDBFB7903F01F02064997F907305B0991
:10276000012000FA02F241F8232000BF0C37BD46D9
:1027700080BC704700E100E080B483B000AF034646
:102780003960FB7197F90730002B0ADB3B68DAB23E
:102790000C4997F907301201D2B20B4483F8002399
:1027A0000AE03B68DAB20849FB7903F00F03043B07
:1027B0001201D2B20B441A7600BF0C37BD4680BC62
:1027C000704700BF00E100E000ED00E080B489B098
:1027D00000AFF860B9607A60FB6803F00703FB6143
:1027E000FB69C3F10703042B28BF0423BB61FB690A
:1027F0000433062B02D9FB69033B00E000237B6115
:102800004FF0FF32BB6902FA03F3DA43BB681A40A8
:102810007B699A404FF0FF317B6901FA03F3D9439A
:102820007B680B40134318462437BD4680BC704775
:1028300080B582B000AF78607B68013BB3F1807FE8
:1028400001D301230FE00A4A7B68013B53600F214B
:102850004FF0FF30FFF790FF054B00229A60044BCA
:1028600007221A60002318460837BD4680BD00BF06
:1028700010E000E080B582B000AF78607868FFF7C4
:102880002DFF00BF0837BD4680BD80B586B000AFC4
:102890000346B9607A60FB7300237B61FFF742FF58
:1028A00078617A68B9687869FFF790FF024697F90E
:1028B0000F3011461846FFF75FFF00BF1837BD46BF
:1028C00080BD80B582B000AF0346FB7197F9073039
:1028D0001846FFF735FF00BF0837BD4680BD80B5FD
:1028E00082B000AF78607868FFF7A2FF0346184611
:1028F0000837BD4680BD000080B48BB000AF786063
:10290000396000237B6200233B6269E101227B6A1C
:1029100002FA03F3FB613B681B68FA691340BB6171
:10292000BA69FB699A4240F058813B685B689A4AF1
:1029300093425ED0984A934275D8984A934258D0B1
:10294000964A93426FD8964A934252D0944A934201
:1029500069D8944A93424CD0924A934263D8924A9F
:10296000934246D0904A93425DD8122B2AD8122B1C
:1029700059D801A252F823F0F3290008CD29000804
:10298000DF290008212A0008272A0008272A000832
:10299000272A0008272A0008272A0008272A0008D3
:1029A000272A0008272A0008272A0008272A0008C3
:1029B000272A0008272A0008272A0008D529000806
:1029C000E9290008794A934213D02CE03B68DB6880
:1029D0003B6229E03B68DB6804333B6224E03B68F0
:1029E000DB6808333B621FE03B68DB680C333B620B
:1029F0001AE03B689B68002B02D104233B6213E082
:102A00003B689B68012B05D108233B627B68FA6910
:102A10001A6109E008233B627B68FA695A6103E0A6
:102A200000233B6200E000BFBB69FF2B01D87B683D
:102A300001E07B6804337B61BB69FF2B02D87B6AB2
:102A40009B0002E07B6A083B9B003B617B691A6844
:102A50000F213B6901FA03F3DB431A40396A3B69F2
:102A600001FA03F31A437B691A603B685B6803F061
:102A70008053002B00F0B1804D4B9B694C4A43F0D2
:102A8000010393614A4B9B6903F00103BB60BB6880
:102A9000484A7B6A9B08023352F82330FB607B6A0A
:102AA00003F003039B000F2202FA03F3DB43FA68EF
:102AB0001340FB607B68404A934213D07B683F4AD7
:102AC00093420DD07B683E4A934207D07B683D4AD3
:102AD000934201D1032306E0042304E0022302E031
:102AE000012300E000237A6A02F00302920093407F
:102AF000FA681343FB602F497B6A9B080233FA682C
:102B000041F823203B685B6803F48013002B06D058
:102B10002D4B9A682C49BB6913438B6006E02A4B06
:102B20009A68BB69DB43284913408B603B685B684C
:102B300003F40013002B06D0234BDA682249BB694B
:102B40001343CB6006E0204BDA68BB69DB431E49C8
:102B50001340CB603B685B6803F40033002B06D066
:102B6000194B5A681849BB6913434B6006E0164B72
:102B70005A68BB69DB43144913404B603B685B6890
:102B800003F48033002B21D00F4B1A680E49BB6928
:102B900013430B6021E000BF000032100000311031
:102BA000000022100000211000001210000011107F
:102BB000001002400000014000080140000C0140EC
:102BC0000010014000140140000401400B4B1A6842
:102BD000BB69DB43094913400B607B6A01337B62AD
:102BE0003B681A687B6A22FA03F3002B7FF48EAEEF
:102BF00000BF00BF2C37BD4680BC704700040140B9
:102C000080B485B000AF78600B467B807B689A68A3
:102C10007B881340002B02D00123FB7301E00023CB
:102C2000FB73FB7B18461437BD4680BC704780B4ED
:102C300083B000AF78600B467B8013467B707B7857
:102C4000002B03D07A887B681A6103E07B881A0422
:102C50007B681A6100BF0C37BD4680BC704700001E
:102C600080B586B000AF78607B68002B01D101236E
:102C700072E27B681B6803F00103002B00F0878081
:102C8000924B5B6803F00C03042B0CD08F4B5B68FA
:102C900003F00C03082B12D18C4B5B6803F48033D8
:102CA000B3F5803F0BD1894B1B6803F40033002B35
:102CB0006CD07B685B68002B68D101234CE27B6899
:102CC0005B68B3F5803F06D1804B1B687F4A43F4B5
:102CD000803313602EE07B685B68002B0CD17B4B4C
:102CE0001B687A4A23F480331360784B1B68774A59
:102CF00023F4802313601DE07B685B68B3F5A02F8D
:102D00000CD1724B1B68714A43F4802313606F4BE4
:102D10001B686E4A43F4803313600BE06B4B1B68F7
:102D20006A4A23F480331360684B1B68674A23F4B4
:102D3000802313607B685B68002B13D0FFF7C4FC13
:102D4000386108E0FFF7C0FC02463B69D31A642BE8
:102D500001D9032300E25D4B1B6803F40033002B11
:102D6000F0D014E0FFF7B0FC386108E0FFF7ACFCEE
:102D700002463B69D31A642B01D90323ECE1534B80
:102D80001B6803F40033002BF0D100E000BF7B6828
:102D90001B6803F00203002B63D04C4B5B6803F00D
:102DA0000C03002B0BD0494B5B6803F00C03082B82
:102DB0001CD1464B5B6803F48033002B16D1434B88
:102DC0001B6803F00203002B05D07B681B69012BF5
:102DD00001D00123C0E13D4B1B6823F0F8027B6862
:102DE0005B69DB00394913430B603AE07B681B6980
:102DF000002B20D0364B01221A60FFF765FC3861AA
:102E000008E0FFF761FC02463B69D31A022B01D9A7
:102E10000323A1E12D4B1B6803F00203002BF0D02C
:102E20002A4B1B6823F0F8027B685B69DB002749AB
:102E300013430B6015E0264B00221A60FFF744FC99
:102E4000386108E0FFF740FC02463B69D31A022BC9
:102E500001D9032380E11D4B1B6803F00203002B03
:102E6000F0D17B681B6803F00803002B3AD07B6825
:102E70009B69002B19D0174B01221A60FFF724FC25
:102E8000386108E0FFF720FC02463B69D31A022BA9
:102E900001D9032360E10D4B5B6A03F00203002BB1
:102EA000F0D0012000F09CFA1CE00A4B00221A60CE
:102EB000FFF70AFC38610FE0FFF706FC02463B69AA
:102EC000D31A022B08D9032346E100BF00100240A9
:102ED0000000424280044242924B5B6A03F00203CC
:102EE000002BE9D17B681B6803F00403002B00F082
:102EF000A6800023FB758B4BDB6903F08053002B0E
:102F00000DD1884BDB69874A43F08053D361854BF1
:102F1000DB6903F08053BB60BB680123FB75824B08
:102F20001B6803F48073002B18D17F4B1B687E4A0B
:102F300043F480731360FFF7C7FB386108E0FFF7C5
:102F4000C3FB02463B69D31A642B01D9032303E177
:102F5000754B1B6803F48073002BF0D07B68DB6833
:102F6000012B06D16F4B1B6A6E4A43F001031362BB
:102F70002DE07B68DB68002B0CD16A4B1B6A694A29
:102F800023F001031362674B1B6A664A23F00403B4
:102F900013621CE07B68DB68052B0CD1614B1B6A5C
:102FA000604A43F0040313625E4B1B6A5D4A43F0C0
:102FB000010313620BE05B4B1B6A5A4A23F00103C7
:102FC0001362584B1B6A574A23F0040313627B6851
:102FD000DB68002B15D0FFF777FB38610AE0FFF7BD
:102FE00073FB02463B69D31A41F28832934201D9FE
:102FF0000323B1E04B4B1B6A03F00203002BEED01E
:1030000014E0FFF761FB38610AE0FFF75DFB024661
:103010003B69D31A41F28832934201D903239BE0E2
:10302000404B1B6A03F00203002BEED1FB7D012B0A
:1030300005D13C4BDB693B4A23F08053D3617B686D
:10304000DB69002B00F08780364B5B6803F00C03D4
:10305000082B61D07B68DB69022B46D1334B002201
:103060001A60FFF731FB386108E0FFF72DFB0246DD
:103070003B69D31A022B01D903236DE0294B1B684E
:1030800003F00073002BF0D17B681B6AB3F5803F1F
:1030900008D1244B5B6823F400327B689B6821498C
:1030A00013434B601F4B5B6823F474127B68196AEF
:1030B0007B685B6A0B431B4913434B601B4B01222C
:1030C0001A60FFF701FB386108E0FFF7FDFA0246DE
:1030D0003B69D31A022B01D903233DE0114B1B6836
:1030E00003F00073002BF0D035E0104B00221A6083
:1030F000FFF7EAFA386108E0FFF7E6FA02463B69B3
:10310000D31A022B01D9032326E0064B1B6803F0D8
:103110000073002BF0D11EE07B68DB69012B07D127
:10312000012319E00010024000700040600042429C
:103130000B4B5B68FB60FB6803F480327B681B6AA7
:103140009A4206D1FB6803F470127B685B6A9A426C
:1031500001D0012300E0002318461837BD4680BD8A
:103160000010024080B584B000AF786039607B68A1
:10317000002B01D10123D0E06A4B1B6803F0070349
:103180003A689A4210D9674B1B6823F007026549D9
:103190003B6813430B60634B1B6803F007033A68FB
:1031A0009A4201D00123B8E07B681B6803F0020358
:1031B000002B20D07B681B6803F00403002B05D094
:1031C000594B5B68584A43F4E06353607B681B6863
:1031D00003F00803002B05D0534B5B68524A43F4BD
:1031E00060535360504B5B6823F0F0027B689B6830
:1031F0004D4913434B607B681B6803F00103002BB0
:1032000040D07B685B68012B07D1474B1B6803F4F8
:103210000033002B15D101237FE07B685B68022B14
:1032200007D1414B1B6803F00073002B09D1012328
:1032300073E03D4B1B6803F00203002B01D1012317
:103240006BE0394B5B6823F003027B685B683649AF
:1032500013434B60FFF738FAF8600AE0FFF734FADF
:103260000246FB68D31A41F28832934201D9032304
:1032700053E02D4B5B6803F00C027B685B689B009E
:103280009A42EBD1274B1B6803F007033A689A4236
:1032900010D2244B1B6823F0070222493B681343DA
:1032A0000B60204B1B6803F007033A689A4201D079
:1032B000012332E07B681B6803F00403002B08D075
:1032C000194B5B6823F4E0627B68DB6816491343A3
:1032D0004B607B681B6803F00803002B09D0124B7E
:1032E0005B6823F460527B681B69DB000E49134363
:1032F0004B6000F021F802460B4B5B681B0903F0A2
:103300000F030A49CB5C22FA03F3094A1360094B05
:103310001B681846FFF796F9002318461037BD467C
:1033200080BD00BF00200240001002408C6E0008EB
:10333000500000205400002080B487B000AF00236C
:10334000FB600023BB6000237B6100237B600023C4
:103350003B611E4B5B68FB60FB6803F00C03042BB6
:1033600002D0082B03D027E0194B3B6127E0FB6814
:103370009B0C03F00F03174AD35C7B60FB6803F4DC
:103380008033002B10D0114B5B685B0C03F0010302
:10339000114AD35CBB607B680D4A03FB02F2BB6839
:1033A000B2FBF3F37B6104E07B680C4A02FB03F39E
:1033B0007B617B693B6102E0054B3B6100BF3B6980
:1033C00018461C37BD4680BC704700BF0010024045
:1033D00000127A009C6E0008AC6E000800093D00E7
:1033E00080B485B000AF78600A4B1B680A4AA2FB24
:1033F00003235B0A7A6802FB03F3FB6000BFFB68F0
:103400005A1EFA60002BF9D100BF00BF1437BD4629
:1034100080BC704750000020D34D621080B582B050
:1034200000AF78607B68002B01D1012376E07B68D8
:103430005B6A002B08D17B685B68B3F5827F09D09B
:103440007B680022DA6105E07B6800221A617B68F4
:1034500000225A617B6800229A627B6893F851309F
:10346000DBB2002B06D17B68002283F850207868FD
:10347000FEF7D4FE7B68022283F851207B681B682C
:103480001A687B681B6822F040021A607B685B68E0
:1034900003F482727B689B6803F404431A437B68DD
:1034A000DB6803F400631A437B681B6903F00203C3
:1034B0001A437B685B6903F001031A437B689B69CD
:1034C00003F400731A437B68DB6903F038031A4383
:1034D0007B681B6A03F0800342EA03017B689B6AF6
:1034E00003F400527B681B680A431A607B689B697F
:1034F0001A0C7B681B6802F004025A607B681B6828
:10350000DA697B681B6822F40062DA617B6800225A
:103510005A657B68012283F851200023184608373A
:10352000BD4680BD80B588B000AFF860B9603B6033
:103530001346FB800023FB77FB6893F85030012B88
:1035400001D102232DE1FB68012283F85020FFF70F
:10355000BBF8B861FB88FB82FB6893F85130DBB2A3
:10356000012B02D00223FB7716E1BB68002B02D0AF
:10357000FB88002B02D10123FB770DE1FB680322BE
:1035800083F85120FB6800225A65FB68BA681A6309
:10359000FB68FA889A86FB68FA88DA86FB6800225C
:1035A0009A63FB6800229A87FB680022DA87FB682F
:1035B00000225A64FB6800221A64FB689B68B3F51A
:1035C000004F0FD1FB681B681A68FB681B6822F06C
:1035D00040021A60FB681B681A68FB681B6842F4AB
:1035E00080421A60FB681B681B6803F04003402B95
:1035F00007D0FB681B681A68FB681B6842F0400232
:103600001A60FB68DB68B3F5006F4FD1FB685B683D
:10361000002B02D0FB8A012B42D1FB681B6B1A885E
:10362000FB681B68DA60FB681B6B9A1CFB681A63FB
:10363000FB68DB8E9BB2013B9AB2FB68DA862FE017
:10364000FB681B689B6803F00203022B12D1FB6826
:103650001B6B1A88FB681B68DA60FB681B6B9A1C83
:10366000FB681A63FB68DB8E9BB2013B9AB2FB6876
:10367000DA8615E0FFF728F80246BB69D31A3A68E4
:103680009A4203D83B68B3F1FF3F02D13B68002B5D
:1036900006D10323FB77FB68012283F851207BE0EE
:1036A000FB68DB8E9BB2002BCAD150E0FB685B68E5
:1036B000002B02D0FB8A012B44D1FB681A6BFB68FC
:1036C0001B680C3312781A70FB681B6B5A1CFB6862
:1036D0001A63FB68DB8E9BB2013B9AB2FB68DA8609
:1036E00030E0FB681B689B6803F00203022B13D1D8
:1036F000FB681A6BFB681B680C3312781A70FB6846
:103700001B6B5A1CFB681A63FB68DB8E9BB2013B88
:103710009AB2FB68DA8615E0FEF7D6FF0246BB696F
:10372000D31A3A689A4203D83B68B3F1FF3F02D1FB
:103730003B68002B06D10323FB77FB68012283F84B
:10374000512029E0FB68DB8E9BB2002BC9D1BA69FE
:103750003968F86800F0B2F80346002B02D0FB6825
:1037600020225A65FB689B68002B0AD100233B612D
:10377000FB681B68DB683B61FB681B689B683B61FF
:103780003B69FB685B6D002B02D00123FB7703E0F4
:10379000FB68012283F85120FB68002283F8502047
:1037A000FB7F18462037BD4680BD000080B588B03D
:1037B00000AFF860B9603B601346FB71FEF784FF11
:1037C0000246BB6A9B1A3A681344FB61FEF77CFF12
:1037D000B861394B1B685B011B0DFA6902FB03F3EF
:1037E0007B6154E03B68B3F1FF3F50D0FEF76CFFC4
:1037F0000246BB69D31AFA699A4202D9FB69002BC7
:103800003DD1FB681B685A68FB681B6822F0E00228
:103810005A60FB685B68B3F5827F11D1FB689B68D7
:10382000B3F5004F04D0FB689B68B3F5806F07D1F8
:10383000FB681B681A68FB681B6822F040021A606C
:10384000FB689B6AB3F5005F0FD1FB681B681A68C1
:10385000FB681B6822F400521A60FB681B681A6838
:10386000FB681B6842F400521A60FB68012283F86F
:103870005120FB68002283F85020032317E07B6966
:10388000002B01D10023FB617B69013B7B61FB685D
:103890001B689A68BB681340BA689A420CBF012340
:1038A0000023DBB21A46FB799A429BD100231846CB
:1038B0002037BD4680BD00BF5000002080B586B0D7
:1038C00002AFF860B9607A607B680093BB68002241
:1038D0008021F868FFF76AFF0346002B07D0FB68DA
:1038E0005B6D43F02002FB685A65032300E0002370
:1038F00018461037BD4680BD80B582B000AF7860F5
:103900007B68002B01D1012341E07B6893F83D30B7
:10391000DBB2002B06D17B68002283F83C2078685C
:10392000FEF7EAFC7B68022283F83D207B681A6878
:103930007B6804331946104600F074FA7B68012254
:1039400083F846207B68012283F83E207B680122B1
:1039500083F83F207B68012283F840207B680122A6
:1039600083F841207B68012283F842207B68012292
:1039700083F843207B68012283F844207B6801227E
:1039800083F845207B68012283F83D2000231846F8
:103990000837BD4680BD000080B485B000AF7860B8
:1039A0007B6893F83D30DBB2012B01D001233AE074
:1039B0007B68022283F83D207B681B68DA687B689D
:1039C0001B6842F00102DA607B681B68184A934268
:1039D0000ED07B681B68B3F1804F09D07B681B68F1
:1039E000144A934204D07B681B68134A934211D156
:1039F0007B681B689B6803F00703FB60FB68062B72
:103A000010D07B681B681A687B681B6842F0010253
:103A10001A6007E07B681B681A687B681B6842F0C5
:103A200001021A60002318461437BD4680BC704757
:103A3000002C0140000400400008004080B582B026
:103A400000AF78607B681B681B6903F00203022BE0
:103A500022D17B681B68DB6803F00203022B1BD1B9
:103A60007B681B686FF002021A617B6801221A777B
:103A70007B681B689B6903F00303002B03D0786805
:103A800000F0B4F905E0786800F0A7F9786800F074
:103A9000B6F97B6800221A777B681B681B6903F004
:103AA0000403042B22D17B681B68DB6803F004034A
:103AB000042B1BD17B681B686FF004021A617B68C2
:103AC00002221A777B681B689B6903F44073002B02
:103AD00003D0786800F08AF905E0786800F07DF995
:103AE000786800F08CF97B6800221A777B681B6885
:103AF0001B6903F00803082B22D17B681B68DB6875
:103B000003F00803082B1BD17B681B686FF00802C9
:103B10001A617B6804221A777B681B68DB6903F0F3
:103B20000303002B03D0786800F060F905E07868A3
:103B300000F053F9786800F062F97B6800221A7788
:103B40007B681B681B6903F01003102B22D17B6874
:103B50001B68DB6803F01003102B1BD17B681B680C
:103B60006FF010021A617B6808221A777B681B6865
:103B7000DB6903F44073002B03D0786800F036F95A
:103B800005E0786800F029F9786800F038F97B687A
:103B900000221A777B681B681B6903F00103012B65
:103BA0000ED17B681B68DB6803F00103012B07D192
:103BB0007B681B686FF001021A617868FEF7ECFA07
:103BC0007B681B681B6903F08003802B0ED17B6828
:103BD0001B68DB6803F08003802B07D17B681B68C0
:103BE0006FF080021A61786800F07BFA7B681B68CE
:103BF0001B6903F04003402B0ED17B681B68DB6818
:103C000003F04003402B07D17B681B686FF0400234
:103C10001A61786800F0FCF87B681B681B6903F088
:103C20002003202B0ED17B681B68DB6803F0200388
:103C3000202B07D17B681B686FF020021A6178681F
:103C400000F046FA00BF0837BD4680BD80B584B09D
:103C500000AF786039600023FB737B6893F83C30D9
:103C6000012B01D10223B4E07B68012283F83C20C0
:103C70007B68022283F83D207B681B689B68BB60E1
:103C8000BB6823F07703BB60BB6823F47F43BB6052
:103C90007B681B68BA689A603B681B68B3F5005F75
:103CA0003ED0B3F5005F00F28780B3F5805F00F08F
:103CB0008680B3F5805F7FD8702B1AD0702B7BD8AD
:103CC000602B50D0602B77D8502B3CD0502B73D822
:103CD000402B58D0402B6FD8302B64D0302B6BD872
:103CE000202B60D0202B67D8002B5CD0102B5AD013
:103CF00062E07B6818683B6899683B685A683B6873
:103D0000DB6800F068F97B681B689B68BB60BB6878
:103D100043F07703BB607B681B68BA689A604FE02A
:103D20007B6818683B6899683B685A683B68DB6841
:103D300000F051F97B681B689A687B681B6842F445
:103D400080429A603CE07B6818683B6859683B6831
:103D5000DB681A4600F0C8F87B681B6850211846DB
:103D600000F01FF92CE07B6818683B6859683B68D5
:103D7000DB681A4600F0E6F87B681B68602118468D
:103D800000F00FF91CE07B6818683B6859683B68D5
:103D9000DB681A4600F0A8F87B681B6840211846CB
:103DA00000F0FFF80CE07B681A683B681B68194656
:103DB000104600F0F6F803E00123FB7300E000BFBB
:103DC0007B68012283F83D207B68002283F83C2039
:103DD000FB7B18461037BD4680BD80B483B000AF72
:103DE000786000BF0C37BD4680BC704780B483B09C
:103DF00000AF786000BF0C37BD4680BC704780B410
:103E000083B000AF786000BF0C37BD4680BC704700
:103E100080B483B000AF786000BF0C37BD4680BC73
:103E20007047000080B485B000AF786039607B686F
:103E30001B68FB607B68294A93420BD07B68B3F117
:103E4000804F07D07B68264A934203D07B68254A7F
:103E5000934208D1FB6823F07003FB603B685B680A
:103E6000FA681343FB607B681C4A93420BD07B6863
:103E7000B3F1804F07D07B68194A934203D07B6827
:103E8000184A934208D1FB6823F44073FB603B68F7
:103E9000DB68FA681343FB60FB6823F080023B6831
:103EA0005B691343FB607B68FA681A603B689A6839
:103EB0007B68DA623B681A687B689A627B68074AAB
:103EC000934203D13B681A697B681A637B680122BD
:103ED0005A6100BF1437BD4680BC7047002C0140BA
:103EE000000400400008004080B487B000AFF860D4
:103EF000B9607A60FB681B6A7B61FB681B6A23F010
:103F00000102FB681A62FB689B693B613B6923F015
:103F1000F0033B617B681B013A6913433B617B699A
:103F200023F00A037B617A69BB6813437B61FB68FA
:103F30003A699A61FB687A691A6200BF1C37BD460C
:103F400080BC704780B487B000AFF860B9607A6019
:103F5000FB681B6A7B61FB681B6A23F01002FB682D
:103F60001A62FB689B693B613B6923F470433B61C8
:103F70007B681B033A6913433B617B6923F0A00311
:103F80007B61BB681B017A6913437B61FB683A69FB
:103F90009A61FB687A691A6200BF1C37BD4680BC13
:103FA000704780B485B000AF786039607B689B68EB
:103FB000FB60FB6823F07003FB603A68FB68134307
:103FC00043F00703FB607B68FA689A6000BF143710
:103FD000BD4680BC704780B487B000AFF860B96060
:103FE0007A603B60FB689B687B617B6923F47F435D
:103FF0007B613B681A027B681A43BB6813437A698A
:1040000013437B61FB687A699A6000BF1C37BD4629
:1040100080BC704780B485B000AF786039607B6841
:1040200093F83C30012B01D1022346E07B6801224A
:1040300083F83C207B68022283F83D207B681B6864
:104040005B68FB607B681B689B68BB60FB6823F058
:104050007003FB603B681B68FA681343FB607B6876
:104060001B68FA685A607B681B68164A93420ED038
:104070007B681B68B3F1804F09D07B681B68124ACC
:10408000934204D07B681B68104A93420CD1BB68F2
:1040900023F08003BB603B685B68BA681343BB6076
:1040A0007B681B68BA689A607B68012283F83D20B0
:1040B0007B68002283F83C20002318461437BD4655
:1040C00080BC7047002C0140000400400008004004
:1040D00080B483B000AF786000BF0C37BD4680BCB1
:1040E000704780B483B000AF786000BF0C37BD4626
:1040F00080BC7047002B2DE9F0471D46BBBF03F184
:1041000000431D4600232D2388B01446B8BF144633
:10411000129A109E1370149BDDF84CA023F0200817
:10412000B8F1460F05D0B8F1450F00D10136022392
:1041300000E0032307AA049206AACDE902A2CDE972
:10414000003622462B4600F083FEB8F1470F0746A3
:1041500019D1119BDB070ED500EB060900220023C5
:1041600020462946FCF720FC08B1CDF81C903022EF
:10417000079B4B451ED33846079B159ADB1B1360E4
:1041800008B0BDE8F087B8F1460F00EB0609E5D1AD
:104190000378302B0AD10022002320462946FCF761
:1041A00003FC18B9C6F10106CAF80060DAF800305D
:1041B0009944D3E7591C07911A70D9E7F7B500293C
:1041C000B6BF2D232B23494209290270437029DDF4
:1041D0000DF107031D460A27B1FBF7F61A4607FB48
:1041E0001614303402F8014C0C46632C314603F1AE
:1041F000FF33F1DC3031941E03F8011C2346411CCF
:10420000AB420AD30DF109039B1AAC4288BF0023CD
:1042100002330344181A03B0F0BD13F8016B01F820
:10422000016FEDE7302330318370C170031DF1E77A
:104230002DE9F04F91B00C46DDF8688016461F4618
:10424000054600F0F5FC036818460893FBF780FF6D
:1042500000230E93D8F800300990073323F00703AA
:1042600003F1080294F818A0D4F800B0C8F80020B0
:10427000D3E9008929F000430B93CDF828804FF053
:10428000FF32DDE90A01C4E912899C4BFCF7BEFB51
:1042900070BBDDE90A014FF0FF32984BFCF798FB49
:1042A00030BB0022002340464946FCF787FB10B193
:1042B0002D2384F84330924A924BBAF1470F94BFB2
:1042C0009046984603234FF0000923612BF0040326
:1042D000236033462146284600970FAA00F0D4F900
:1042E000013040F090804FF0FF3011B0BDE8F08F0A
:1042F00042464B4640464946FCF788FB48B14B4690
:10430000002BB8BF2D23804AB8BF84F843307F4BC1
:10431000D3E763680AF0DF015A1C3FD106236360CC
:1043200000224BF48063236006920EAACDE904A21A
:104330000DAA03920DF13302CDE9013263684246C2
:10434000009328464B460A91FFF7D4FE0A9980460F
:1043500047290D9928D1C81C02DB6368994240DDCA
:10436000AAF1020A5FFA8AFA5246013904F15000B2
:104370000D91FFF723FF0E9A81461318012A23613E
:1043800002DC2268D20701D5013323619DF8333066
:10439000002B9ED02D2384F843309AE74729BFD1C4
:1043A000002BBDD10123BAE7BAF1650FDCD9BAF110
:1043B000660F18D1002963680BDD216113B92268EB
:1043C000D00702D501330B4423614FF00009A165EA
:1043D000DCE713B92268D20701D50233F4E70123E1
:1043E000F2E74FF0670A0E9B994205DB23682161D3
:1043F000D807EAD54B1CE7E70029CCBF0122C1F161
:1044000002021344E0E723685A0507D423694246B1
:1044100031462846B84701302BD164E7BAF1650F21
:1044200040F2DC80D4E9120100220023FCF7BCFA40
:10443000002833D0012331462846354AB847013099
:104440003FF451AFDDE90D38434502DB2368D8075F
:104450000FD5DDE9082331462846B84701303FF43F
:1044600042AF4FF0000908F1FF3804F11A0AC845BD
:1044700009DC23689B0700F10281E0680F9B9842EA
:10448000B8BF184631E70123524631462846B8479F
:1044900001303FF428AF09F10109E8E70D9B002B3B
:1044A00038DC012331462846194AB84701303FF429
:1044B0001AAFDDE90D3959EA030302D12368D907A0
:1044C000D7D5DDE9082331462846B84701303FF407
:1044D0000AAF4FF0000A04F11A0B0D9B5B425345E3
:1044E00001DC4B4693E701235A4631462846B8473C
:1044F00001303FF4F8AE0AF1010AEEE7FFFFEF7F6B
:10450000AE6E0008B26E0008B66E0008BA6E000803
:10451000BE6E0008A36DDDF838A05345A8BF534612
:10452000002B994636DC4FF0000B29EAE97904F1BB
:104530001A02A36D0A93A3EB09035B4531DC0D9BC3
:104540009A453ADC2368DA0737D40D9BAAEB0309B6
:104550000A9BAAEB03039945A8BF9946B9F1000F3E
:1045600033DC4FF0000829EAE97904F11A0B0D9BBE
:10457000AAEB0303A3EB090343457FF77AAF0123BB
:104580005A4631462846B84701303FF4ACAE08F1F0
:104590000108ECE7424631462846B8470130C2D10F
:1045A000A1E60123314628460A92B84701303FF47C
:1045B0009AAE0A9A0BF1010BBBE73146DDE90823FD
:1045C0002846B8470130C0D18DE60A9A4B4631469D
:1045D00028464244B8470130C3D184E6DDF838A00C
:1045E000BAF1010F01DCDB0736D501234246314623
:1045F0002846B84701303FF476AEDDE9082331465E
:104600002846B84701303FF46EAED4E912010022CB
:1046100000230AF1FF3AFCF7C7F9C0B9534608F185
:10462000010231462846B84701300CD15BE6012330
:104630005A4631462846B84701303FF454AE08F197
:104640000108D045F3DB4B4604F15002E0E64FF0A1
:10465000000804F11A0BF4E701234246E1E70123C5
:104660004A4631462846B84701303FF43CAE08F18F
:104670000108E3680F995B1A4345F0DCFDE64FF053
:10468000000804F11909F4E72DE9F04716469846A9
:104690008A680B6907469342B8BF1346336091F8A6
:1046A00043200C46DDF820900AB1013333602368C3
:1046B000990642BF336802333360256815F006055A
:1046C00006D104F1190AE36832689B1AAB422BDC6D
:1046D00094F843302268003B18BF0123920630D47F
:1046E0004146384604F14302C847013023D02368CD
:1046F000226903F00603042B14BF002533684FF032
:10470000000608BFE56804F11A0408BFED1A54F862
:10471000123C08BF25EAE5759342C4BF9B1AED1809
:10472000B5421AD1002008E00123524641463846DE
:10473000C847013003D14FF0FF30BDE8F0870135A5
:10474000C1E73020E11881F843005A1C94F8451065
:104750002244023382F84310C2E701232246414635
:104760003846C8470130E6D00136D9E72DE9FF4782
:104770000F7E9146782F80460C469A460C9E01F19A
:10478000430207D8622F0AD8002F00F0D380582F99
:1047900000F0BA8004F1420684F842703AE0A7F1D2
:1047A0006303152BF6D801A151F823F00548000842
:1047B00019480008954700089547000895470008E4
:1047C00095470008194800089547000895470008D4
:1047D00095470008954700081B4900084348000812
:1047E000D548000895470008954700083D4900084E
:1047F000954700084348000895470008954700087A
:10480000DD48000833681A1D1B68326004F1420657
:1048100084F8423001239EE033682068191D31601E
:10482000060601D51D6803E04506FBD5B3F9005027
:10483000002D03DA2D236D4284F843300A235948B2
:1048400011E021683368080653F8045B02D4490676
:1048500048BFADB26F2F336014BF0A2308235148FD
:10486000002184F843106668002EA8BF2168A66066
:10487000A4BF21F0040121600DB9002E4BD01646D3
:10488000B5FBF3F103FB1157C75D06F8017D2F4619
:10489000BB420D46F4D9082B0BD12368DF0708D59E
:1048A000236961689942DEBF302306F8013C06F1B6
:1048B000FF36921B22614B4621464046CDF800A0B0
:1048C00003AAFFF7E1FE01304AD14FF0FF3004B0F8
:1048D000BDE8F087236843F020032360782732483F
:1048E00084F84570236831681F0651F8045B02D4D0
:1048F0005F0648BFADB23160D90744BF43F0200323
:1049000023601DB11023ABE72648E9E7236823F0B5
:1049100020032360F6E71646BDE733682568181DB7
:10492000616930602E061B6801D5196002E06806D7
:10493000FBD51980002316462361BCE733680021AC
:104940001A1D32601E686268304600F0E8F908B14E
:10495000801B606063682361002384F84330AAE70A
:104960003246494640462369D0470130ADD02368DE
:104970009B0713D4E068039B9842B8BF1846A6E78C
:104980000123324649464046D04701309DD001358B
:10499000E36803995B1AAB42F2DCEBE7002504F114
:1049A0001906F5E7C06E0008D16E0008002310B5A7
:1049B0000446C0E90033C0E9043383608181436663
:1049C000C2818361194608225C3000F028F90D4B42
:1049D000246263620C4BA3620C4BE3620C4B2363B7
:1049E0000C4B9C4206D003F16802944202D0D033B3
:1049F0009C4205D104F15800BDE8104000F08CB98C
:104A000010BD00BF994B0008BB4B0008F34B0008DA
:104A1000174C0008C8030020024A0349034800F06D
:104A200069B800BF5C0000208D6600086C000020A3
:104A300041680C4B10B59942044601D001F026FEA6
:104A4000A168094B994202D0204601F01FFEE1689F
:104A5000064B994204D02046BDE8104001F016BE36
:104A600010BD00BFC80300203004002098040020BF
:104A700010B50B4B0B4C0C4A20461A600421002247
:104A8000FFF794FF04F1680001220921FFF78EFF70
:104A900004F1D0000222BDE810401221FFF786BFCA
:104AA00000050020C8030020194A0008014800F052
:104AB00034B900BF09050020014800F02FB900BF3C
:104AC0000905002010B50446FFF7F0FF236A1BB16B
:104AD000BDE81040FFF7F0BF044B2362044B1B6896
:104AE000002BF5D1FFF7C4FFF2E700BF314A000801
:104AF000000500202DE9F8430746884614460026A5
:104B0000D4E90195B9F1010905D52468002CF7D144
:104B10003046BDE8F883AB89012B07D9B5F90E30D3
:104B2000013303D029463846C04706436835E9E7D4
:104B30000CB430B5174B0C1E1D689DB008DA8B23E2
:104B40004FF0FF302B601DB0BDE8304002B0704721
:104B50004FF40273ADF814300CBF234604F1FF3359
:104B6000049307934FF6FF7302900690ADF816304A
:104B7000284621AB209A02A9019301F00BFC431CAB
:104B8000BCBF8B232B60002CDDD00022029B1A704F
:104B9000D9E700BF6800002010B50C46B1F90E102F
:104BA00000F06CF80028ABBF636DA3891B1823F4D9
:104BB0008053ACBF6365A38110BD2DE9F0411F4652
:104BC0008B890546DB050C46164605D502230022D7
:104BD000B1F90E1000F040F8A389324623F4805357
:104BE000A38128463B46B4F90E10BDE8F04100F021
:104BF00057B810B50C46B1F90E1000F02DF8431C53
:104C0000A38915BF606523F4805343F48053A381C7
:104C100018BFA38110BDB1F90E1000F00DB8034606
:104C20000244934200D1704703F8011BF9E70000EA
:104C300000487047A801002038B50023054D044600
:104C400008462B60FDF70DFC431C02D12B6803B115
:104C5000236038BD0405002038B5044608461146D7
:104C60000022054D2A601A46FDF71FFC431C02D1A5
:104C70002B6803B1236038BD0405002038B5044615
:104C8000084611460022054D2A601A46FDF7B0FB82
:104C9000431C02D12B6803B1236038BD04050020FA
:104CA00038B50446084611460022054D2A601A46CA
:104CB000FDF7BBFB431C02D12B6803B1236038BD59
:104CC00004050020014B1868704700BF68000020F1
:104CD00070B500260C4D0D4C641BA410A64209D1E2
:104CE00002F070F800260A4D0A4C641BA410A6427C
:104CF00005D170BD55F8043B98470136EEE755F8ED
:104D0000043B98470136F2E7287200082872000831
:104D1000287200082C7200087047704770470346DD
:104D200010B5C9B202449342184601D1002003E0F5
:104D3000047801338C42F6D110BD2DE9F74F036999
:104D40000C690746A3427EDB013CA30000F1140579
:104D500001F11408009305EB8403019358F8243003
:104D600055F8242001339A42B2FBF3F608EB84098C
:104D70002ED34FF0000AC446AE46D3465CF8043B3F
:104D800098B206FB00A01B0C020C06FB0323DEF806
:104D9000002080B292B2121A5A44DEF800004FEAA4
:104DA000134A9BB2C3EB224303EB104392B242EA95
:104DB0000342E1454FEA234B4EF8042BDED2009B21
:104DC000EB582BB9019B043B9D421A462FD33C6103
:104DD000384601F07BF9002825DB2946002058F8E9
:104DE000042BD1F800C01FFA82FE1FFA8CF3A3EB4C
:104DF0000E030344120CC2EB234202EB1C429BB293
:104E000043EA0243C1454FEA224041F8043BE6D25F
:104E100055F8242005EB840322B9043B9D421A4631
:104E20000BD33C610136304603B0BDE8F08F126809
:104E3000043B002ACBD1013CC6E71268043B002AA0
:104E4000EFD1013CEAE70020EEE70000000000009F
:104E50002DE9F04F14461D46C76997B08346CDE94A
:104E60000245239E7FB9102000F002FE0246CBF8D7
:104E70001C0020B9EF21A84BA84801F067FCC0E94D
:104E800001770760C760DBF81C30196859B15A68B0
:104E9000012393404A608B60584600F0DFFE0022F9
:104EA000DBF81C301A602B1EAFBF0023012223F059
:104EB00000430393A8BF3360DDF80C80984BB8BF64
:104EC000326033EA080312D142F20F73229A136060
:104ED000C8F31303234300F05085249BDFF844A25A
:104EE000002B00F052850AF1030300F04CBDDDE910
:104EF0000223CDE90C23DDE90C0100220023FBF79E
:104F000053FD074658B10123229A1360249B13B125
:104F1000854B249A1360DFF814A200F036BD14AB61
:104F2000019315AB00935846DDE90C2301F07EF99F
:104F3000C8F30A568146002E77D0DDE90C010D9B9F
:104F4000A6F2FF36C3F3130343F07F5343F4401339
:104F5000129719460022764BFBF706F968A3D3E9AE
:104F60000023FBF7B9FA68A3D3E90023FBF7FEF8A7
:104F7000044630460D46FBF745FA65A3D3E9002306
:104F8000FBF7AAFA02460B4620462946FBF7EEF845
:104F900004460D46FBF750FD00220746002320463D
:104FA0002946FBF70BFD40B13846FBF72BFA2246AA
:104FB0002B46FBF7F9FC00B9013F162F53D8DDE96A
:104FC0000C015C4B03EBC703D3E90023FBF7F6FCB2
:104FD00000284AD00023013F0F93149B9B1B5A1EAD
:104FE00046BFC3F1010800234FF00008099248BFF3
:104FF0000993002F3BDB099B0E973B440993002349
:105000000A93209B092B66D8052BC4BF043B209331
:10501000209BC8BF0024A3F10203D8BF0124032BA7
:1050200064D8DFE803F02B383656DDE914631E44FC
:1050300006F23243202BC1BFC3F1400308FA03F844
:1050400006F2124324FA03F3D6BFC3F1200348EA61
:10505000030004FA03F0FBF7C5F90122A1F1F8738C
:10506000013E129275E70123B6E70F90B5E77B4248
:105070000A930023A8EB07080E93C2E700230B93C3
:10508000219B002B35DC01231A46CDE90733219201
:105090000BE00123F3E700230B93219BFB180893FC
:1050A0000133012B0793B8BF012300210422DBF851
:1050B0001C0002F114059D421FD94160584600F0C2
:1050C0008DFD8246002839D1024640F2AF111A4BBD
:1050D000D2E60123E0E7012400230B9420934FF054
:1050E000FF330022CDE907331223D0E701230B93CE
:1050F000F5E7219BCDE90733D7E701315200D8E727
:1051000061436F63A787D23FB3C8608B288AC63FCD
:10511000FB799F501344D33FEF6E0008066F0008E1
:105120000000F07FEB6E0008BF6E0008BE6E000846
:105130000000F83F007000085E6F0008DBF81C30CC
:105140001860079B0E2B00F2A480002C00F0A180B9
:10515000002F33DD864B07F00F0203EBC203F80587
:10516000D3E90034CDE904344FEA271416D5DDE93C
:105170000C01804B0326D3E90823FBF7D7FACDE9CE
:10518000020104F00F047B4D54B9DDE90423DDE98D
:105190000201FBF7CBFACDE9020128E00226F2E793
:1051A000E10708D5DDE90401D5E90023FBF794F90F
:1051B000CDE90401013664100835E5E700F0D2803E
:1051C000DDE90C017C426A4B04F00F0203EBC203E1
:1051D000D3E90023FBF780F902260023CDE9020181
:1051E000644D2411002C40F0B280002BD3D1DDE9B6
:1051F00002450F9B002B00F0B78000222046294675
:105200005D4BFBF7DBFB002800F0AE80079B002B1B
:1052100000F0AA80089B002B37DD7B1E20460493FC
:1052200000222946554BFBF757F9CDE90201089CAE
:1052300001363046FBF7E6F8DDE90223FBF74CF9CF
:1052400000224F4BFAF792FF0546A1F15076002C51
:1052500040F09A80DDE9020100224A4BFAF784FF10
:1052600002460B46CDE902232A463346FBF7C4FB30
:10527000002840F08E82DDE902012A4606F1004353
:10528000FBF79CFB002840F02781DDE90C34CDE9D9
:105290000234159B002BC0F263810E2F00F3608156
:1052A000334B03EBC703D3E90034CDE90434219B2E
:1052B000002B03DA079B002B40F30081DDE9024558
:1052C0005646DDE9042320462946FBF72FFAFBF773
:1052D000B3FB8046FBF796F8DDE90423FBF7FCF807
:1052E00002460B4620462946FAF73EFF08F13004F5
:1052F000079D06F8014BA6EB0A04A54202460B46A1
:1053000040F01681FAF732FFDDE9042304460D462A
:10531000FBF772FB002840F0F880DDE9042320460B
:105320002946FBF741FB18B118F0010F40F0ED8062
:105330004946584600F092FC00233370229B013707
:105340001F60249B002B00F020831E601DE3E207FA
:1053500005D5D5E90023FBF7BFF80123013664101A
:1053600008353FE7022642E7079C049761E700BF44
:1053700000700008D86F00080000F03F00002440D3
:1053800000001C4000001440704B0B9903EBC40359
:1053900053E902235444002945D000206C49FBF70F
:1053A000C5F933462A46FAF7DFFE5646CDE9100125
:1053B000DDE90201FBF740FB0546FBF723F8024657
:1053C0000B46DDE90201FAF7CFFE02460B46303507
:1053D000CDE90223DDE9102306F8015BFBF7EEFAC5
:1053E000002863D1DDE9022300205A49FAF7BCFE08
:1053F000DDE91023FBF7E2FA002840F08780A6429F
:105400003FF443AFDDE910010022534BFBF764F892
:105410000022CDE91001DDE902014F4BFBF75CF8FA
:10542000CDE90201C4E731462846FBF755F8564658
:10543000CDE910011394DDE90201FBF7FDFA054601
:10544000FAF7E0FF02460B46DDE90201FAF78CFEAF
:1054500002460B46303506F8015BA642CDE9022331
:105460004FF0000224D1DDE91001394BFAF77EFE3E
:1054700002460B46DDE90201FBF7BEFA002845D1E2
:10548000DDE9102300203249FAF76EFE02460B4692
:10549000DDE90201FBF792FA00283FF4F6AE139E15
:1054A000731E139316F8013C302BF8D0049F3FE78E
:1054B000294BFBF711F8CDE90201BCE70CD1DDE97E
:1054C00004010022254BFBF707F8DDE90223FBF777
:1054D00089FA002800F05B8100242546219B56466E
:1054E000DB43049300272146584600F0B7FB002D0C
:1054F000DCD02FB1AF4203D03946584600F0AEFBA6
:105500002946584600F0AAFBD0E7049733461E46CA
:1055100013F8012D392A07D19A45F8D1049A01329E
:10552000049230228AF800201A7801321A70BDE7FE
:105530000022094BFAF7D0FF0022002304460D4653
:10554000FBF732FA00283FF4BCAEF1E60070000829
:105550000000E03F0000F03F000024400000144045
:105560000B9A002A00F0DB80209A012A00F3BF800A
:10557000129A002A00F0B78003F2334346460A9C91
:10558000099A01211A4458469844099200F01AFCDD
:1055900005465EB1099B002B08DDB342A8BF334628
:1055A000099AA8EB0308F61AD31A09930A9BF3B1D8
:1055B0000B9B002B00F0B7808CB129462246584641
:1055C00000F0BEFC4A4601460546584600F010FC75
:1055D00049460490584600F041FB049B99460A9BBB
:1055E0001A1B04D04946584600F0AAFC8146012106
:1055F000584600F0E7FB0E9B0446002B00F0C981E3
:105600001A460146584600F09BFC209B0446012B9D
:1056100000F38F80029B002B40F08780039BC3F335
:105620001303002B40F08380039B23F000431B0DEA
:105630001B052BB1099B08F10108013309930123D4
:105640000A930E9B002B00F0AA81236904EB8303CD
:10565000186900F06BFBC0F12000099B184410F0A2
:105660001F0071D0C0F12003042B65DD099BC0F140
:105670001C000344804406440993B8F1000F05DD83
:1056800049464246584600F0B5FC8146099B002B2E
:1056900005DD21461A46584600F0ACFC04460F9B37
:1056A000002B53D02146484600F010FD00284DDA6B
:1056B0007B1E494604930A220023584600F0F0FA64
:1056C0000B9B8146002B00F06C81002329460A22A7
:1056D000584600F0E5FA089B0546002B61DC209B4C
:1056E000022B3BDC5DE0149BC3F1360346E7079BCE
:1056F0005C1E0A9BA342BFBF0A9B0E9AE31AD218F4
:10570000A8BF1C1B079BBEBF0A940E920024002B4F
:10571000B5BFA8EB030646460023079B30E7464685
:105720000A9C0B9D35E70A9A5CE7002388E7029BF9
:1057300086E700230A9388E79FD0099A1C331A440E
:1057400098441E44099298E70346F6E7079B04979E
:10575000002B20DC0893209B022B1EDD089B002BD6
:105760007FF4BCAE21460522584600F099FA014666
:105770000446484600F0AAFC00287FF7AFAE31236C
:10578000564606F8013B049B01330493AAE6079CA6
:1057900004972546F3E7079B08930B9B002B00F02B
:1057A0000481002E05DD29463246584600F022FCD1
:1057B00005460A9B002B5AD05846696800F00EFA3D
:1057C000064628B9024640F2EF21834BFFF754BB4F
:1057D0002A6905F10C01023292000C3000F0A8FF9A
:1057E00001223146584600F005FC2F4605460AF1D5
:1057F00001030793089B53440B93029B03F001039F
:105800000A93079B2146013B48460293FFF795FA0E
:105810003946089000F13008484600F057FC2A4607
:1058200009902146584600F06DFCC268064602BB4E
:105830000146484600F04AFC0246314658460C9262
:1058400000F00CFA209B0C9A079E43EA02010A9B87
:10585000194310D1B8F1390F29D0099B002B02DD73
:10586000089B03F13108029B83F800803BE6284641
:10587000BBE70122E1E7099B002B04DB20990B43E6
:105880000A990B4320D1002AEDDD494601225846F2
:1058900000F0B0FB2146814600F018FC002803DC34
:1058A000E1D118F0010FDED0B8F1390FD8D139238A
:1058B000029A137033461E4616F8012C013B392A12
:1058C00052D001321A700EE6002A07DDB8F1390F06
:1058D000EDD0029A08F10103137004E6079B079AC2
:1058E00003F8018C0B9B934228D0494600230A22DF
:1058F000584600F0D5F9AF4281464FF000034FF013
:105900000A023946584607D100F0CAF9074605464B
:10591000079B0133079374E700F0C2F92946074655
:1059200000230A22584600F0BBF90546F0E7089B21
:105930000027002BCCBF1E460126564449460122B3
:10594000584600F057FB2146814600F0BFFB002877
:10595000B0DC02D118F0010FACD133461E4613F86B
:10596000012D302AFAD0BEE59A45A4D1049B01331B
:10597000049331238AF80030B5E5249BDFF85CA05E
:105980001BB10AF10803249A1360504617B0BDE812
:10599000F08F209B012B7FF73DAE0E9B0A930120D9
:1059A0005BE6089B002B7FF7D6AE5646214648465D
:1059B000FFF7C3F900F13008089B06F8018BA6EB4E
:1059C0000A029342B3DD494600230A22584600F0FA
:1059D00067F98146EAE700BF5E6F0008E26E0008E3
:1059E00038B50546002940D051F8043C0C1F002B67
:1059F000B8BFE41800F0E6F81C4A136833B96360D6
:105A000014602846BDE8384000F0E2B8A34208D947
:105A1000206821188B4201BF19685B680918216052
:105A2000EDE71A465B680BB1A342FAD9116850182A
:105A3000A0420BD120680144501883421160E0D18C
:105A400018685B68084410605360DAE702D90C23D9
:105A50002B60D6E7206821188B4201BF19685B686C
:105A60000918216063605460CBE738BD1005002041
:105A7000024B0146186800F025B800BF68000020FE
:105A800070B50F4E0C463168054611B900F040FE66
:105A900030602146284600F03BFE431C03D14FF006
:105AA000FF34204670BDC41C24F00304A042F8D08B
:105AB000211A284600F02CFE0130F2D1EFE700BF9A
:105AC0000C0500202DE9F843CD1C25F00305083511
:105AD0000C2D38BF0C25002D064601DBA94204D948
