:020000040800F2
:10000000005000204D100008D90E0008E10E000835
:10001000E90E0008F10E0008F90E000800000000CB
:10002000000000000000000000000000010F0008B8
:100030000D0F000800000000190F0008250F000830
:1000400095100008951000089510000895100008FC
:1000500095100008951000089510000895100008EC
:1000600095100008951000089510000895100008DC
:1000700095100008951000089510000895100008CC
:1000800095100008951000089510000895100008BC
:1000900095100008951000089510000895100008AC
:1000A000951000089510000895100008951000089C
:1000B000310F0008951000089510000895100008F1
:1000C000951000089510000895100008951000087C
:1000D000951000089510000895100008951000086C
:1000E0009510000895100008951000080000000009
:1000F0000000000000000000000000000000000000
:0C01000000000000000000005FF808F1A3
:10010C0010B5054C237833B9044B13B10448AFF345
:10011C0000800123237010BD8C0000200000000023
:10012C00FC34000808B5034B1BB103490348AFF37B
:10013C00008008BD0000000090000020FC34000886
:10014C00034613F8012B002AFBD1181A013870470B
:10015C0080B582B000AF00F0F1FF3860244B1B6813
:10016C003A68D31AB3F5FA7F01D2FF233BE00023A0
:10017C00FB7134E000224FF470711E4801F091FACB
:10018C00FB79402202FA03F39BB20122194619486B
:10019C0001F087FA0023BB711BE0BB79012202FA44
:1001AC0003F39BB21946134801F064FA0346012B82
:1001BC000CD10F4A3B681360FA79B9790E48134693
:1001CC009B00134403440B441B780CE0BB790133B4
:1001DC00BB71BB79042BE0D9FB790133FB71FB7943
:1001EC00032BC7D9FF2318460837BD4680BD00BF77
:1001FC00A8000020000C01403C35000880B485B0FC
:10020C0000AFF860B9607A60FB68154A934215D864
:10021C00FB68144AA2FB03239A0CBB681A60FA68A9
:10022C00104BA3FB02139B0C0F4901FB03F3D31AD6
:10023C007A6813600D4B03221A600CE0FB680C4AC1
:10024C00A2FB03235A0EBB681A607B6800221A605B
:10025C00064B02221A6000BF1437BD4680BC7047A3
:10026C00FFE0F50583DE1B4340420F002C0000200D
:10027C00893BE65580B500AFFFF76AFF03461A4687
:10028C00A44B1A70A34B1B78FF2B00F04081A24BA0
:10029C001B78062B2AD19F4B1B782F2B1CD99D4BDF
:1002AC001B78392B18D89D4B1B78052B00F22C8111
:1002BC009B4B1A6813469B0013445B001A46954BE4
:1002CC001B781344303B964A1360944B1B780133D4
:1002DC00DAB2924B1A7017E18F4B00221A708F4BC7
:1002EC0000221A708E4B00221A600DE1894B1B788C
:1002FC00243B302B00F2EF8001A252F823F000BF18
:10030C0083040008E3040008E3040008E304000885
:10031C00E3040008E3040008E3040008E304000815
:10032C00E3040008E3040008E3040008E304000805
:10033C00E3040008E3040008E3040008E3040008F5
:10034C00E3040008E3040008E3040008E3040008E5
:10035C00E3040008E3040008E3040008E3040008D5
:10036C00E3040008E3040008E3040008E3040008C5
:10037C00E3040008D1030008F90300081F04000877
:10038C00B304000845040008CB040008E30400088B
:10039C00E3040008E3040008E3040008E304000895
:1003AC009B040008E3040008E3040008E3040008CD
:1003BC00E3040008E3040008E3040008E304000875
:1003CC006B0400080023574A0721574802F0CCFB66
:1003DC0042F21073534A0721544802F0C5FB002324
:1003EC00504A0721524802F0BFFB8DE000234D4AD2
:1003FC0007214D4802F0B8FB4E4B4A4A07214B48A7
:10040C0002F0B2FB0023474A0721494802F0ACFB3B
:10041C007AE00023434A0721434802F0A5FB00235E
:10042C00404A0721414802F09FFB01233D4A072126
:10043C003F4802F099FB67E000233A4A07213A480B
:10044C0002F092FB0023374A0721384802F08CFB5C
:10045C006423344A0721364802F086FB54E02E4BC5
:10046C001B78002B03D12C4B01221A704CE02A4B29
:10047C0000221A7048E0284B1B78012B03D1264B25
:10048C0003221A7040E0244B00221A703CE0224BED
:10049C001B78012B03D1204B02221A7034E01E4B27
:1004AC0000221A7030E01C4B1B78012B03D11A4B25
:1004BC0004221A7028E0184B00221A7024E0164B04
:1004CC001B78012B03D1144B05221A701CE0124B24
:1004DC0000221A7018E00F4B1B782F2B10D90D4BE4
:1004EC001B78392B0CD80C4B06221A70094B1B7835
:1004FC00303B1A460A4B1A60084B01221A7002E074
:10050C00054B00221A7000BF024BFF221A7000BF6D
:10051C0080BD00BF25000020BC000020B0000020E2
:10052C00AC0000201435000810000020170000203B
:10053C001E000020A086010080B588B000AF7D4B66
:10054C001B78062B00F2DF8001A252F823F000BFCB
:10055C00790500089F050008EB050008C505000893
:10056C0087060008AD060008D30600080023724A6F
:10057C000721724802F0F8FA00236F4A07217048ED
:10058C0002F0F2FA00236C4A07216E4802F0ECFAF2
:10059C00CCE00023684A0721684802F0E5FA002302
:1005AC00654A0721664802F0DFFA674B624A072169
:1005BC00644802F0D9FAB9E000235F4A07215F488A
:1005CC0002F0D2FA00235C4A07215D4802F0CCFA13
:1005DC005E4B594A07215B4802F0C6FAA6E05C4B19
:1005EC001B685C4A5C491846FFF708FE5A4B1B68AF
:1005FC0007F10C00594A072102F0B6FA564B1A685B
:10060C00574BA3FB02135B09642101FB03F3D31AC1
:10061C00381D544A082102F0A7FA0023FB6119E0A7
:10062C003B1D1846FFF78CFD0246FB699A4209D91F
:10063C003A1DFB6913441978404AFB6913440A4676
:10064C001A7004E03D4AFB69134420221A70FB69BE
:10065C000133FB61FB69052BE2DD3E4B1B683F4A16
:10066C000721374802F080FA3F4A0721354802F04B
:10067C007BFA3E4B03221A6058E03D4B2E4A072171
:10068C002E4802F071FA00232B4A07212C4802F065
:10069C006BFA0023284A07212A4802F065FA45E044
:1006AC00344B254A0721254802F05EFA0023224AE2
:1006BC000721234802F058FA00231F4A072121483A
:1006CC0002F052FA32E02C4B1B6807F114001A4A64
:1006DC00072102F049FA07F11403284A07211748A9
:1006EC0002F042FA0023144A0721154802F03CFAA2
:1006FC000023114A0721134802F036FA1B4B4FF026
:10070C00FF321A6012E000230B4A07210B4802F05B
:10071C002BFA0023084A0721094802F025FA002386
:10072C00054A0721074802F01FFA00BF00BF203717
:10073C00BD4680BDBC000020143500081000002010
:10074C00170000201E0000203F420F0007B20100DE
:10075C0028000020B8000020B40000201C35000840
:10076C001F85EB5124350008303500082C00002083
:10077C00151605001CC80600AC0000203835000812
:10078C0080B483B000AF0346FB71FB792F2B07D9E4
:10079C00FB79392B04D8FB79303B0A4AD35C0CE04B
:1007AC00FB794C2B02D1084B1B7806E0FB792E2BE6
:1007BC0002D1054B5B7800E0FF2318460C37BD4691
:1007CC0080BC7047000000200C00002080B584B075
:1007DC0000AF78600B46FB700023FB6035E0FA68D5
:1007EC001346DB009B1A7A6813441846FFF7A8FCE3
:1007FC000346BB60FB78052B1FD8FB78BA689A427E
:10080C0015DDFA681346DB009B1A7A681A44BB683C
:10081C00591EFB78CB1AD35C1846FFF7B1FF034681
:10082C0019460E4AFB6813440A461A700AE00B4A32
:10083C00FB681344FF221A7004E0084AFB68134457
:10084C00FF221A70FB680133FB60FB68022BC6DDCC
:10085C00024B18461037BD4680BD00BFC8000020B3
:10086C0080B584B000AF78600B46FB70FB781946FE
:10087C007868FFF7ABFFB860FB78052B20D801A296
:10088C0052F823F0A9080008AF080008B5080008C2
:10089C00BB080008C1080008C70800082023FB7328
:1008AC0011E01023FB730EE00823FB730BE0042311
:1008BC00FB7308E00223FB7305E00123FB7302E0EA
:1008CC000123FB7300BF224B1B68002B2CDB204B3E
:1008DC001B68052B28DCFA781D4B1B689A4213D138
:1008EC001C4AFB7B1370BB689A781A4B5A70BB6816
:1008FC0001331B7803F07F03DAB2164B9A70BB6896
:10090C001A78144BDA701FE0124AFB7B1370BB6829
:10091C009A78104B5A70BB685A780E4B9A70BB6819
:10092C001A780C4BDA700FE00A4AFB7B1370BB6829
:10093C009A78084B5A70BB685A78064B9A70BB6809
:10094C001A78044BDA7000BF00BF1037BD4680BD6B
:10095C002C000020C000002080B500AF0E4B1B788F
:10096C00DBB219460D48FFF77BFF04210C4800F061
:10097C001BF8094B1B78DBB25A1C0A4B83FB023168
:10098C00D317C91A0B465B000B445B00D11ACAB2D1
:10099C00014B1A7000BF80BDBD000020100000206C
:1009AC00C0000020ABAAAA2A80B582B000AF786044
:1009BC00396000224FF480410A4800F072FE3B6817
:1009CC009AB24FF496737968074801F0E5FA012260
:1009DC004FF48041034800F064FE00BF0837BD4669
:1009EC0080BD00BF000C01402401002080B500AF89
:1009FC0000F04CFB00F032F800F024F900F0A0F805
:100A0C0000F0D4F800F066F8124801F0FFFC642105
:100A1C00002000F0CDFA6421012000F0C9FA642115
:100A2C00022000F0C5FA0C4B1B68012B05D1FFF717
:100A3C0093FF0521002000F0BBFA074B5B68012BEC
:100A4C00F1D1FFF717FCFFF777FD0A21012000F029
:100A5C00AFFAE8E77C010020F001002080B590B0EF
:100A6C0000AF07F1180328220021184602F0B0F855
:100A7C003B1D00221A605A609A60DA601A610223E8
:100A8C00BB610123BB621023FB6200237B6307F174
:100A9C001803184600F01EFE0346002B01D000F090
:100AAC004BF90F237B600023BB600023FB6000230A
:100ABC003B6100237B613B1D0021184601F08CF843
:100ACC000346002B01D000F037F900BF4037BD467C
:100ADC0080BD000080B500AF174B184A1A60164B4A
:100AEC004FF482725A60144B00229A60124B00220F
:100AFC00DA60114B00221A610F4B00225A610E4B27
:100B0C004FF400729A610C4B0022DA610A4B0022FE
:100B1C001A62094B00225A62074B00229A62064B5A
:100B2C000A22DA62044801F0B3F90346002B01D023
:100B3C0000F002F900BF80BDCC0000200030014065
:100B4C0080B500AF174B184A1A60164B4FF48272DF
:100B5C005A60144B00229A60124B0022DA60114B3F
:100B6C0000221A610F4B00225A610E4B4FF4007297
:100B7C009A610C4B0022DA610A4B00221A62094B73
:100B8C0000225A62074B00229A62064B0A22DA6252
:100B9C00044801F07DF90346002B01D000F0CCF89D
:100BAC0000BF80BD240100200038004080B586B015
:100BBC0000AF07F1080300221A605A609A60DA60ED
:100BCC003B4600221A605A601D4B4FF080421A605F
:100BDC001B4B41F63F725A60194B00229A60184B1E
:100BEC000922DA60164B00221A61154B00229A6119
:100BFC00134801F0BBFB0346002B01D000F09CF81E
:100C0C004FF48053BB6007F1080319460C4801F000
:100C1C0057FD0346002B01D000F08EF800233B60FB
:100C2C0000237B603B461946054801F02DFF034627
:100C3C00002B01D000F080F800BF1837BD4680BDF6
:100C4C007C01002080B586B000AF07F108030022BC
:100C5C001A605A609A60DA602F4B9B692E4A43F0F7
:100C6C00040393612C4B9B6903F004037B607B684A
:100C7C00294B9B69284A43F008039361264B9B69D7
:100C8C0003F008033B603B6800224021234800F03E
:100C9C0008FD002244F2C031214800F002FD40233F
:100CAC00BB600123FB6000233B6102237B6107F1E6
:100CBC0008031946194800F059FB1F23BB60002399
:100CCC00FB6002233B6107F108031946144800F04E
:100CDC004DFB4FF48043BB600123FB6000233B6161
:100CEC0003237B6107F1080319460D4800F03EFB16
:100CFC004FF47073BB600123FB6000233B61022344
:100D0C007B6107F108031946054800F02FFB00BF73
:100D1C001837BD4680BD00BF0010024000080140DE
:100D2C00000C014080B582B000AF786000F058F93B
:100D3C0000BF0837BD4680BD80B400AF72B600BF9F
:100D4C0000BFFDE780B485B000AF154B9B69144A1A
:100D5C0043F001039361124B9B6903F00103BB60E9
:100D6C00BB680F4BDB690E4A43F08053D3610C4BCD
:100D7C00DB6903F080537B607B680A4B5B68FB602C
:100D8C00FB6823F0E063FB60FB6843F00073FB60DF
:100D9C00044AFB68536000BF1437BD4680BC7047E3
:100DAC00001002400000014080B58AB000AF7860AE
:100DBC0007F1180300221A605A609A60DA607B68A7
:100DCC001B682B4A934224D12A4B9B69294A43F432
:100DDC0080539361274B9B6903F480537B617B6940
:100DEC00244B9B69234A43F004039361214B9B6979
:100DFC0003F004033B613B69A023BB610223FB614D
:100E0C0003237B6207F1180319461B4800F0AEFA66
:100E1C0029E07B681B68194A934224D1154BDB6986
:100E2C00144A43F48043D361124BDB6903F48043CF
:100E3C00FB60FB680F4B9B690E4A43F00803936100
:100E4C000C4B9B6903F00803BB60BB684FF4204359
:100E5C00BB610223FB6103237B6207F11803194674
:100E6C00074800F083FA00BF2837BD4680BD00BF9D
:100E7C0000300140001002400008014000380040E2
:100E8C00000C014080B584B000AF78607B681B68B3
:100E9C00B3F1804F13D10C4BDB690B4A43F00103C8
:100EAC00D361094BDB6903F00103FB60FB68002293
:100EBC0001211C2000F023FA1C2000F03CFA00BF9A
:100ECC001037BD4680BD00BF0010024080B400AF9B
:100EDC0000BFFDE780B400AF00BFFDE780B400AFFA
:100EEC0000BFFDE780B400AF00BFFDE780B400AFEA
:100EFC0000BFFDE780B400AF00BFBD4680BC7047AB
:100F0C0080B400AF00BFBD4680BC704780B400AF5A
:100F1C0000BFBD4680BC704780B500AF00F0FCF848
:100F2C0000BF80BD80B500AF024801F0C1FA00BF20
:100F3C0080BD00BF7C01002080B586B000AF78601A
:100F4C00144A154BD31A7B617B693B61134B1B68AD
:100F5C00002B02D1114B124A1A60104B1A687B6895
:100F6C0013443A699A4207D201F03AFE03460C2226
:100F7C001A604FF0FF3309E0084B1B68FB60074B0E
:100F8C001A687B681344054A1360FB6818461837C7
:100F9C00BD4680BD0050002000040000C4010020AC
:100FAC006803002080B400AF00BFBD4680BC704712
:100FBC0080B483B000AF7860396007497B683A68C9
:100FCC0041F82320054A7B68002142F8231000BF1A
:100FDC000C37BD4680BC7047C8010020F0010020D2
:100FEC0080B483B000AF00237B601CE0124A7B68A6
:100FFC0052F82330002B13DD0F4A7B6852F8233054
:10100C005A1E0D497B6841F823200B4A7B6852F825
:10101C002330002B04DC094A7B68012142F82310A1
:10102C007B6801337B607B68092BDFDD00BF00BF71
:10103C000C37BD4680BC7047C8010020F001002071
:10104C00FFF7B0FF0B480C490C4A002302E0D458C0
:10105C00C4500433C4188C42F9D3094A094C0023F8
:10106C0001E013600432A242FBD301F0BFFDFFF795
:10107C00BDFC7047000000208C000020B835000833
:10108C008C00002064030020FEE7000080B500AF58
:10109C00084B1B68074A43F010031360032000F051
:1010AC0023F90F2000F008F8FFF74CFE0023184638
:1010BC0080BD00BF0020024080B582B000AF7860D8
:1010CC00124B1A68124B1B7819464FF47A73B3FB08
:1010DC00F1F3B2FBF3F3184600F03BF90346002B97
:1010EC0001D001230EE07B680F2B0AD8002279680F
:1010FC004FF0FF3000F003F9064A7B6813600023C1
:10110C0000E0012318460837BD4680BD30000020A2
:10111C00380000203400002080B400AF054B1B7851
:10112C001A46054B1B681344034A136000BFBD46A7
:10113C0080BC7047380000201802002080B400AF3B
:10114C00024B1B681846BD4680BC70471802002035
:10115C0080B485B000AF78607B6803F00703FB6058
:10116C000C4BDB68BB60BA684FF6FF031340BB60E7
:10117C00FB681A02BB68134343F0BF6343F40033AC
:10118C00BB60044ABB68D36000BF1437BD4680BC4B
:10119C00704700BF00ED00E080B400AF044BDB688B
:1011AC001B0A03F007031846BD4680BC704700BFFE
:1011BC0000ED00E080B483B000AF0346FB7197F9FB
:1011CC000730002B0BDBFB7903F01F02064997F964
:1011DC0007305B09012000FA02F241F8232000BF1E
:1011EC000C37BD4680BC704700E100E080B483B092
:1011FC0000AF03463960FB7197F90730002B0ADB0F
:10120C003B68DAB20C4997F907301201D2B20B44A1
:10121C0083F800230AE03B68DAB20849FB7903F053
:10122C000F03043B1201D2B20B441A7600BF0C37E9
:10123C00BD4680BC704700BF00E100E000ED00E05F
:10124C0080B489B000AFF860B9607A60FB6803F0D5
:10125C000703FB61FB69C3F10703042B28BF0423BD
:10126C00BB61FB690433062B02D9FB69033B00E02D
:10127C0000237B614FF0FF32BB6902FA03F3DA43C0
:10128C00BB681A407B699A404FF0FF317B6901FAC9
:10129C0003F3D9437B680B40134318462437BD46F0
:1012AC0080BC704780B582B000AF78607B68013B32
:1012BC00B3F1807F01D301230FE00A4A7B68013B25
:1012CC0053600F214FF0FF30FFF790FF054B0022CA
:1012DC009A60044B07221A60002318460837BD4653
:1012EC0080BD00BF10E000E080B582B000AF786038
:1012FC007868FFF72DFF00BF0837BD4680BD80B56D
:10130C0086B000AF0346B9607A60FB7300237B6143
:10131C00FFF742FF78617A68B9687869FFF790FF48
:10132C00024697F90F3011461846FFF75FFF00BFD2
:10133C001837BD4680BD80B582B000AF0346FB7147
:10134C0097F907301846FFF735FF00BF0837BD4641
:10135C0080BD80B582B000AF78607868FFF7A2FFDF
:10136C00034618460837BD4680BD000080B48BB0DC
:10137C0000AF7860396000237B6200233B6269E137
:10138C0001227B6A02FA03F3FB613B681B68FA6972
:10139C001340BB61BA69FB699A4240F058813B68C3
:1013AC005B689A4A93425ED0984A934275D8984AA1
:1013BC00934258D0964A93426FD8964A934252D051
:1013CC00944A934269D8944A93424CD0924A93429D
:1013DC0063D8924A934246D0904A93425DD8122BDE
:1013EC002AD8122B59D801A252F823F073140008F2
:1013FC004D1400085F140008A1140008A71400087D
:10140C00A7140008A7140008A7140008A7140008C4
:10141C00A7140008A7140008A7140008A7140008B4
:10142C00A7140008A7140008A7140008A7140008A4
:10143C005514000869140008794A934213D02CE023
:10144C003B68DB683B6229E03B68DB6804333B624A
:10145C0024E03B68DB6808333B621FE03B68DB68D9
:10146C000C333B621AE03B689B68002B02D10423CF
:10147C003B6213E03B689B68012B05D108233B6260
:10148C007B68FA691A6109E008233B627B68FA6998
:10149C005A6103E000233B6200E000BFBB69FF2BF5
:1014AC0001D87B6801E07B6804337B61BB69FF2B4F
:1014BC0002D87B6A9B0002E07B6A083B9B003B6185
:1014CC007B691A680F213B6901FA03F3DB431A406D
:1014DC00396A3B6901FA03F31A437B691A603B686A
:1014EC005B6803F08053002B00F0B1804D4B9B697F
:1014FC004C4A43F0010393614A4B9B6903F001038F
:10150C00BB60BB68484A7B6A9B08023352F82330A5
:10151C00FB607B6A03F003039B000F2202FA03F3C8
:10152C00DB43FA681340FB607B68404A934213D05C
:10153C007B683F4A93420DD07B683E4A934207D06A
:10154C007B683D4A934201D1032306E0042304E067
:10155C00022302E0012300E000237A6A02F0030276
:10156C0092009340FA681343FB602F497B6A9B08F7
:10157C000233FA6841F823203B685B6803F480135C
:10158C00002B06D02D4B9A682C49BB6913438B60FA
:10159C0006E02A4B9A68BB69DB43284913408B60F1
:1015AC003B685B6803F40013002B06D0234BDA680E
:1015BC002249BB691343CB6006E0204BDA68BB6958
:1015CC00DB431E491340CB603B685B6803F400337C
:1015DC00002B06D0194B5A681849BB6913434B6052
:1015EC0006E0164B5A68BB69DB43144913404B6049
:1015FC003B685B6803F48033002B21D00F4B1A68D7
:10160C000E49BB6913430B6021E000BF0000321090
:10161C0000003110000022100000211000001210F8
:10162C0000001110001002400000014000080140B1
:10163C00000C014000100140001401400004014066
:10164C000B4B1A68BB69DB43094913400B607B6A7F
:10165C0001337B623B681A687B6A22FA03F3002B26
:10166C007FF48EAE00BF00BF2C37BD4680BC7047E8
:10167C000004014080B485B000AF78600B467B80DD
:10168C007B689A687B881340002B02D00123FB7384
:10169C0001E00023FB73FB7B18461437BD4680BC6E
:1016AC00704780B483B000AF78600B467B801346E4
:1016BC007B707B78002B03D07A887B681A6103E0FF
:1016CC007B881A047B681A6100BF0C37BD4680BC4E
:1016DC007047000080B586B000AF78607B68002B47
:1016EC0001D1012372E27B681B6803F00103002B1C
:1016FC0000F08780924B5B6803F00C03042B0CD03A
:10170C008F4B5B6803F00C03082B12D18C4B5B687E
:10171C0003F48033B3F5803F0BD1894B1B6803F482
:10172C000033002B6CD07B685B68002B68D10123E5
:10173C004CE27B685B68B3F5803F06D1804B1B683D
:10174C007F4A43F4803313602EE07B685B68002B88
:10175C000CD17B4B1B687A4A23F480331360784B93
:10176C001B68774A23F4802313601DE07B685B6859
:10177C00B3F5A02F0CD1724B1B68714A43F4802334
:10178C0013606F4B1B686E4A43F4803313600BE09D
:10179C006B4B1B686A4A23F480331360684B1B68DD
:1017AC00674A23F4802313607B685B68002B13D09B
:1017BC00FFF7C4FC386108E0FFF7C0FC02463B6948
:1017CC00D31A642B01D9032300E25D4B1B6803F48D
:1017DC000033002BF0D014E0FFF7B0FC386108E0C8
:1017EC00FFF7ACFC02463B69D31A642B01D90323E7
:1017FC00ECE1534B1B6803F40033002BF0D100E0F9
:10180C0000BF7B681B6803F00203002B63D04C4BBA
:10181C005B6803F00C03002B0BD0494B5B6803F0A7
:10182C000C03082B1CD1464B5B6803F48033002B54
:10183C0016D1434B1B6803F00203002B05D07B68C9
:10184C001B69012B01D00123C0E13D4B1B6823F028
:10185C00F8027B685B69DB00394913430B603AE0A3
:10186C007B681B69002B20D0364B01221A60FFF7D6
:10187C0065FC386108E0FFF761FC02463B69D31A4E
:10188C00022B01D90323A1E12D4B1B6803F00203AA
:10189C00002BF0D02A4B1B6823F0F8027B685B69A5
:1018AC00DB00274913430B6015E0264B00221A601E
:1018BC00FFF744FC386108E0FFF740FC02463B6947
:1018CC00D31A022B01D9032380E11D4B1B6803F0B3
:1018DC000203002BF0D17B681B6803F00803002B7C
:1018EC003AD07B689B69002B19D0174B01221A60E8
:1018FC00FFF724FC386108E0FFF720FC02463B6947
:10190C00D31A022B01D9032360E10D4B5B6A03F060
:10191C000203002BF0D0012000F09CFA1CE00A4BD3
:10192C0000221A60FFF70AFC38610FE0FFF706FC93
:10193C0002463B69D31A022B08D9032346E100BFA8
:10194C00001002400000424280044242924B5B6A0B
:10195C0003F00203002BE9D17B681B6803F004033E
:10196C00002B00F0A6800023FB758B4BDB6903F08A
:10197C008053002B0DD1884BDB69874A43F0805391
:10198C00D361854BDB6903F08053BB60BB680123DB
:10199C00FB75824B1B6803F48073002B18D17F4BB3
:1019AC001B687E4A43F480731360FFF7C7FB3861F2
:1019BC0008E0FFF7C3FB02463B69D31A642B01D93D
:1019CC00032303E1754B1B6803F48073002BF0D0E9
:1019DC007B68DB68012B06D16F4B1B6A6E4A43F0A8
:1019EC00010313622DE07B68DB68002B0CD16A4B82
:1019FC001B6A694A23F001031362674B1B6A664A30
:101A0C0023F0040313621CE07B68DB68052B0CD10C
:101A1C00614B1B6A604A43F0040313625E4B1B6A02
:101A2C005D4A43F0010313620BE05B4B1B6A5A4A9D
:101A3C0023F001031362584B1B6A574A23F004032B
:101A4C0013627B68DB68002B15D0FFF777FB3861DE
:101A5C000AE0FFF773FB02463B69D31A41F2883266
:101A6C00934201D90323B1E04B4B1B6A03F00203F1
:101A7C00002BEED014E0FFF761FB38610AE0FFF7B2
:101A8C005DFB02463B69D31A41F28832934201D97D
:101A9C0003239BE0404B1B6A03F00203002BEED1A7
:101AAC00FB7D012B05D13C4BDB693B4A23F080537A
:101ABC00D3617B68DB69002B00F08780364B5B6859
:101ACC0003F00C03082B61D07B68DB69022B46D139
:101ADC00334B00221A60FFF731FB386108E0FFF747
:101AEC002DFB02463B69D31A022B01D903236DE06F
:101AFC00294B1B6803F00073002BF0D17B681B6A29
:101B0C00B3F5803F08D1244B5B6823F400327B682B
:101B1C009B68214913434B601F4B5B6823F4741281
:101B2C007B68196A7B685B6A0B431B4913434B60E8
:101B3C001B4B01221A60FFF701FB386108E0FFF72D
:101B4C00FDFA02463B69D31A022B01D903233DE06F
:101B5C00114B1B6803F00073002BF0D035E0104BD9
:101B6C0000221A60FFF7EAFA386108E0FFF7E6FA9C
:101B7C0002463B69D31A022B01D9032326E0064BFC
:101B8C001B6803F00073002BF0D11EE07B68DB694F
:101B9C00012B07D1012319E0001002400070004016
:101BAC00600042420B4B5B68FB60FB6803F48032C5
:101BBC007B681B6A9A4206D1FB6803F470127B683F
:101BCC005B6A9A4201D0012300E0002318461837C3
:101BDC00BD4680BD0010024080B584B000AF786077
:101BEC0039607B68002B01D10123D0E06A4B1B6864
:101BFC0003F007033A689A4210D9674B1B6823F02D
:101C0C00070265493B6813430B60634B1B6803F089
:101C1C0007033A689A4201D00123B8E07B681B683D
:101C2C0003F00203002B20D07B681B6803F0040335
:101C3C00002B05D0594B5B68584A43F4E063536062
:101C4C007B681B6803F00803002B05D0534B5B68C3
:101C5C00524A43F460535360504B5B6823F0F002DC
:101C6C007B689B684D4913434B607B681B6803F092
:101C7C000103002B40D07B685B68012B07D1474BDD
:101C8C001B6803F40033002B15D101237FE07B6824
:101C9C005B68022B07D1414B1B6803F00073002BD0
:101CAC0009D1012373E03D4B1B6803F00203002BA9
:101CBC0001D101236BE0394B5B6823F003027B6895
:101CCC005B68364913434B60FFF738FAF8600AE05B
:101CDC00FFF734FA0246FB68D31A41F2883293427A
:101CEC0001D9032353E02D4B5B6803F00C027B6896
:101CFC005B689B009A42EBD1274B1B6803F00703F0
:101D0C003A689A4210D2244B1B6823F007022249EE
:101D1C003B6813430B60204B1B6803F007033A68C6
:101D2C009A4201D0012332E07B681B6803F0040364
:101D3C00002B08D0194B5B6823F4E0627B68DB68EE
:101D4C00164913434B607B681B6803F00803002B98
:101D5C0009D0124B5B6823F460527B681B69DB0073
:101D6C000E4913434B6000F021F802460B4B5B68A5
:101D7C001B0903F00F030A49CB5C22FA03F3094A4F
:101D8C001360094B1B681846FFF796F90023184699
:101D9C001037BD4680BD00BF00200240001002403D
:101DAC0050350008300000203400002080B487B08B
:101DBC0000AF0023FB600023BB6000237B6100238A
:101DCC007B6000233B611E4B5B68FB60FB6803F090
:101DDC000C03042B02D0082B03D027E0194B3B61DA
:101DEC0027E0FB689B0C03F00F03174AD35C7B6066
:101DFC00FB6803F48033002B10D0114B5B685B0C39
:101E0C0003F00103114AD35CBB607B680D4A03FBF2
:101E1C0002F2BB68B2FBF3F37B6104E07B680C4A13
:101E2C0002FB03F37B617B693B6102E0054B3B6189
:101E3C0000BF3B6918461C37BD4680BC704700BFCD
:101E4C000010024000127A0060350008703500085E
:101E5C0000093D0080B485B000AF78600A4B1B6868
:101E6C000A4AA2FB03235B0A7A6802FB03F3FB60BA
:101E7C0000BFFB685A1EFA60002BF9D100BF00BFEF
:101E8C001437BD4680BC704730000020D34D621023
:101E9C0080B582B000AF78607B68002B01D1012344
:101EAC0076E07B685B6A002B08D17B685B68B3F5D6
:101EBC00827F09D07B680022DA6105E07B68002212
:101ECC001A617B6800225A617B6800229A627B68E7
:101EDC0093F85130DBB2002B06D17B68002283F8DB
:101EEC0050207868FEF760FF7B68022283F851204F
:101EFC007B681B681A687B681B6822F040021A60BA
:101F0C007B685B6803F482727B689B6803F4044310
:101F1C001A437B68DB6803F400631A437B681B6914
:101F2C0003F002031A437B685B6903F001031A4355
:101F3C007B689B6903F400731A437B68DB6903F0CD
:101F4C0038031A437B681B6A03F0800342EA0301DF
:101F5C007B689B6A03F400527B681B680A431A6017
:101F6C007B689B691A0C7B681B6802F004025A6040
:101F7C007B681B68DA697B681B6822F40062DA6193
:101F8C007B6800225A657B68012283F8512000236C
:101F9C0018460837BD4680BD80B588B000AFF860E4
:101FAC00B9603B601346FB800023FB77FB6893F81A
:101FBC005030012B01D102232DE1FB68012283F863
:101FCC005020FFF7BBF8B861FB88FB82FB6893F8E5
:101FDC005130DBB2012B02D00223FB7716E1BB6838
:101FEC00002B02D0FB88002B02D10123FB770DE1E3
:101FFC00FB68032283F85120FB6800225A65FB68BA
:10200C00BA681A63FB68FA889A86FB68FA88DA86DB
:10201C00FB6800229A63FB6800229A87FB68002207
:10202C00DA87FB6800225A64FB6800221A64FB689A
:10203C009B68B3F5004F0FD1FB681B681A68FB68EF
:10204C001B6822F040021A60FB681B681A68FB6868
:10205C001B6842F480421A60FB681B681B6803F023
:10206C004003402B07D0FB681B681A68FB681B6891
:10207C0042F040021A60FB68DB68B3F5006F4FD189
:10208C00FB685B68002B02D0FB8A012B42D1FB68FA
:10209C001B6B1A88FB681B68DA60FB681B6B9A1C4D
:1020AC00FB681A63FB68DB8E9BB2013B9AB2FB6840
:1020BC00DA862FE0FB681B689B6803F00203022B97
:1020CC0012D1FB681B6B1A88FB681B68DA60FB6813
:1020DC001B6B9A1CFB681A63FB68DB8E9BB2013B83
:1020EC009AB2FB68DA8615E0FFF728F80246BB695E
:1020FC00D31A3A689A4203D83B68B3F1FF3F02D136
:10210C003B68002B06D10323FB77FB68012283F885
:10211C0051207BE0FB68DB8E9BB2002BCAD150E0D8
:10212C00FB685B68002B02D0FB8A012B44D1FB6857
:10213C001A6BFB681B680C3312781A70FB681B6BEC
:10214C005A1CFB681A63FB68DB8E9BB2013B9AB28C
:10215C00FB68DA8630E0FB681B689B6803F00203BF
:10216C00022B13D1FB681A6BFB681B680C331278BB
:10217C001A70FB681B6B5A1CFB681A63FB68DB8EBE
:10218C009BB2013B9AB2FB68DA8615E0FEF7D6FFEC
:10219C000246BB69D31A3A689A4203D83B68B3F13A
:1021AC00FF3F02D13B68002B06D10323FB77FB6872
:1021BC00012283F8512029E0FB68DB8E9BB2002BB7
:1021CC00C9D1BA693968F86800F0B2F80346002B37
:1021DC0002D0FB6820225A65FB689B68002B0AD151
:1021EC0000233B61FB681B68DB683B61FB681B6879
:1021FC009B683B613B69FB685B6D002B02D0012344
:10220C00FB7703E0FB68012283F85120FB68002276
:10221C0083F85020FB7F18462037BD4680BD000058
:10222C0080B588B000AFF860B9603B601346FB71B5
:10223C00FEF784FF0246BB6A9B1A3A681344FB61A3
:10224C00FEF77CFFB861394B1B685B011B0DFA690B
:10225C0002FB03F37B6154E03B68B3F1FF3F50D0CA
:10226C00FEF76CFF0246BB69D31AFA699A4202D98F
:10227C00FB69002B3DD1FB681B685A68FB681B6827
:10228C0022F0E0025A60FB685B68B3F5827F11D1E3
:10229C00FB689B68B3F5004F04D0FB689B68B3F5F3
:1022AC00806F07D1FB681B681A68FB681B6822F0FB
:1022BC0040021A60FB689B6AB3F5005F0FD1FB68A4
:1022CC001B681A68FB681B6822F400521A60FB68D2
:1022DC001B681A68FB681B6842F400521A60FB68A2
:1022EC00012283F85120FB68002283F8502003233D
:1022FC0017E07B69002B01D10023FB617B69013B5B
:10230C007B61FB681B689A68BB681340BA689A4289
:10231C000CBF01230023DBB21A46FB799A429BD1F6
:10232C00002318462037BD4680BD00BF300000207A
:10233C0080B586B002AFF860B9607A607B680093B4
:10234C00BB6800228021F868FFF76AFF0346002B68
:10235C0007D0FB685B6D43F02002FB685A650323D2
:10236C0000E0002318461037BD4680BD80B582B012
:10237C0000AF78607B68002B01D1012341E07B68C2
:10238C0093F83D30DBB2002B06D17B68002283F83A
:10239C003C207868FEF776FD7B68022283F83D20AE
:1023AC007B681A687B6804331946104600F074FA8F
:1023BC007B68012283F846207B68012283F83E204B
:1023CC007B68012283F83F207B68012283F8402040
:1023DC007B68012283F841207B68012283F842202C
:1023EC007B68012283F843207B68012283F8442018
:1023FC007B68012283F845207B68012283F83D200D
:10240C00002318460837BD4680BD000080B485B057
:10241C0000AF78607B6893F83D30DBB2012B01D0C4
:10242C0001233AE07B68022283F83D207B681B681D
:10243C00DA687B681B6842F00102DA607B681B6813
:10244C00184A93420ED07B681B68B3F1804F09D0B9
:10245C007B681B68144A934204D07B681B68134A40
:10246C00934211D17B681B689B6803F00703FB60E8
:10247C00FB68062B10D07B681B681A687B681B688E
:10248C0042F001021A6007E07B681B681A687B68DF
:10249C001B6842F001021A60002318461437BD462F
:1024AC0080BC7047002C0140000400400008004034
:1024BC0080B582B000AF78607B681B681B6903F045
:1024CC000203022B22D17B681B68DB6803F002033A
:1024DC00022B1BD17B681B686FF002021A617B68B0
:1024EC0001221A777B681B689B6903F00303002B9E
:1024FC0003D0786800F0B4F905E0786800F0A7F92B
:10250C00786800F0B6F97B6800221A777B681B6844
:10251C001B6903F00403042B22D17B681B68DB6866
:10252C0003F00403042B1BD17B681B686FF00402BF
:10253C001A617B6802221A777B681B689B6903F41B
:10254C004073002B03D0786800F08AF905E07868B6
:10255C0000F07DF9786800F08CF97B6800221A771E
:10256C007B681B681B6903F00803082B22D17B686E
:10257C001B68DB6803F00803082B1BD17B681B6806
:10258C006FF008021A617B6804221A777B681B685B
:10259C00DB6903F00303002B03D0786800F060F9CB
:1025AC0005E0786800F053F9786800F062F97B6810
:1025BC0000221A777B681B681B6903F01003102B31
:1025CC0022D17B681B68DB6803F01003102B1BD136
:1025DC007B681B686FF010021A617B6808221A77FF
:1025EC007B681B68DB6903F44073002B03D07868AD
:1025FC0000F036F905E0786800F029F9786800F009
:10260C0038F97B6800221A777B681B681B6903F01A
:10261C000103012B0ED17B681B68DB6803F00103FF
:10262C00012B07D17B681B686FF001021A61786877
:10263C00FEF778FB7B681B681B6903F08003802B1B
:10264C000ED17B681B68DB6803F08003802B07D1FD
:10265C007B681B686FF080021A61786800F07BFA67
:10266C007B681B681B6903F04003402B0ED17B6811
:10267C001B68DB6803F04003402B07D17B681B68A9
:10268C006FF040021A61786800F0FCF87B681B68F8
:10269C001B6903F02003202B0ED17B681B68DB68C1
:1026AC0003F02003202B07D17B681B686FF02002FE
:1026BC001A61786800F046FA00BF0837BD4680BD45
:1026CC0080B584B000AF786039600023FB737B6801
:1026DC0093F83C30012B01D10223B4E07B6801223A
:1026EC0083F83C207B68022283F83D207B681B68C2
:1026FC009B68BB60BB6823F07703BB60BB6823F4AB
:10270C007F43BB607B681B68BA689A603B681B6838
:10271C00B3F5005F3ED0B3F5005F00F28780B3F5F0
:10272C00805F00F08680B3F5805F7FD8702B1AD065
:10273C00702B7BD8602B50D0602B77D8502B3CD093
:10274C00502B73D8402B58D0402B6FD8302B64D0E3
:10275C00302B6BD8202B60D0202B67D8002B5CD073
:10276C00102B5AD062E07B6818683B6899683B680C
:10277C005A683B68DB6800F068F97B681B689B68EB
:10278C00BB60BB6843F07703BB607B681B68BA68AF
:10279C009A604FE07B6818683B6899683B685A6898
:1027AC003B68DB6800F051F97B681B689A687B68B2
:1027BC001B6842F480429A603CE07B6818683B6876
:1027CC0059683B68DB681A4600F0C8F87B681B68E0
:1027DC005021184600F01FF92CE07B6818683B6804
:1027EC0059683B68DB681A4600F0E6F87B681B68A2
:1027FC006021184600F00FF91CE07B6818683B68F4
:10280C0059683B68DB681A4600F0A8F87B681B68BF
:10281C004021184600F0FFF80CE07B681A683B6812
:10282C001B681946104600F0F6F803E00123FB7311
:10283C0000E000BF7B68012283F83D207B6800220A
:10284C0083F83C20FB7B18461037BD4680BD80B416
:10285C0083B000AF786000BF0C37BD4680BC7047BA
:10286C0080B483B000AF786000BF0C37BD4680BC2D
:10287C00704780B483B000AF786000BF0C37BD46A2
:10288C0080BC704780B483B000AF786000BF0C3759
:10289C00BD4680BC7047000080B485B000AF786046
:1028AC0039607B681B68FB607B68294A93420BD0BC
:1028BC007B68B3F1804F07D07B68264A934203D0E4
:1028CC007B68254A934208D1FB6823F07003FB60B8
:1028DC003B685B68FA681343FB607B681C4A934255
:1028EC000BD07B68B3F1804F07D07B68194A9342B9
:1028FC0003D07B68184A934208D1FB6823F44073D9
:10290C00FB603B68DB68FA681343FB60FB6823F0F1
:10291C0080023B685B691343FB607B68FA681A6052
:10292C003B689A687B68DA623B681A687B689A62D3
:10293C007B68074A934203D13B681A697B681A6328
:10294C007B6801225A6100BF1437BD4680BC7047BA
:10295C00002C0140000400400008004080B487B007
:10296C0000AFF860B9607A60FB681B6A7B61FB683A
:10297C001B6A23F00102FB681A62FB689B693B61CE
:10298C003B6923F0F0033B617B681B013A691343FD
:10299C003B617B6923F00A037B617A69BB68134353
:1029AC007B61FB683A699A61FB687A691A6200BFBD
:1029BC001C37BD4680BC704780B487B000AFF86050
:1029CC00B9607A60FB681B6A7B61FB681B6A23F049
:1029DC001002FB681A62FB689B693B613B6923F43C
:1029EC0070433B617B681B033A6913433B617B6912
:1029FC0023F0A0037B61BB681B017A6913437B61E5
:102A0C00FB683A699A61FB687A691A6200BF1C37E5
:102A1C00BD4680BC704780B485B000AF786039602B
:102A2C007B689B68FB60FB6823F07003FB603A6873
:102A3C00FB68134343F00703FB607B68FA689A60FA
:102A4C0000BF1437BD4680BC704780B487B000AF60
:102A5C00F860B9607A603B60FB689B687B617B695E
:102A6C0023F47F437B613B681A027B681A43BB6883
:102A7C0013437A6913437B61FB687A699A6000BFE0
:102A8C001C37BD4680BC704780B485B000AF786001
:102A9C0039607B6893F83C30012B01D1022346E06E
:102AAC007B68012283F83C207B68022283F83D205E
:102ABC007B681B685B68FB607B681B689B68BB6002
:102ACC00FB6823F07003FB603B681B68FA681343D8
:102ADC00FB607B681B68FA685A607B681B68164A47
:102AEC0093420ED07B681B68B3F1804F09D07B6892
:102AFC001B68124A934204D07B681B68104A9342AD
:102B0C000CD1BB6823F08003BB603B685B68BA6880
:102B1C001343BB607B681B68BA689A607B680122B0
:102B2C0083F83D207B68002283F83C200023184664
:102B3C001437BD4680BC7047002C01400004004097
:102B4C000008004080B483B000AF786000BF0C3741
:102B5C00BD4680BC704780B483B000AF786000BFC6
:102B6C000C37BD4680BC70470CB430B5174B0C1EEF
:102B7C001D689DB008DA8B234FF0FF302B601DB021
:102B8C00BDE8304002B070474FF40273ADF814301A
:102B9C000CBF234604F1FF33049307934FF6FF73E6
:102BAC0002900690ADF81630284621AB209A02A967
:102BBC00019300F093F9431CBCBF8B232B60002CBA
:102BCC00DDD00022029B1A70D9E700BF3C00002028
:102BDC0003460244934200D1704703F8011BF9E706
:102BEC00014B1868704700BF3C00002070B50026F0
:102BFC000C4D0D4C641BA410A64209D100F078FCBE
:102C0C0000260A4D0A4C641BA410A64205D170BDC7
:102C1C0055F8043B98470136EEE755F8043B9847C6
:102C2C000136F2E7B0350008B0350008B0350008C1
:102C3C00B43500087047704738B50546002940D0B8
:102C4C0051F8043C0C1F002BB8BFE41800F0DEF860
:102C5C001C4A136833B9636014602846BDE83840D9
:102C6C0000F0DAB8A34208D9206821188B4201BFC2
:102C7C0019685B6809182160EDE71A465B680BB1AF
:102C8C00A342FAD911685018A0420BD12068014414
:102C9C00501883421160E0D118685B6808441060DA
:102CAC005360DAE702D90C232B60D6E72068211891
:102CBC008B4201BF19685B6809182160636054601E
:102CCC00CBE738BD6003002070B50F4E0C46316861
:102CDC00054611B900F0AAFB30602146284600F0E9
:102CEC00A5FB431C03D14FF0FF34204670BDC41C20
:102CFC0024F00304A042F8D0211A284600F096FBD9
:102D0C000130F2D1EFE700BF5C0300202DE9F8435E
:102D1C00CD1C25F0030508350C2D38BF0C25002DD6
:102D2C00064601DBA94204D90C2333600020BDE820
:102D3C00F883DFF8D48000F069F8D8F800301C462E
:102D4C0044BB29463046FFF7BFFF431C044658D10D
:102D5C00D8F800402746002F43D1002C4BD02368D5
:102D6C003946304604EB030900F060FB814542D143
:102D7C00216830466D1A2946FFF7A6FF01303AD07C
:102D8C0023682B442360D8F800305A6862BBC8F81B
:102D9C0000700FE02268521B20D40B2A17D961193E
:102DAC00A342256018BF5960636808BFC8F80010BB
:102DBC0062514B60304600F02FF804F10B00231DDC
:102DCC0020F00700C21A1CBF1B1AA350AFE76268A1
:102DDC00A3420CBFC8F800205A60EBE72346646896
:102DEC00AEE73C467F68B6E71A465B68A342FBD168
:102DFC0000235360DEE70C233046336000F00CF800
:102E0C0094E70560D6E700BF600300200148FFF798
:102E1C0011BF00BF580300200148FFF70CBF00BFD3
:102E2C00580300202DE9F0471F468E688246BE42AB
:102E3C000C4690460B682DD8B1F90C2012F4906F0B
:102E4C0026D06569096905EB4505A3EB010905EB7E
:102E5C00D5757B1C4B446D109D4238BF1D465305E8
:102E6C0027D52946FFF752FF064660B34A4621692B
:102E7C0000F0FAFAA38923F4906343F08003A38152
:102E8C0026614E4426603E466561A5EB0905A560AA
:102E9C00BE4200D93E4632464146206800F0ACFAAC
:102EAC000020A3689B1BA360236833442360BDE808
:102EBC00F0872A4600F0E6FA06460028E0D1504694
:102ECC002169FFF7B9FE0C23CAF80030A3894FF033
:102EDC00FF3043F04003A381E9E700002DE9F04FF8
:102EEC0098468B8907461B060D4614469DB010D597
:102EFC000B6973B94021FFF709FF2860286130B9CD
:102F0C000C233B604FF0FF301DB0BDE8F08F402329
:102F1C006B610023099320238DF8293030234FF067
:102F2C000109CDF80C80DFF898818DF82A30234602
:102F3C009A4613F8012B0AB1252AF9D1BAEB040BE6
:102F4C000BD05B46224629463846FFF76BFF013013
:102F5C0000F0A780099A5A4409929AF80030002B85
:102F6C0000F09F8000234FF0FF32CDE905230AF1DA
:102F7C00010A049307938DF853301A935446052293
:102F8C0014F8011B4E4800F061FA049AD8B9D00627
:102F9C0044BF20238DF85330110744BF2B238DF8E9
:102FAC0053309AF800302A2B15D0544600204FF09D
:102FBC000A0C079A214611F8013B303B092B4BD9DF
:102FCC00B0B1079214E0A0EB080309FA03F3134322
:102FDC00A2460493D2E7039B191D1B680391002B97
:102FEC00BBBF5B4242F0020207930793B8BF049247
:102FFC0023782E2B0AD163782A2B32D1039B0234EF
:10300C001A1D1B68039243EAE3730593DFF8B4A01F
:10301C0003225046217800F019FA38B14022049B63
:10302C00A0EB0A00824013430134049314F8011BF3
:10303C00062225488DF8281000F008FA002836D012
:10304C00224B1BBB039B073323F00703083303936B
:10305C00099B334409936AE70C4601200CFB0232AE
:10306C00A8E700234FF00A0C1946013405932046BB
:10307C0010F8012B303A092A03D9002BC6D0059140
:10308C00C4E7044601230CFB0121F0E703AB0093DA
:10309C002A4638460E4B04A9AFF30080421C064664
:1030AC00D6D1AB895B063FF52DAF09982CE703AB66
:1030BC0000932A463846064B04A900F07DF8EDE74C
:1030CC0072350008783500087C35000800000000D7
:1030DC00312E00082DE9F047164698468A680B6990
:1030EC0007469342B8BF1346336091F843200C4611
:1030FC00DDF820900AB1013333602368990642BF92
:10310C00336802333360256815F0060506D104F1E7
:10311C00190AE36832689B1AAB422BDC94F84330F3
:10312C002268003B18BF0123920630D44146384632
:10313C0004F14302C847013023D02368226903F00D
:10314C000603042B14BF002533684FF0000608BF9C
:10315C00E56804F11A0408BFED1A54F8123C08BFD4
:10316C0025EAE5759342C4BF9B1AED18B5421AD1F6
:10317C00002008E00123524641463846C84701303A
:10318C0003D14FF0FF30BDE8F0870135C1E73020A7
:10319C00E11881F843005A1C94F84510224402337C
:1031AC0082F84310C2E70123224641463846C847FD
:1031BC000130E6D00136D9E72DE9FF470F7E914665
:1031CC00782F80460C469A460C9E01F1430207D894
:1031DC00622F0AD8002F00F0D380582F00F0BA804D
:1031EC0004F1420684F842703AE0A7F16303152B10
:1031FC00F6D801A151F823F05D32000871320008B5
:10320C00ED310008ED310008ED310008ED3100081A
:10321C0071320008ED310008ED310008ED31000885
:10322C00ED310008733300089B3200082D33000881
:10323C00ED310008ED31000895330008ED31000840
:10324C009B320008ED310008ED31000835330008E1
:10325C0033681A1D1B68326004F1420684F8423050
:10326C0001239EE033682068191D3160060601D5E4
:10327C001D6803E04506FBD5B3F90050002D03DAB9
:10328C002D236D4284F843300A23594811E02168FC
:10329C003368080653F8045B02D4490648BFADB244
:1032AC006F2F336014BF0A2308235148002184F880
:1032BC0043106668002EA8BF2168A660A4BF21F049
:1032CC00040121600DB9002E4BD01646B5FBF3F16D
:1032DC0003FB1157C75D06F8017D2F46BB420D4617
:1032EC00F4D9082B0BD12368DF0708D52369616853
:1032FC009942DEBF302306F8013C06F1FF36921BE3
:10330C0022614B4621464046CDF800A003AAFFF7A8
:10331C00E1FE01304AD14FF0FF3004B0BDE8F08738
:10332C00236843F0200323607827324884F84570E3
:10333C00236831681F0651F8045B02D45F0648BF4E
:10334C00ADB23160D90744BF43F0200323601DB1F7
:10335C001023ABE72648E9E7236823F0200323601A
:10336C00F6E71646BDE733682568181D61693060BD
:10337C002E061B6801D5196002E06806FBD5198082
:10338C00002316462361BCE7336800211A1D326006
:10339C001E686268304600F059F808B1801B606006
:1033AC0063682361002384F84330AAE73246494618
:1033BC0040462369D0470130ADD023689B0713D416
:1033CC00E068039B9842B8BF1846A6E70123324633
:1033DC0049464046D04701309DD00135E3680399FA
:1033EC005B1AAB42F2DCEBE7002504F11906F5E7BA
:1033FC008335000894350008884210B501EB0204AF
:10340C0002D98442234607D8431EA14208D011F8A2
:10341C00012B03F8012FF8E7014602448A4200D140
:10342C0010BD13F8014D02F8014DF7E738B5002334
:10343C00054D044608462B60FDF77EFD431C02D16A
:10344C002B6803B1236038BD54030020034610B52C
:10345C00C9B202449342184601D1002003E004781B
:10346C0001338C42F6D110BD0A44914200F1FF3376
:10347C0000D1704710B511F8014B914203F8014F80
:10348C00F9D110BD2DE9F041804615460C4621B905
:10349C001146BDE8F041FFF739BC2AB9FFF7CCFB68
:1034AC0000242046BDE8F08100F01AF8854206465B
:1034BC0002D8B5EB500FF4D829464046FFF726FC4E
:1034CC0007460028ECD0B5422A46214628BF324692
:1034DC00FFF7CAFF21464046FFF7AEFB3C46E0E74C
:1034EC0051F8043C181F002BBCBF0B58C018704778
:1034FC00F8B500BFF8BC08BC9E467047F8B500BFD5
:08350C00F8BC08BC9E467047A4
:1035140025303664000000002530366C640000005D
:103524004C2E2E202530326C64000000546F7461E0
:103534006C000000257300004337343141303835C6
:10354400324245393633445450244C46000000007E
:103554000000000001020304060708090203040531
:10356400060708090A0B0C0D0E0F10100102232D7B
:10357400302B2000686C4C00656667454647003078
:1035840031323334353637383941424344454600C5
:1035940030313233343536373839616263646566C5
:0435A4000000000023
:0835A800A4CBFF7F010000002D
:0435B00031010008DD
:0435B4000D010008FD
:1035B800C0F9A4B0999282F880900000C77F0000FB
:1035C8003132333435360036353433323100393818
:1035D8003736353400FF00003A7B0F040600000040
:1035E8000024F4001000000001000000400000204A
:1035F800000000001C02002084020020EC020020D1
:1036080000000000000000000000000000000000B2
:1036180000000000000000000000000000000000A2
:103628000000000000000000000000000000000092
:0C36380000000000000000000000000086
:040000050800104D92
:00000001FF
