:020000040800F2
:10000000005000206D290008E1260008E9260008BC
:10001000F1260008F926000801270008000000006A
:100020000000000000000000000000000927000898
:100030001527000800000000212700082D270008D0
:10004000B5290008B5290008B5290008B529000818
:10005000B5290008B5290008B5290008B529000808
:10006000B5290008B5290008B5290008B5290008F8
:10007000B5290008B5290008B5290008B5290008E8
:10008000B5290008B5290008B5290008B5290008D8
:10009000B5290008B5290008B5290008B5290008C8
:1000A000B5290008B5290008B5290008B5290008B8
:1000B00039270008B5290008B5290008B529000826
:1000C000B5290008B5290008B5290008B529000898
:1000D000B5290008B5290008B5290008B529000888
:1000E000B5290008B5290008B5290008000000005E
:1000F0000000000000000000000000000000000000
:0C01000000000000000000005FF808F1A3
:1001100010B5054C237833B9044B13B10448AFF341
:1001200000800123237010BD380200200000000071
:100130000C74000808B5034B1BB103490348AFF327
:10014000008008BD000000003C0200200C74000884
:10015000034613F8012B002AFBD1181A0138704707
:1001600081F0004102E000BF83F0004330B54FEA68
:1001700041044FEA430594EA050F08BF90EA020FD5
:100180001FBF54EA000C55EA020C7FEA645C7FEA68
:10019000655C00F0E2804FEA5454D4EB5555B8BF8B
:1001A0006D420CDD2C4480EA020281EA030382EAFC
:1001B000000083EA010180EA020281EA0303362D8E
:1001C00088BF30BD11F0004F4FEA01314FF4801C61
:1001D0004CEA113102D0404261EB410113F0004F73
:1001E0004FEA03334CEA133302D0524263EB43032A
:1001F00094EA050F00F0A780A4F10104D5F1200EC8
:100200000DDB02FA0EFC22FA05F2801841F1000122
:1002100003FA0EF2801843FA05F359410EE0A5F1F6
:1002200020050EF1200E012A03FA0EFC28BF4CF027
:10023000020C43FA05F3C01851EBE37101F00045DD
:1002400007D54FF0000EDCF1000C7EEB00006EEBEA
:100250000101B1F5801F1BD3B1F5001F0CD3490874
:100260005FEA30004FEA3C0C04F101044FEA4452CB
:1002700012F5800F80F09A80BCF1004F08BF5FEA52
:10028000500C50F1000041EB045141EA050130BD32
:100290005FEA4C0C404141EB0101013C28BFB1F544
:1002A000801FE9D291F0000F04BF01460020B1FA8F
:1002B00081F308BF2033A3F10B03B3F120020CDA62
:1002C0000C3208DD02F1140CC2F10C0201FA0CF040
:1002D00021FA02F10CE002F11402D8BFC2F1200CA5
:1002E00001FA02F120FA0CFCDCBF41EA0C0190405B
:1002F000E41AA2BF01EB0451294330BD6FEA0404A4
:100300001F3C1CDA0C340EDC04F11404C4F120028E
:1003100020FA04F001FA02F340EA030021FA04F3A0
:1003200045EA030130BDC4F10C04C4F1200220FAF7
:1003300002F001FA04F340EA0300294630BD21FA35
:1003400004F0294630BD94F0000F83F4801306BFFB
:1003500081F480110134013D4EE77FEA645C18BFEF
:100360007FEA655C29D094EA050F08BF90EA020F86
:1003700005D054EA000C04BF1946104630BD91EA7E
:10038000030F1EBF0021002030BD5FEA545C05D181
:100390004000494128BF41F0004130BD14F58004C0
:1003A0003CBF01F5801130BD01F0004545F0FE4134
:1003B00041F470014FF0000030BD7FEA645C1ABF69
:1003C000194610467FEA655C1CBF0B46024650EAA0
:1003D000013406BF52EA033591EA030F41F40021CC
:1003E00030BD00BF90F0000F04BF0021704730B552
:1003F0004FF4806404F132044FF000054FF0000127
:1004000050E700BF90F0000F04BF0021704730B5E7
:100410004FF4806404F1320410F0004548BF4042BC
:100420004FF000013EE700BF42004FEAE2014FEA11
:1004300031014FEA02701FBF12F07F4393F07F4FEC
:1004400081F06051704732F07F4208BF704793F0EF
:100450007F4F04BF41F40021704730B54FF4607402
:1004600001F0004521F000411CE700BF50EA010205
:1004700008BF704730B54FF000050AE050EA0102AE
:1004800008BF704730B511F0004502D5404261EB1E
:1004900041014FF4806404F132045FEA915C3FF45F
:1004A000D8AE4FF003025FEADC0C18BF03325FEAFC
:1004B000DC0C18BF033202EBDC02C2F1200300FAAD
:1004C00003FC20FA02F001FA03FE40EA0E0021FAD2
:1004D00002F11444BDE600BF70B54FF0FF0C4CF4C0
:1004E000E06C1CEA11541DBF1CEA135594EA0C0F72
:1004F00095EA0C0F00F0DEF82C4481EA030621EAAD
:100500004C5123EA4C5350EA013518BF52EA0335E7
:1005100041F4801143F4801338D0A0FB02CE4FF099
:100520000005E1FB02E506F00042E0FB03E54FF0C9
:100530000006E1FB03569CF0000F18BF4EF0010EC1
:10054000A4F1FF04B6F5007F64F5407404D25FEABD
:100550004E0E6D4146EB060642EAC62141EA555170
:100560004FEAC52040EA5E504FEACE2EB4F1FD0CB2
:1005700088BFBCF5E06F1ED8BEF1004F08BF5FEA30
:10058000500E50F1000041EB045170BD06F00046E2
:1005900046EA010140EA020081EA0301B4EB5C048F
:1005A000C2BFD4EB0C0541EA045170BD41F4801187
:1005B0004FF0000E013C00F3AB8014F1360FDEBFAC
:1005C000002001F0004170BDC4F10004203C35DA88
:1005D0000C341BDC04F11404C4F1200500FA05F30B
:1005E00020FA04F001FA05F240EA020001F00042AC
:1005F00021F0004110EBD37021FA04F642EB060122
:100600005EEA430E08BF20EAD37070BDC4F10C044B
:10061000C4F1200500FA04F320FA05F001FA04F20F
:1006200040EA020001F0004110EBD37041F10001FB
:100630005EEA430E08BF20EAD37070BDC4F1200506
:1006400000FA05F24EEA020E20FA04F301FA05F26E
:1006500043EA020321FA04F001F0004121FA04F216
:1006600020EA020000EBD3705EEA430E08BF20EAE6
:10067000D37070BD94F0000F0FD101F00046400020
:1006800041EB010111F4801F08BF013CF7D041EAA2
:10069000060195F0000F18BF704703F000465200A6
:1006A00043EB030313F4801F08BF013DF7D043EA77
:1006B0000603704794EA0C0F0CEA135518BF95EA2D
:1006C0000C0F0CD050EA410618BF52EA4306D1D1B4
:1006D00081EA030101F000414FF0000070BD50EAD3
:1006E000410606BF1046194652EA430619D094EA5D
:1006F0000C0F02D150EA013613D195EA0C0F05D147
:1007000052EA03361CBF104619460AD181EA03019A
:1007100001F0004141F0FE4141F470014FF0000052
:1007200070BD41F0FE4141F4780170BD70B54FF0ED
:10073000FF0C4CF4E06C1CEA11541DBF1CEA13556D
:1007400094EA0C0F95EA0C0F00F0A7F8A4EB05044F
:1007500081EA030E52EA03354FEA013100F0888046
:100760004FEA03334FF0805545EA131343EA12630F
:100770004FEA022245EA111545EA10654FEA0026C4
:100780000EF000419D4208BF964244F1FD0404F57D
:10079000407402D25B084FEA3202B61A65EB0305D9
:1007A0005B084FEA32024FF480104FF4002CB6EB96
:1007B000020E75EB030E22BFB61A754640EA0C0016
:1007C0005B084FEA3202B6EB020E75EB030E22BF56
:1007D000B61A754640EA5C005B084FEA3202B6EB97
:1007E000020E75EB030E22BFB61A754640EA9C0056
:1007F0005B084FEA3202B6EB020E75EB030E22BF26
:10080000B61A754640EADC0055EA060E18D04FEAE3
:10081000051545EA16754FEA06164FEAC30343EA83
:1008200052734FEAC2025FEA1C1CC0D111F4801F50
:100830000BD141EA00014FF000004FF0004CB6E749
:1008400011F4801F04BF01430020B4F1FD0C88BFE8
:10085000BCF5E06F3FF6AFAEB5EB030C04BFB6EBF3
:10086000020C5FEA500C50F1000041EB045170BDE6
:100870000EF0004E4EEA113114EB5C04C2BFD4EB13
:100880000C0541EA045170BD41F480114FF0000E97
:10089000013C90E645EA060E8DE60CEA135594EA13
:1008A0000C0F08BF95EA0C0F3FF43BAF94EA0C0F16
:1008B0000AD150EA01347FF434AF95EA0C0F7FF48B
:1008C00025AF104619462CE795EA0C0F06D152EADF
:1008D00003353FF4FDAE1046194622E750EA4106C3
:1008E00018BF52EA43067FF4C5AE50EA41047FF4D4
:1008F0000DAF52EA43057FF4EBAE12E74FF0FF3C39
:1009000006E000BF4FF0010C02E000BF4FF0010C09
:100910004DF804CD4FEA410C7FEA6C5C4FEA430C82
:1009200018BF7FEA6C5C1BD001B050EA410C0CBFD1
:1009300052EA430C91EA030F02BF90EA020F002033
:10094000704710F1000F91EA030F58BF994208BF9A
:1009500090422CBFD8176FEAE37040F00100704757
:100960004FEA410C7FEA6C5C02D150EA013C07D1AE
:100970004FEA430C7FEA6C5CD6D152EA033CD3D0F9
:100980005DF8040B704700BF8446104662468C46F3
:100990001946634600E000BF01B5FFF7B7FF002826
:1009A00048BF10F1000F01BD4DF808EDFFF7F4FF4F
:1009B0000CBF012000205DF808FB00BF4DF808EDDA
:1009C000FFF7EAFF34BF012000205DF808FB00BFFD
:1009D0004DF808EDFFF7E0FF94BF012000205DF81F
:1009E00008FB00BF4DF808EDFFF7CEFF94BF0120D4
:1009F00000205DF808FB00BF4DF808EDFFF7C4FFCD
:100A000034BF012000205DF808FB00BF4FEA410C15
:100A10007FEA6C5C02D150EA013C0AD14FEA430CF8
:100A20007FEA6C5C02D152EA033C02D14FF0000035
:100A300070474FF0010070474FEA410212F5001273
:100A400015D211D56FF47873B3EB625212D94FEA15
:100A5000C12343F0004343EA505311F0004F23FAFF
:100A600002F018BF404270474FF00000704750EA54
:100A7000013005D111F0004008BF6FF00040704711
:100A80004FF00000704700BF4A0011D212F500126B
:100A900011D20DD56FF47873B3EB62520ED44FEAD6
:100AA000C12343F0004343EA505323FA02F0704756
:100AB0004FF00000704750EA013002D14FF0FF3094
:100AC00070474FF00000704780B582B000AF01F072
:100AD000CBFF3860244B1B683A68D31AB3F5FA7F12
:100AE00001D2FF233BE00023FB7134E000224FF4EE
:100AF00070711E4802F06BFAFB79402202FA03F390
:100B00009BB201221946194802F061FA0023BB7119
:100B10001BE0BB79012202FA03F39BB2194613488A
:100B200002F03EFA0346012B0CD10F4A3B681360DA
:100B3000FA79B9790E4813469B00134403440B44D9
:100B40001B780CE0BB790133BB71BB79042BE0D976
:100B5000FB790133FB71FB79032BC7D9FF231846BF
:100B60000837BD4680BD00BF54020020000C014084
:100B7000E074000880B485B000AFF860B9607A60B6
:100B8000FB681B4A934215D8FB681A4AA2FB032351
:100B90009A0CBB681A60FA68164BA3FB02139B0CF5
:100BA000154901FB03F3D31A7A681360134B032230
:100BB0001A6018E0FB68124AA2FB03235A0EBB68B6
:100BC0001A60FA680E4BA3FB02135B0E0D4901FB82
:100BD00003F3D31A0C4AA2FB03235A097B681A6059
:100BE000064B01221A6000BF1437BD4680BC704717
:100BF000FFE0F50583DE1B4340420F005C00002050
:100C0000893BE65500E1F5051F85EB5180B485B0C1
:100C100000AFF860B9607A60FB68144A934215D857
:100C2000FB68134AA2FB03239A0CBB681A60FA689C
:100C30000F4BA3FB02139B0C0E4901FB03F3D31ACA
:100C40007A6813600C4B03221A6009E0BB6800222B
:100C50001A607B6800221A60074B4FF0FF321A605F
:100C600000BF1437BD4680BC704700BFFFC99A3B28
:100C700083DE1B4340420F005C000020B0B500AF94
:100C8000FFF722FF03461A46B64B1A70B54B1B7886
:100C9000FF2B00F08385B34B1B78243B302B00F2F5
:100CA000D48401A252F823F0E31500084B16000883
:100CB0004B1600084B1600084B1600084B16000890
:100CC0004B1600084B1600084B1600084B16000880
:100CD0004B1600084B1600084B1600084B16000870
:100CE0004B1600084B1600084B1600084B16000860
:100CF0004B1600084B1600084B1600084B16000850
:100D00004B1600084B1600084B1600084B1600083F
:100D10004B1600084B1600084B1600086D0D000816
:100D2000150E000877100008D10E00089D1000086D
:100D3000C50F00084B1600084B1600084B1600089C
:100D40004B1600084B160008171600084B16000833
:100D50004B1600084B1600089B1500084B160008A0
:100D60004B1600084B160008BF1500087E4B1B7879
:100D7000002B1CD17D4B1B687D4A13607C4B1B688C
:100D80001846FFF72FFB04460D467A4B1B681846A2
:100D9000FFF728FB02460B4620462946FFF7C6FC14
:100DA00002460B467449C1E9002300F0F7BC6E4BC4
:100DB0001B78132B23D170494FF000026F4BC1E910
:100DC00000236C4B1B681846FFF70CFB6A4BD3E9FA
:100DD0000023FFF781FB02460B4610461946FFF73A
:100DE00053FE0346624A13605F4B00221A70644B45
:100DF00000221A70634B00221A6000F0CFBC5A4BDD
:100E000000221A705E4B00221A705E4B00221A609C
:100E100000F0C4BC544B1B78002B1CD15A4B1B68F0
:100E2000534A1360524B1B681846FFF7DBFA04461F
:100E30000D46504B1B681846FFF7D4FA02460B4686
:100E400020462946FFF772FC02460B464A49C1E993
:100E5000002300F0A3BC444B1B78132B24D146493C
:100E60004FF000024FF08043C1E90023414B1B6863
:100E70001846FFF7B7FA404BD3E90023FFF72CFBE6
:100E800002460B4610461946FFF7FEFD0346384A58
:100E90001360354B00221A70394B00221A70394BFF
:100EA00000221A6000F07ABC2F4B1B78052B04D16E
:100EB0002D4B06221A7000F071BC2B4B00221A70C9
:100EC0002F4B00221A702F4B00221A6000F066BCD4
:100ED000254B1B78002B1CD12C4B1B68244A13601C
:100EE000234B1B681846FFF77DFA04460D46214B3D
:100EF0001B681846FFF776FA02460B46204629463D
:100F0000FFF714FC02460B461B49C1E9002300F021
:100F100045BC154B1B78132B3CD117494FF00002F1
:100F20001B4BC1E90023134B1B681846FFF75AFA05
:100F3000114BD3E90023FFF7CFFA02460B461046C8
:100F40001946FFF7A1FD0346094A1360064B00222C
:100F50001A700B4B00221A700A4B00221A6000F024
:100F60001DBC00BF35000020690200204C0000209D
:100F7000BC03002048000020C00300200000F03F18
:100F80005C02002058020020500000205400002085
:100F9000000014409F4B1B780E2B09D19D4B022261
:100FA0001A709D4B00221A709C4B00221A60F5E3C8
:100FB000984B00221A70984B00221A70974B00220F
:100FC0001A60EBE3934B1B78002B1BD1944B1B68EF
:100FD000944A1360934B1B681846FFF703FA0446C4
:100FE0000D46914B1B681846FFF7FCF902460B466D
:100FF00020462946FFF79AFB02460B468B49C1E97A
:101000000023CBE3834B1B78132B22D187494FF06E
:101010000002874BC1E90023834B1B681846FFF78A
:10102000E1F9824BD3E90023FFF756FA02460B465B
:1010300010461946FFF728FD03467A4A1360754BA0
:1010400000221A70744B00221A70744B00221A602E
:10105000A4E3704B1B780E2B03D16E4B12221A7037
:101060009CE36C4B00221A706B4B00221A706B4B86
:1010700000221A6092E300236E4A07216E4804F0B2
:101080007BF800236B4A07216C4804F075F80123B4
:10109000684A07216A4804F06FF87FE35D4B1B78CC
:1010A000002B03D15B4B01221A7077E3594B1B785D
:1010B000142B24D1594B1B685A4A1360594B1B6897
:1010C0001846FFF78FF904460D46574B1B68184624
:1010D000FFF788F902460B4620462946FFF726FB14
:1010E00002460B465149C1E900234A4B00221A70BF
:1010F000494B00221A70494B00221A604EE3454BBF
:101100001B78132B26D1454B1B681846FFF76AF94D
:1011100002460B464549C1E90023434B1B6818466C
:10112000FFF760F9414BD3E90023FFF7D5F90246F9
:101130000B4610461946FFF7A7FC0346394A1360D1
:10114000344B00221A70344B00221A70334B0022A9
:101150001A6023E32F4B1B78082B0FD12F4B1A68F3
:10116000384B1B689A4209D12A4B09221A702A4B24
:1011700000221A70294B00221A600DE2254B1B78C1
:10118000082B0ED1254B1B682F4A934209D1214BC6
:101190000A221A70204B00221A70204B00221A607B
:1011A000FAE11C4B1B78082B0ED11C4B1B68274AFD
:1011B000934209D1174B0B221A70174B00221A7059
:1011C000164B00221A60E7E1124B1B78082B0ED158
:1011D000124B1B681E4A934209D10E4B0C221A7007
:1011E0000D4B00221A700D4B00221A60D4E1094BFE
:1011F0001B78082B30D1094B1B68164A93422BD120
:10120000044B0D221A70044B00221A70034B00226B
:101210001A60C1E1690200205C020020580200202F
:1012200058000020BC03002048000020C00300201C
:10123000000024402874000820000020270000201F
:101240002E0000203800002007310F0008310F0069
:1012500009310F000A310F009B4B1B780A2B0DD16F
:101260009A4B1B689A4A1360974B00221A70994B4D
:1012700000221A70954B00221A608FE2924B1B7865
:101280000B2B0DD1914B1B68934A13608E4B0022A0
:101290001A70904B00221A708C4B00221A607DE26B
:1012A000894B1B780C2B0DD1884B1B688B4A136024
:1012B000854B00221A70874B00221A70834B002244
:1012C0001A606BE2804B1B780D2B0DD17F4B1B6896
:1012D000834A13607C4B00221A707E4B00221A70E6
:1012E0007A4B00221A6059E2774B1B78062B0FD1FC
:1012F000764B1A687B4B1B689A4209D1724B0722C6
:101300001A70744B00221A70704B00221A6043E16D
:101310006D4B1B78072B7DD16C4B1B68022B66D065
:10132000022B6CD8002B02D0012B30D067E06E4B23
:101330001A686E4BA3FB02131B09322101FB03F356
:10134000D31A182B0FD8684B1968674B1A68674B6C
:10135000A3FB02031B09322000FB03F3D31ACB1AB1
:10136000634A13600FE0604B19685F4B1A685F4B6C
:10137000A3FB02031B09322000FB03F3D31ACB1A91
:1013800032335B4A13605B4B00221A7038E0564BD5
:101390001A68564BA3FB02135B09642101FB03F39C
:1013A000D31A312B0FD8504B19684F4B1A684F4B3B
:1013B000A3FB02035B09642000FB03F3D31ACB1ADF
:1013C0004B4A13600FE0484B1968474B1A68474B6C
:1013D000A3FB02035B09642000FB03F3D31ACB1ABF
:1013E0006433434A1360434B01221A7008E03E4BBA
:1013F0001B683F4A13603F4B02221A7000E000BF97
:10140000314B00221A70334B00221A702F4B0022EE
:101410001A60C3E12C4B1B78092B40F08D802B4BBD
:101420001B68314A1360334B1B78002B02D0012B11
:101430002DD072E02C4B1A682C4BA3FB02131B0916
:10144000322101FB03F3D31A182B0FD8264B19684E
:10145000254B1A68254BA3FB02031B09322000FB16
:1014600003F3D31ACB1A224A13605BE01E4B1968B0
:101470001D4B1A681D4BA3FB02031B09322000FB06
:1014800003F3D31ACB1A3233194A13604AE0164BCE
:101490001A68164BA3FB02135B09642101FB03F3DB
:1014A000D31A312B28D8104B19680F4B1A680F4BE1
:1014B000A3FB02035B09642000FB03F3D31ACB1ADE
:1014C0000B4A13602EE000BF690200205802002082
:1014D0004C0000205C02002050000020540000203E
:1014E0005800002038000020440000201F85EB51E8
:1014F0004800002068020020934B1968924B1A683C
:10150000924BA3FB02035B09642000FB03F3D31A95
:10151000CB1A64338E4A136004E08B4B1B688C4AF1
:10152000136000BF8B4B00221A708B4B00221A7085
:101530008A4B00221A6031E1864B1B78022B0FD1B7
:10154000864B1A68864B1B689A4209D1814B03224D
:101550001A70814B00221A70804B00221A601BE027
:101560007C4B1B78032B0DD17C4B1B687C4A136092
:10157000784B00221A70784B00221A70774B0022A9
:101580001A600BE1734B00221A70734B00221A7021
:10159000724B00221A6001E100E16E4B1B78002BB8
:1015A00003D16C4B05221A70F8E06A4B00221A70C6
:1015B000694B00221A70694B00221A60EEE0654BFD
:1015C0001B78002B03D1634B0E221A70E6E0614BAF
:1015D00000221A70604B00221A70604B00221A60C1
:1015E000DCE05C4B1B78002B03D15A4B14221A70A1
:1015F000D4E0584B1B780E2B03D1564B10221A7097
:10160000CCE0544B00221A70534B00221A70534BFB
:1016100000221A60C2E04F4B1B78002B03D14D4BC8
:1016200013221A70BAE04B4B1B780E2B03D1494B97
:101630000F221A70B2E0474B00221A70464B00226C
:101640001A70464B00221A60A8E0464B1B782F2BDD
:1016500040F29880434B1B78392B00F293803D4B2E
:101660001B78052B0CD13B4B08221A703D4B1B7885
:10167000303B1A46394B1A60374B01221A708BE007
:10168000344B1B78082B2BD0324B1B78062B27D0E2
:10169000304B1B78092B23D02E4B1B780A2B1FD0E5
:1016A0002C4B1B780B2B1BD02A4B1B780C2B17D0E9
:1016B000284B1B780D2B13D0264B1B78022B0FD0F9
:1016C000244B1B78032B0BD0224B1B78042B07D009
:1016D000204B1B78142B03D01E4B1B78132B17D1D8
:1016E0001D4B1B78052B4CD81C4B1A6813469B00CE
:1016F00013445B001A461B4B1B781344303B174ABC
:101700001360154B1B780133DAB2134B1A7038E0B3
:10171000104B1B78072B27D10F4B1B78002B3BD18D
:101720000E4B1A6813469B0013445B001A460D4B80
:101730001B781344303B094A1360074B1B78013375
:10174000DAB2054B1A7027E0440000201F85EB51E8
:1017500048000020690200205C020020580200209E
:1017600038000020350000200F4B04221A700F4B68
:101770001B78303B1A460E4B1A600E4B01221A7032
:101780000AE009E0084B00221A700A4B00221A7086
:10179000074B00221A6000E000BF00BF034BFF228E
:1017A0001A7000BFB0BD00BF6902002035000020E4
:1017B000580200205C02002080B58EB002AFAC4B16
:1017C0001B78142B00F2A18201A252F823F000BF73
:1017D00025180008571800087D180008BB180008D5
:1017E000631C0008F91800081F19000845190008B3
:1017F00065190008231A00088B190008B1190008A0
:10180000D7190008FD190008491A00087F1B0008B5
:10181000E11A0008171C00083D1C0008D71C00082E
:10182000A31C0008934B1B68934A0721934803F0BD
:10183000A3FC934B1B68904A0721924803F09CFC41
:10184000914BD3E90023CDE90023904A072190482A
:1018500003F092FC6CE28F4A0721884803F08CFC6D
:101860008D4B1B68844A0721864803F085FC0023C2
:101870008A4A0721864803F07FFC59E2884B1B689F
:1018800007F120007C4A072103F076FC07F12003D2
:10189000844A0721794803F06FFC834A072179487D
:1018A00003F06AFC00237D4A0721794803F064FCB9
:1018B0007E4B4FF0FF321A603AE2794B1B6807F11A
:1018C00020006D4A072103F057FC07F12003754AF9
:1018D00007216A4803F050FC0023704A0721694839
:1018E00003F04AFC724A0721694803F045FC6F4B3C
:1018F0004FF0FF321A601BE2694B1B685E4A0721FA
:101900005E4803F039FC0023644A07215D4803F078
:1019100033FC684A07215E4803F02EFC08E2604B66
:101920001B68554A0721554803F026FC00235B4AF3
:101930000721544803F020FC5F4A0721544803F074
:101940001BFCF5E15D4A07214C4803F015FC5C4A9D
:1019500007214C4803F010FC5A4A07214C4803F079
:101960000BFCE5E14E4B1B68434A0721434803F05B
:1019700003FC0023494A0721424803F0FDFB524A79
:101980000721434803F0F8FBD2E1454B1B683A4A74
:1019900007213A4803F0F0FB0023404A0721394869
:1019A00003F0EAFB494A0721394803F0E5FBBFE1B0
:1019B0003B4B1B68304A0721304803F0DDFB002316
:1019C000364A07212F4803F0D7FB414A0721304808
:1019D00003F0D2FBACE1324B1B68274A07212748B2
:1019E00003F0CAFB00232D4A0721264803F0C4FB5D
:1019F000384A0721264803F0BFFB99E1284B1B68B2
:101A00001D4A07211D4803F0B7FB0023234A072185
:101A10001C4803F0B1FB304A07211D4803F0ACFB22
:101A200086E11F4B1B68144A0721144803F0A4FBEE
:101A300000231A4A0721134803F09EFB154A072189
:101A4000134803F099FB73E10023144A07210B4864
:101A500003F092FB0023114A07210A4803F08CFB94
:101A60001E4B0E4A07210A4803F086FB60E100BFC7
:101A700069020020B8030020307400082000002014
:101A8000BC03002027000020C00300203874000899
:101A90002E00002040740008480000202874000830
:101AA00058020020487400084C7400085C000020B4
:101AB000547400085C740008647400086C740008B6
:101AC000747400087C740008847400088C74000826
:101AD000947400089C740008A47400083F420F002E
:101AE000954B1B68954A96491846FFF78FF8944B1B
:101AF0001B6807F11800934A072103F03DFB904B48
:101B00001A68914BA3FB02135B0B42F2107101FBAD
:101B100003F3D31A07F110008C4A082103F02CFBC1
:101B20000023FB621BE007F110031846FEF710FBD1
:101B30000246FB6A9A420AD907F11002FB6A134473
:101B40001978834AFB6A13440A461A7004E0804AF3
:101B5000FB6A134420221A70FB6A0133FB62FB6AA2
:101B6000052BE0DD754B1B68764A0721794803F0A9
:101B700003FB794A0721794803F0FEFAD8E0784B55
:101B80001B686E4A6E491846FEF7F4FF6C4B1B68E3
:101B900007F108006B4A072103F0EEFA684B1A6858
:101BA000694BA3FB02135B0B42F2107101FB03F3C1
:101BB000D31A38466B4A082103F0DEFA0023BB62D1
:101BC00019E03B461846FEF7C3FA0246BB6A9A4242
:101BD00009D93A46BB6A134419785D4ABB6A134473
:101BE0000A461A7004E05A4ABB6A134420221A704B
:101BF000BB6A0133BB62BB6A052BE2DD4F4B1B683E
:101C0000504A0721534803F0B7FA574A072153486F
:101C100003F0B2FA8CE0554B554A07214C4803F0CB
:101C2000ABFA0023524A07214A4803F0A5FA0023E1
:101C30004F4A0721494803F09FFA79E04D4B4C4A3F
:101C40000721434803F098FA0023494A07214148F5
:101C500003F092FA0023464A0721404803F08CFA29
:101C600066E0454B1B6807F12000364A072103F068
:101C700083FA07F12003414A0721354803F07CFA33
:101C800000233B4A0721334803F076FA0023384A01
:101C90000721324803F070FA394B4FF0FF321A60D7
:101CA00046E0354B1B6807F12000264A072103F068
:101CB00063FA07F12003314A0721254803F05CFA53
:101CC000304A0721234803F057FA2F4A07212348B7
:101CD00003F052FA2CE0284B1B6807F12000194A48
:101CE000072103F049FA07F12003244A0721184885
:101CF00003F042FA234A0721164803F03DFA234A2B
:101D00000721164803F038FA12E00023184A072189
:101D10000F4803F031FA0023154A07210D4803F05C
:101D20002BFA0023124A07210C4803F025FA00BFC2
:101D300000BF3037BD4680BD400000206402002057
:101D400060020020307400085917B7D1AC74000845
:101D50002000002027000020B87400082E0000207A
:101D60003C000020C0740008C87400081516050067
:101D7000287400081CC80600580200204874000897
:101D80005C000020D074000840740008D87400087B
:101D900080B483B000AF0346FB71FB792F2B07D9CA
:101DA000FB79392B04D8FB79303B374AD35C66E0AA
:101DB000FB794C2B02D1354B1B7860E0FB792E2B45
:101DC00002D1324B5B785AE0FB79542B02D12F4B76
:101DD0009B7854E0FB794F2B02D12C4BDB784EE003
:101DE000FB79412B02D1294B1B7948E0FB79532B1E
:101DF00002D1264B5B7942E0FB79482B02D1234B81
:101E00009B793CE0FB79492B02D1204BDB7936E012
:101E1000FB79462B02D11D4B1B7A30E0FB79472B17
:101E200002D11A4B5B7A2AE0FB79502B02D1174B77
:101E30009B7A24E0FB79432B02D1144BDB7A1EE022
:101E4000FB79452B02D1114B1B7B18E0FB79552BFD
:101E500002D10E4B5B7B12E0FB794E2B02D10B4B78
:101E60009B7B0CE0FB79522B02D1084BDB7B06E01D
:101E7000FB79442B02D1054B1B7C00E0FF23184665
:101E80000C37BD4680BC7047000000200C000020CD
:101E900080B584B000AF78600B46FB700023FB6018
:101EA00035E0FA681346DB009B1A7A68134418463B
:101EB000FEF74EF90346BB60FB78052B1FD8FB7875
:101EC000BA689A4215DDFA681346DB009B1A7A68F5
:101ED0001A44BB68591EFB78CB1AD35C1846FFF72F
:101EE00057FF034619460E4AFB6813440A461A7008
:101EF0000AE00B4AFB681344FF221A7004E0084A08
:101F0000FB681344FF221A70FB680133FB60FB6817
:101F1000022BC6DD024B18461037BD4680BD00BF00
:101F20007402002080B584B000AF78600B46FB706F
:101F3000FB7819467868FFF7ABFFB860FB78052B94
:101F400020D801A252F823F0611F0008671F000883
:101F50006D1F0008731F0008791F00087F1F00080D
:101F60002023FB7311E01023FB730EE00823FB73A7
:101F70000BE00423FB7308E00223FB7305E001235D
:101F8000FB7302E00123FB7300BF224B1B68002B95
:101F90002CDB204B1B68052B28DCFA781D4B1B68BB
:101FA0009A4213D11C4AFB7B1370BB689A781A4B78
:101FB0005A70BB6801331B7803F07F03DAB2164B0B
:101FC0009A70BB681A78144BDA701FE0124AFB7BD8
:101FD0001370BB689A78104B5A70BB685A780E4BD6
:101FE0009A70BB681A780C4BDA700FE00A4AFB7BD8
:101FF0001370BB689A78084B5A70BB685A78064BC6
:102000009A70BB681A78044BDA7000BF00BF1037B3
:10201000BD4680BD5C0000206C02002080B500AF92
:102020000E4B1B78DBB219460D48FFF77BFF0421EE
:102030000C4800F01BF8094B1B78DBB25A1C0A4B0A
:1020400083FB0231D317C91A0B465B000B445B00BC
:10205000D11ACAB2014B1A7000BF80BD6A020020BB
:10206000200000206C020020ABAAAA2A80B582B012
:1020700000AF7860396000224FF480410A4800F0D8
:10208000A6FF3B689AB24FF496737968074801F04F
:1020900019FC01224FF48041034800F098FF00BF73
:1020A0000837BD4680BD00BF000C0140D0020020B3
:1020B00080B500AF00F080FC00F03EF800F08CF935
:1020C00000F0ACF800F03CF900F072F800F0DCF839
:1020D000154801F031FE6421002000F0FFFB64216F
:1020E000012000F0FBFB6421022000F0F7FBFEF76B
:1020F000C5FD0E4B1B68012B0AD1FFF78FFF0C4B60
:102100001B685B6A0B4A13600521002000F0E6FBA8
:10211000064B5B68012BEAD1FFF74EFB0A21012039
:1021200000F0DCFBE3E700BF70030020F4030020B5
:1021300028030020B803002080B590B000AF07F15D
:10214000180328220021184603F08DF83B1D0022B9
:102150001A605A609A60DA601A610223BB61012337
:10216000BB621023FB6200237B6307F11803184650
:1021700000F046FF0346002B01D000F0A7F90F2323
:102180007B600023BB600023FB6000233B610023D6
:102190007B613B1D0021184601F0B4F90346002B7A
:1021A00001D000F093F900BF4037BD4680BD00006C
:1021B00080B500AF174B184A1A60164B4FF4827265
:1021C0005A60144B00229A60124B0022DA60114BC5
:1021D00000221A610F4B00225A610E4B4FF400721D
:1021E0009A610C4B0022DA610A4B00221A62094BF9
:1021F00000225A62074B00229A62064B0A22DA62D8
:10220000044801F0DBFA0346002B01D000F05EF930
:1022100000BF80BD780200200030014080B500AFD3
:10222000174B184A1A60164B4FF482725A60144BBF
:1022300000229A60124B0022DA60114B00221A61D0
:102240000F4B00225A610E4B4FF400729A610C4BF7
:102250000022DA610A4B00221A62094B00225A62FC
:10226000074B00229A62064B0A22DA62044801F008
:10227000A5FA0346002B01D000F028F900BF80BD6D
:10228000D00200200038004080B58CB000AF07F1CC
:102290000C0324220021184602F0E5FF3B1D00221A
:1022A0001A605A60244B254A1A60234B3F225A6019
:1022B000214B00229A60204B4FF6FF72DA601E4BD2
:1022C00000221A611C4B00225A611B4B00229A61AA
:1022D0000323FB6000233B6101237B610023BB617F
:1022E0000023FB6100233B6201237B620023BB626E
:1022F0000023FB6207F10C0319460F4801F06EFD45
:102300000346002B01D000F0E1F800237B6000239E
:10231000BB603B1D1946084802F0A0F90346002B9C
:1023200001D000F0D3F83C21034801F0F9FD00BFD3
:102330003037BD4680BD00BF28030020002C01407F
:1023400080B586B000AF07F1080300221A605A601A
:102350009A60DA603B4600221A605A601D4B4FF0CB
:1023600080421A601B4B41F63F725A60194B0022A3
:102370009A60184B0922DA60164B00221A61154B3D
:1023800000229A61134801F087FC0346002B01D01C
:1023900000F09CF84FF48053BB6007F10803194626
:1023A0000C4801F053FF0346002B01D000F08EF8DB
:1023B00000233B6000237B603B461946054802F042
:1023C0004DF90346002B01D000F080F800BF18370C
:1023D000BD4680BD7003002080B586B000AF07F118
:1023E000080300221A605A609A60DA602F4B9B69DA
:1023F0002E4A43F0040393612C4B9B6903F00403C2
:102400007B607B68294B9B69284A43F008039361F2
:10241000264B9B6903F008033B603B680022442184
:10242000234800F0D4FD002244F2C031214800F0DE
:10243000CEFD4423BB600123FB6000233B610223EC
:102440007B6107F108031946194800F025FC1F239A
:10245000BB600023FB6002233B6107F108031946C0
:10246000144800F019FC4FF48043BB600123FB606B
:1024700000233B6103237B6107F1080319460D48E4
:1024800000F00AFC4FF47073BB600123FB60002373
:102490003B6102237B6107F108031946054800F000
:1024A000FBFB00BF1837BD4680BD00BF00100240D7
:1024B00000080140000C014080B582B000AF786098
:1024C00000F024FA00BF0837BD4680BD80B400AFDD
:1024D00072B600BF00BFFDE780B485B000AF154BFA
:1024E0009B69144A43F001039361124B9B6903F00B
:1024F0000103BB60BB680F4BDB690E4A43F080539E
:10250000D3610C4BDB6903F080537B607B680A4B23
:102510005B68FB60FB6823F0E063FB60FB6843F0F3
:102520000073FB60044AFB68536000BF1437BD466C
:1025300080BC7047001002400000014080B58AB0A6
:1025400000AF786007F1180300221A605A609A60A1
:10255000DA607B681B682B4A934224D12A4B9B6923
:10256000294A43F480539361274B9B6903F48053BA
:102570007B617B69244B9B69234A43F0040393618D
:10258000214B9B6903F004033B613B69A023BB61C2
:102590000223FB6103237B6207F1180319461B48E2
:1025A00000F07AFB29E07B681B68194A934224D12A
:1025B000154BDB69144A43F48043D361124BDB694A
:1025C00003F48043FB60FB680F4B9B690E4A43F0AA
:1025D000080393610C4B9B6903F00803BB60BB6865
:1025E0004FF42043BB610223FB6103237B6207F1AD
:1025F00018031946074800F04FFB00BF2837BD46B7
:1026000080BD00BF003001400010024000080140C2
:1026100000380040000C014080B588B000AF786001
:1026200007F1100300221A605A609A60DA607B6832
:102630001B68164A934224D1154B9B69144A43F4F4
:1026400000639361124B9B6903F40063FB60FB68BA
:102650000F4B9B690E4A43F0040393610C4B9B693B
:1026600003F00403BB60BB684FF440733B6100237D
:102670007B610223BB6107F110031946054800F096
:102680000BFB00BF2037BD4680BD00BF002C0140C2
:10269000001002400008014080B584B000AF7860AF
:1026A0007B681B68B3F1804F13D10C4BDB690B4A7D
:1026B00043F00103D361094BDB6903F00103FB60C5
:1026C000FB68002201211C2000F0AFFA1C2000F062
:1026D000C8FA00BF1037BD4680BD00BF00100240E1
:1026E00080B400AF00BFFDE780B400AF00BFFDE7DE
:1026F00080B400AF00BFFDE780B400AF00BFFDE7CE
:1027000080B400AF00BFFDE780B400AF00BFBD469E
:1027100080BC704780B400AF00BFBD4680BC70472E
:1027200080B400AF00BFBD4680BC704780B500AF2D
:1027300000F088F900BF80BD80B500AF024801F00D
:102740007DFC00BF80BD00BF7003002080B400AFDF
:1027500001231846BD4680BC704780B582B000AFEB
:102760007860396002F0D2FD034616221A604FF0FD
:10277000FF3318460837BD4680BD80B582B000AF34
:1027800078604FF0FF317868FFF7E7FF00BFFDE7A3
:1027900080B586B000AFF860B9607A6000237B61D5
:1027A0000AE0AFF300800146BB685A1CBA60CAB2A7
:1027B0001A707B6901337B617A697B689A42F0DB2E
:1027C0007B6818461837BD4680BD80B586B000AF1F
:1027D000F860B9607A6000237B6109E0BB685A1C2D
:1027E000BA601B781846AFF300807B6901337B61C8
:1027F0007A697B689A42F1DB7B6818461837BD46D8
:1028000080BD80B483B000AF78604FF0FF331846CE
:102810000C37BD4680BC704780B483B000AF786091
:1028200039603B684FF400525A60002318460C3759
:10283000BD4680BC704780B483B000AF7860012390
:1028400018460C37BD4680BC704780B485B000AFD9
:10285000F860B9607A60002318461437BD4680BC22
:102860007047000080B586B000AF7860144A154B01
:10287000D31A7B617B693B61134B1B68002B02D130
:10288000114B124A1A60104B1A687B6813443A695C
:102890009A4207D202F03AFD03460C221A604FF02A
:1028A000FF3309E0084B1B68FB60074B1A687B6825
:1028B0001344054A1360FB6818461837BD4680BDAF
:1028C0000050002000040000C80300207005002014
:1028D00080B400AF00BFBD4680BC704780B483B0F9
:1028E00000AF7860396007497B683A6841F8232077
:1028F000054A7B68002142F8231000BF0C37BD4613
:1029000080BC7047CC030020F403002080B483B067
:1029100000AF00237B601CE0124A7B6852F8233032
:10292000002B13DD0F4A7B6852F823305A1E0D49E5
:102930007B6841F823200B4A7B6852F82330002B38
:1029400004DC094A7B68012142F823107B680133CB
:102950007B607B68092BDFDD00BF00BF0C37BD4605
:1029600080BC7047CC030020F4030020FFF7B0FFC9
:102970000B480C490C4A002302E0D458C4500433DD
:10298000C4188C42F9D3094A094C002301E01360B2
:102990000432A242FBD302F0BFFCFFF789FB704771
:1029A000000000203402002098780008380200203F
:1029B0006C050020FEE7000080B500AF084B1B68E7
:1029C000074A43F010031360032000F023F90F209F
:1029D00000F008F8FFF780FD0023184680BD00BF17
:1029E0000020024080B582B000AF7860124B1A68B8
:1029F000124B1B7819464FF47A73B3FBF1F3B2FB19
:102A0000F3F3184600F03BF90346002B01D00123F5
:102A10000EE07B680F2B0AD8002279684FF0FF3058
:102A200000F003F9064A7B681360002300E00123ED
:102A300018460837BD4680BD6000002068000020B1
:102A40006400002080B400AF054B1B781A46054B8C
:102A50001B681344034A136000BFBD4680BC704727
:102A6000680000201C04002080B400AF024B1B68EB
:102A70001846BD4680BC70471C04002080B485B059
:102A800000AF78607B6803F00703FB600C4BDB68EA
:102A9000BB60BA684FF6FF031340BB60FB681A02C5
:102AA000BB68134343F0BF6343F40033BB60044A85
:102AB000BB68D36000BF1437BD4680BC704700BF01
:102AC00000ED00E080B400AF044BDB681B0A03F0AC
:102AD00007031846BD4680BC704700BF00ED00E00C
:102AE00080B483B000AF0346FB7197F90730002B29
:102AF0000BDBFB7903F01F02064997F907305B09EE
:102B0000012000FA02F241F8232000BF0C37BD4635
:102B100080BC704700E100E080B483B000AF0346A2
:102B20003960FB7197F90730002B0ADB3B68DAB29A
:102B30000C4997F907301201D2B20B4483F80023F5
:102B40000AE03B68DAB20849FB7903F00F03043B63
:102B50001201D2B20B441A7600BF0C37BD4680BCBE
:102B6000704700BF00E100E000ED00E080B489B0F4
:102B700000AFF860B9607A60FB6803F00703FB619F
:102B8000FB69C3F10703042B28BF0423BB61FB6966
:102B90000433062B02D9FB69033B00E000237B6171
:102BA0004FF0FF32BB6902FA03F3DA43BB681A4005
:102BB0007B699A404FF0FF317B6901FA03F3D943F7
:102BC0007B680B40134318462437BD4680BC7047D2
:102BD00080B582B000AF78607B68013BB3F1807F45
:102BE00001D301230FE00A4A7B68013B53600F21A8
:102BF0004FF0FF30FFF790FF054B00229A60044B27
:102C000007221A60002318460837BD4680BD00BF62
:102C100010E000E080B582B000AF78607868FFF720
:102C20002DFF00BF0837BD4680BD80B586B000AF20
:102C30000346B9607A60FB7300237B61FFF742FFB4
:102C400078617A68B9687869FFF790FF024697F96A
:102C50000F3011461846FFF75FFF00BF1837BD461B
:102C600080BD80B582B000AF0346FB7197F9073095
:102C70001846FFF735FF00BF0837BD4680BD80B559
:102C800082B000AF78607868FFF7A2FF034618466D
:102C90000837BD4680BD000080B48BB000AF7860BF
:102CA000396000237B6200233B6269E101227B6A79
:102CB00002FA03F3FB613B681B68FA691340BB61CE
:102CC000BA69FB699A4240F058813B685B689A4A4E
:102CD00093425ED0984A934275D8984A934258D00E
:102CE000964A93426FD8964A934252D0944A93425E
:102CF00069D8944A93424CD0924A934263D8924AFC
:102D0000934246D0904A93425DD8122B2AD8122B78
:102D100059D801A252F823F0932D00086D2D000818
:102D20007F2D0008C12D0008C72D0008C72D000801
:102D3000C72D0008C72D0008C72D0008C72D0008A3
:102D4000C72D0008C72D0008C72D0008C72D000893
:102D5000C72D0008C72D0008C72D0008752D0008D5
:102D6000892D0008794A934213D02CE03B68DB6838
:102D70003B6229E03B68DB6804333B6224E03B684C
:102D8000DB6808333B621FE03B68DB680C333B6267
:102D90001AE03B689B68002B02D104233B6213E0DE
:102DA0003B689B68012B05D108233B627B68FA696D
:102DB0001A6109E008233B627B68FA695A6103E003
:102DC00000233B6200E000BFBB69FF2B01D87B689A
:102DD00001E07B6804337B61BB69FF2B02D87B6A0F
:102DE0009B0002E07B6A083B9B003B617B691A68A1
:102DF0000F213B6901FA03F3DB431A40396A3B694F
:102E000001FA03F31A437B691A603B685B6803F0BD
:102E10008053002B00F0B1804D4B9B694C4A43F02E
:102E2000010393614A4B9B6903F00103BB60BB68DC
:102E3000484A7B6A9B08023352F82330FB607B6A66
:102E400003F003039B000F2202FA03F3DB43FA684B
:102E50001340FB607B68404A934213D07B683F4A33
:102E600093420DD07B683E4A934207D07B683D4A2F
:102E7000934201D1032306E0042304E0022302E08D
:102E8000012300E000237A6A02F0030292009340DB
:102E9000FA681343FB602F497B6A9B080233FA6888
:102EA00041F823203B685B6803F48013002B06D0B5
:102EB0002D4B9A682C49BB6913438B6006E02A4B63
:102EC0009A68BB69DB43284913408B603B685B68A9
:102ED00003F40013002B06D0234BDA682249BB69A8
:102EE0001343CB6006E0204BDA68BB69DB431E4925
:102EF0001340CB603B685B6803F40033002B06D0C3
:102F0000194B5A681849BB6913434B6006E0164BCE
:102F10005A68BB69DB43144913404B603B685B68EC
:102F200003F48033002B21D00F4B1A680E49BB6984
:102F300013430B6021E000BF00003210000031108D
:102F400000002210000021100000121000001110DB
:102F5000001002400000014000080140000C014048
:102F60000010014000140140000401400B4B1A689E
:102F7000BB69DB43094913400B607B6A01337B6209
:102F80003B681A687B6A22FA03F3002B7FF48EAE4B
:102F900000BF00BF2C37BD4680BC70470004014015
:102FA00080B485B000AF78600B467B807B689A6800
:102FB0007B881340002B02D00123FB7301E0002328
:102FC000FB73FB7B18461437BD4680BC704780B44A
:102FD00083B000AF78600B467B8013467B707B78B4
:102FE000002B03D07A887B681A6103E07B881A047F
:102FF0007B681A6100BF0C37BD4680BC704700007B
:1030000080B586B000AF78607B68002B01D10123CA
:1030100072E27B681B6803F00103002B00F08780DD
:10302000924B5B6803F00C03042B0CD08F4B5B6856
:1030300003F00C03082B12D18C4B5B6803F4803334
:10304000B3F5803F0BD1894B1B6803F40033002B91
:103050006CD07B685B68002B68D101234CE27B68F5
:103060005B68B3F5803F06D1804B1B687F4A43F411
:10307000803313602EE07B685B68002B0CD17B4BA8
:103080001B687A4A23F480331360784B1B68774AB5
:1030900023F4802313601DE07B685B68B3F5A02FE9
:1030A0000CD1724B1B68714A43F4802313606F4B41
:1030B0001B686E4A43F4803313600BE06B4B1B6854
:1030C0006A4A23F480331360684B1B68674A23F411
:1030D000802313607B685B68002B13D0FFF7C4FC70
:1030E000386108E0FFF7C0FC02463B69D31A642B45
:1030F00001D9032300E25D4B1B6803F40033002B6E
:10310000F0D014E0FFF7B0FC386108E0FFF7ACFC4A
:1031100002463B69D31A642B01D90323ECE1534BDC
:103120001B6803F40033002BF0D100E000BF7B6884
:103130001B6803F00203002B63D04C4B5B6803F069
:103140000C03002B0BD0494B5B6803F00C03082BDE
:103150001CD1464B5B6803F48033002B16D1434BE4
:103160001B6803F00203002B05D07B681B69012B51
:1031700001D00123C0E13D4B1B6823F0F8027B68BE
:103180005B69DB00394913430B603AE07B681B69DC
:10319000002B20D0364B01221A60FFF765FC386106
:1031A00008E0FFF761FC02463B69D31A022B01D904
:1031B0000323A1E12D4B1B6803F00203002BF0D089
:1031C0002A4B1B6823F0F8027B685B69DB00274908
:1031D00013430B6015E0264B00221A60FFF744FCF6
:1031E000386108E0FFF740FC02463B69D31A022B26
:1031F00001D9032380E11D4B1B6803F00203002B60
:10320000F0D17B681B6803F00803002B3AD07B6881
:103210009B69002B19D0174B01221A60FFF724FC81
:10322000386108E0FFF720FC02463B69D31A022B05
:1032300001D9032360E10D4B5B6A03F00203002B0D
:10324000F0D0012000F09CFA1CE00A4B00221A602A
:10325000FFF70AFC38610FE0FFF706FC02463B6906
:10326000D31A022B08D9032346E100BF0010024005
:103270000000424280044242924B5B6A03F0020328
:10328000002BE9D17B681B6803F00403002B00F0DE
:10329000A6800023FB758B4BDB6903F08053002B6A
:1032A0000DD1884BDB69874A43F08053D361854B4E
:1032B000DB6903F08053BB60BB680123FB75824B65
:1032C0001B6803F48073002B18D17F4B1B687E4A68
:1032D00043F480731360FFF7C7FB386108E0FFF722
:1032E000C3FB02463B69D31A642B01D9032303E1D4
:1032F000754B1B6803F48073002BF0D07B68DB6890
:10330000012B06D16F4B1B6A6E4A43F00103136217
:103310002DE07B68DB68002B0CD16A4B1B6A694A85
:1033200023F001031362674B1B6A664A23F0040310
:1033300013621CE07B68DB68052B0CD1614B1B6AB8
:10334000604A43F0040313625E4B1B6A5D4A43F01C
:10335000010313620BE05B4B1B6A5A4A23F0010323
:103360001362584B1B6A574A23F0040313627B68AD
:10337000DB68002B15D0FFF777FB38610AE0FFF719
:1033800073FB02463B69D31A41F28832934201D95A
:103390000323B1E04B4B1B6A03F00203002BEED07A
:1033A00014E0FFF761FB38610AE0FFF75DFB0246BE
:1033B0003B69D31A41F28832934201D903239BE03F
:1033C000404B1B6A03F00203002BEED1FB7D012B67
:1033D00005D13C4BDB693B4A23F08053D3617B68CA
:1033E000DB69002B00F08780364B5B6803F00C0331
:1033F000082B61D07B68DB69022B46D1334B00225E
:103400001A60FFF731FB386108E0FFF72DFB024639
:103410003B69D31A022B01D903236DE0294B1B68AA
:1034200003F00073002BF0D17B681B6AB3F5803F7B
:1034300008D1244B5B6823F400327B689B682149E8
:1034400013434B601F4B5B6823F474127B68196A4B
:103450007B685B6A0B431B4913434B601B4B012288
:103460001A60FFF701FB386108E0FFF7FDFA02463A
:103470003B69D31A022B01D903233DE0114B1B6892
:1034800003F00073002BF0D035E0104B00221A60DF
:10349000FFF7EAFA386108E0FFF7E6FA02463B690F
:1034A000D31A022B01D9032326E0064B1B6803F035
:1034B0000073002BF0D11EE07B68DB69012B07D184
:1034C000012319E0001002400070004060004242F9
:1034D0000B4B5B68FB60FB6803F480327B681B6A04
:1034E0009A4206D1FB6803F470127B685B6A9A42C9
:1034F00001D0012300E0002318461837BD4680BDE7
:103500000010024080B584B000AF786039607B68FD
:10351000002B01D10123D0E06A4B1B6803F00703A5
:103520003A689A4210D9674B1B6823F00702654935
:103530003B6813430B60634B1B6803F007033A6857
:103540009A4201D00123B8E07B681B6803F00203B4
:10355000002B20D07B681B6803F00403002B05D0F0
:10356000594B5B68584A43F4E06353607B681B68BF
:1035700003F00803002B05D0534B5B68524A43F419
:1035800060535360504B5B6823F0F0027B689B688C
:103590004D4913434B607B681B6803F00103002B0C
:1035A00040D07B685B68012B07D1474B1B6803F455
:1035B0000033002B15D101237FE07B685B68022B71
:1035C00007D1414B1B6803F00073002B09D1012385
:1035D00073E03D4B1B6803F00203002B01D1012374
:1035E0006BE0394B5B6823F003027B685B6836490C
:1035F00013434B60FFF738FAF8600AE0FFF734FA3C
:103600000246FB68D31A41F28832934201D9032360
:1036100053E02D4B5B6803F00C027B685B689B00FA
:103620009A42EBD1274B1B6803F007033A689A4292
:1036300010D2244B1B6823F0070222493B68134336
:103640000B60204B1B6803F007033A689A4201D0D5
:10365000012332E07B681B6803F00403002B08D0D1
:10366000194B5B6823F4E0627B68DB6816491343FF
:103670004B607B681B6803F00803002B09D0124BDA
:103680005B6823F460527B681B69DB000E491343BF
:103690004B6000F021F802460B4B5B681B0903F0FE
:1036A0000F030A49CB5C22FA03F3094A1360094B62
:1036B0001B681846FFF796F9002318461037BD46D9
:1036C00080BD00BF0020024000100240F4740008DA
:1036D000600000206400002080B487B000AF0023A9
:1036E000FB600023BB6000237B6100237B60002321
:1036F0003B611E4B5B68FB60FB6803F00C03042B13
:1037000002D0082B03D027E0194B3B6127E0FB6870
:103710009B0C03F00F03174AD35C7B60FB6803F438
:103720008033002B10D0114B5B685B0C03F001035E
:10373000114AD35CBB607B680D4A03FB02F2BB6895
:10374000B2FBF3F37B6104E07B680C4A02FB03F3FA
:103750007B617B693B6102E0054B3B6100BF3B69DC
:1037600018461C37BD4680BC704700BF00100240A1
:1037700000127A00047500081475000800093D0065
:1037800080B485B000AF78600A4B1B680A4AA2FB80
:1037900003235B0A7A6802FB03F3FB6000BFFB684C
:1037A0005A1EFA60002BF9D100BF00BF1437BD4686
:1037B00080BC704760000020D34D621080B582B09D
:1037C00000AF78607B68002B01D1012376E07B6835
:1037D0005B6A002B08D17B685B68B3F5827F09D0F8
:1037E0007B680022DA6105E07B6800221A617B6851
:1037F00000225A617B6800229A627B6893F85130FC
:10380000DBB2002B06D17B68002283F85020786859
:10381000FEF794FE7B68022283F851207B681B68C8
:103820001A687B681B6822F040021A607B685B683C
:1038300003F482727B689B6803F404431A437B6839
:10384000DB6803F400631A437B681B6903F002031F
:103850001A437B685B6903F001031A437B689B6929
:1038600003F400731A437B68DB6903F038031A43DF
:103870007B681B6A03F0800342EA03017B689B6A52
:1038800003F400527B681B680A431A607B689B69DB
:103890001A0C7B681B6802F004025A607B681B6884
:1038A000DA697B681B6822F40062DA617B680022B7
:1038B0005A657B68012283F8512000231846083797
:1038C000BD4680BD80B588B000AFF860B9603B6090
:1038D0001346FB800023FB77FB6893F85030012BE5
:1038E00001D102232DE1FB68012283F85020FFF76C
:1038F000BBF8B861FB88FB82FB6893F85130DBB200
:10390000012B02D00223FB7716E1BB68002B02D00B
:10391000FB88002B02D10123FB770DE1FB6803221A
:1039200083F85120FB6800225A65FB68BA681A6365
:10393000FB68FA889A86FB68FA88DA86FB680022B8
:103940009A63FB6800229A87FB680022DA87FB688B
:1039500000225A64FB6800221A64FB689B68B3F576
:10396000004F0FD1FB681B681A68FB681B6822F0C8
:1039700040021A60FB681B681A68FB681B6842F407
:1039800080421A60FB681B681B6803F04003402BF1
:1039900007D0FB681B681A68FB681B6842F040028E
:1039A0001A60FB68DB68B3F5006F4FD1FB685B689A
:1039B000002B02D0FB8A012B42D1FB681B6B1A88BB
:1039C000FB681B68DA60FB681B6B9A1CFB681A6358
:1039D000FB68DB8E9BB2013B9AB2FB68DA862FE074
:1039E000FB681B689B6803F00203022B12D1FB6883
:1039F0001B6B1A88FB681B68DA60FB681B6B9A1CE0
:103A0000FB681A63FB68DB8E9BB2013B9AB2FB68D2
:103A1000DA8615E0FFF728F80246BB69D31A3A6840
:103A20009A4203D83B68B3F1FF3F02D13B68002BB9
:103A300006D10323FB77FB68012283F851207BE04A
:103A4000FB68DB8E9BB2002BCAD150E0FB685B6841
:103A5000002B02D0FB8A012B44D1FB681A6BFB6858
:103A60001B680C3312781A70FB681B6B5A1CFB68BE
:103A70001A63FB68DB8E9BB2013B9AB2FB68DA8665
:103A800030E0FB681B689B6803F00203022B13D134
:103A9000FB681A6BFB681B680C3312781A70FB68A2
:103AA0001B6B5A1CFB681A63FB68DB8E9BB2013BE5
:103AB0009AB2FB68DA8615E0FEF7D6FF0246BB69CC
:103AC000D31A3A689A4203D83B68B3F1FF3F02D158
:103AD0003B68002B06D10323FB77FB68012283F8A8
:103AE000512029E0FB68DB8E9BB2002BC9D1BA695B
:103AF0003968F86800F0B2F80346002B02D0FB6882
:103B000020225A65FB689B68002B0AD100233B6189
:103B1000FB681B68DB683B61FB681B689B683B615B
:103B20003B69FB685B6D002B02D00123FB7703E050
:103B3000FB68012283F85120FB68002283F85020A3
:103B4000FB7F18462037BD4680BD000080B588B099
:103B500000AFF860B9603B601346FB71FEF784FF6D
:103B60000246BB6A9B1A3A681344FB61FEF77CFF6E
:103B7000B861394B1B685B011B0DFA6902FB03F34B
:103B80007B6154E03B68B3F1FF3F50D0FEF76CFF20
:103B90000246BB69D31AFA699A4202D9FB69002B23
:103BA0003DD1FB681B685A68FB681B6822F0E00285
:103BB0005A60FB685B68B3F5827F11D1FB689B6834
:103BC000B3F5004F04D0FB689B68B3F5806F07D155
:103BD000FB681B681A68FB681B6822F040021A60C9
:103BE000FB689B6AB3F5005F0FD1FB681B681A681E
:103BF000FB681B6822F400521A60FB681B681A6895
:103C0000FB681B6842F400521A60FB68012283F8CB
:103C10005120FB68002283F85020032317E07B69C2
:103C2000002B01D10023FB617B69013B7B61FB68B9
:103C30001B689A68BB681340BA689A420CBF01239C
:103C40000023DBB21A46FB799A429BD10023184627
:103C50002037BD4680BD00BF6000002080B586B023
:103C600002AFF860B9607A607B680093BB6800229D
:103C70008021F868FFF76AFF0346002B07D0FB6836
:103C80005B6D43F02002FB685A65032300E00023CC
:103C900018461037BD4680BD80B582B000AF786051
:103CA0007B68002B01D1012341E07B6893F83D3014
:103CB000DBB2002B06D17B68002283F83C207868B9
:103CC000FEF7EAFC7B68022283F83D207B681A68D5
:103CD0007B6804331946104600F0A4FB7B68012280
:103CE00083F846207B68012283F83E207B6801220E
:103CF00083F83F207B68012283F840207B68012203
:103D000083F841207B68012283F842207B680122EE
:103D100083F843207B68012283F844207B680122DA
:103D200083F845207B68012283F83D200023184654
:103D30000837BD4680BD000080B485B000AF786014
:103D40007B6893F83D30DBB2012B01D001233AE0D0
:103D50007B68022283F83D207B681B68DA687B68F9
:103D60001B6842F00102DA607B681B68184A9342C4
:103D70000ED07B681B68B3F1804F09D07B681B684D
:103D8000144A934204D07B681B68134A934211D1B2
:103D90007B681B689B6803F00703FB60FB68062BCE
:103DA00010D07B681B681A687B681B6842F00102B0
:103DB0001A6007E07B681B681A687B681B6842F022
:103DC00001021A60002318461437BD4680BC7047B4
:103DD000002C0140000400400008004080B586B07F
:103DE00000AF786039607B68002B01D1012393E03C
:103DF0007B6893F83D30DBB2002B06D17B68002254
:103E000083F83C207868FEF707FC7B68022283F881
:103E10003D207B681B689B687A68126823F48043A6
:103E200023F0070393607B681A687B6804331946A4
:103E3000104600F0F7FA7B681B689B687B617B6823
:103E40001B689B693B617B681B681B6AFB603B6866
:103E50001B687A6913437B613B6923F4407323F049
:103E600003033B613B689A683B689B691B021343F1
:103E70003A6913433B613B6923F4406323F00C032D
:103E80003B613B6923F4704323F0F0033B613B68E3
:103E9000DA683B68DB691B0213433A6913433B61F1
:103EA0003B681B691A013B681B6A1B0313433A6991
:103EB00013433B61FB6823F02203FB603B685A68B5
:103EC0003B685B691B011343FA681343FB607B6823
:103ED0001B687A699A607B681B683A699A617B689B
:103EE0001B68FA681A627B68012283F846207B68A7
:103EF000012283F83E207B68012283F83F207B6803
:103F0000012283F842207B68012283F843207B68EA
:103F1000012283F83D20002318461837BD4680BD96
:103F200080B584B000AF786039607B6893F83E302C
:103F3000FB737B6893F83F30BB737B6893F8423028
:103F40007B737B6893F843303B733B68002B10D145
:103F5000FB7B012B02D17B7B012B01D0012369E08C
:103F60007B68022283F83E207B68022283F842208D
:103F700031E03B68042B10D1BB7B012B02D13B7B92
:103F8000012B01D0012355E07B68022283F83F20FA
:103F90007B68022283F843201DE0FB7B012B08D1C4
:103FA000BB7B012B05D17B7B012B02D13B7B012B02
:103FB00001D001233EE07B68022283F83E207B682B
:103FC000022283F83F207B68022283F842207B682C
:103FD000022283F843203B68002B03D03B68042B6C
:103FE00008D00FE07B681B6801220021184600F012
:103FF00011FB16E07B681B6801220421184600F0C3
:1040000009FB0EE07B681B6801220021184600F0C6
:1040100001FB7B681B6801220421184600F0FAFAB4
:1040200000BF7B681B681A687B681B6842F001024E
:104030001A60002318461037BD4680BD80B582B097
:1040400000AF78607B681B681B6903F00203022BDA
:1040500022D17B681B68DB6803F00203022B1BD1B3
:104060007B681B686FF002021A617B6801221A7775
:104070007B681B689B6903F00303002B03D07868FF
:1040800000F0B4F905E0786800F0A7F9786800F06E
:10409000B6F97B6800221A777B681B681B6903F0FE
:1040A0000403042B22D17B681B68DB6803F0040344
:1040B000042B1BD17B681B686FF004021A617B68BC
:1040C00002221A777B681B689B6903F44073002BFC
:1040D00003D0786800F08AF905E0786800F07DF98F
:1040E000786800F08CF97B6800221A777B681B687F
:1040F0001B6903F00803082B22D17B681B68DB686F
:1041000003F00803082B1BD17B681B686FF00802C3
:104110001A617B6804221A777B681B68DB6903F0ED
:104120000303002B03D0786800F060F905E078689D
:1041300000F053F9786800F062F97B6800221A7782
:104140007B681B681B6903F01003102B22D17B686E
:104150001B68DB6803F01003102B1BD17B681B6806
:104160006FF010021A617B6808221A777B681B685F
:10417000DB6903F44073002B03D0786800F036F954
:1041800005E0786800F029F9786800F038F97B6874
:1041900000221A777B681B681B6903F00103012B5F
:1041A0000ED17B681B68DB6803F00103012B07D18C
:1041B0007B681B686FF001021A617868FEF77CF972
:1041C0007B681B681B6903F08003802B0ED17B6822
:1041D0001B68DB6803F08003802B07D17B681B68BA
:1041E0006FF080021A61786800F09FFA7B681B68A4
:1041F0001B6903F04003402B0ED17B681B68DB6812
:1042000003F04003402B07D17B681B686FF040022E
:104210001A61786800F0FCF87B681B681B6903F082
:104220002003202B0ED17B681B68DB6803F0200382
:10423000202B07D17B681B686FF020021A61786819
:1042400000F06AFA00BF0837BD4680BD80B584B073
:1042500000AF786039600023FB737B6893F83C30D3
:10426000012B01D10223B4E07B68012283F83C20BA
:104270007B68022283F83D207B681B689B68BB60DB
:10428000BB6823F07703BB60BB6823F47F43BB604C
:104290007B681B68BA689A603B681B68B3F5005F6F
:1042A0003ED0B3F5005F00F28780B3F5805F00F089
:1042B0008680B3F5805F7FD8702B1AD0702B7BD8A7
:1042C000602B50D0602B77D8502B3CD0502B73D81C
:1042D000402B58D0402B6FD8302B64D0302B6BD86C
:1042E000202B60D0202B67D8002B5CD0102B5AD00D
:1042F00062E07B6818683B6899683B685A683B686D
:10430000DB6800F068F97B681B689B68BB60BB6872
:1043100043F07703BB607B681B68BA689A604FE024
:104320007B6818683B6899683B685A683B68DB683B
:1043300000F051F97B681B689A687B681B6842F43F
:1043400080429A603CE07B6818683B6859683B682B
:10435000DB681A4600F0C8F87B681B6850211846D5
:1043600000F01FF92CE07B6818683B6859683B68CF
:10437000DB681A4600F0E6F87B681B686021184687
:1043800000F00FF91CE07B6818683B6859683B68CF
:10439000DB681A4600F0A8F87B681B6840211846C5
:1043A00000F0FFF80CE07B681A683B681B68194650
:1043B000104600F0F6F803E00123FB7300E000BFB5
:1043C0007B68012283F83D207B68002283F83C2033
:1043D000FB7B18461037BD4680BD80B483B000AF6C
:1043E000786000BF0C37BD4680BC704780B483B096
:1043F00000AF786000BF0C37BD4680BC704780B40A
:1044000083B000AF786000BF0C37BD4680BC7047FA
:1044100080B483B000AF786000BF0C37BD4680BC6D
:104420007047000080B485B000AF786039607B6869
:104430001B68FB607B68294A93420BD07B68B3F111
:10444000804F07D07B68264A934203D07B68254A79
:10445000934208D1FB6823F07003FB603B685B6804
:10446000FA681343FB607B681C4A93420BD07B685D
:10447000B3F1804F07D07B68194A934203D07B6821
:10448000184A934208D1FB6823F44073FB603B68F1
:10449000DB68FA681343FB60FB6823F080023B682B
:1044A0005B691343FB607B68FA681A603B689A6833
:1044B0007B68DA623B681A687B689A627B68074AA5
:1044C000934203D13B681A697B681A637B680122B7
:1044D0005A6100BF1437BD4680BC7047002C0140B4
:1044E000000400400008004080B487B000AFF860CE
:1044F000B9607A60FB681B6A7B61FB681B6A23F00A
:104500000102FB681A62FB689B693B613B6923F00F
:10451000F0033B617B681B013A6913433B617B6994
:1045200023F00A037B617A69BB6813437B61FB68F4
:104530003A699A61FB687A691A6200BF1C37BD4606
:1045400080BC704780B487B000AFF860B9607A6013
:10455000FB681B6A7B61FB681B6A23F01002FB6827
:104560001A62FB689B693B613B6923F470433B61C2
:104570007B681B033A6913433B617B6923F0A0030B
:104580007B61BB681B017A6913437B61FB683A69F5
:104590009A61FB687A691A6200BF1C37BD4680BC0D
:1045A000704780B485B000AF786039607B689B68E5
:1045B000FB60FB6823F07003FB603A68FB68134301
:1045C00043F00703FB607B68FA689A6000BF14370A
:1045D000BD4680BC704780B487B000AFF860B9605A
:1045E0007A603B60FB689B687B617B6923F47F4357
:1045F0007B613B681A027B681A43BB6813437A6984
:1046000013437B61FB687A699A6000BF1C37BD4623
:1046100080BC704780B487B000AFF860B9607A6042
:10462000BB6803F01F03012202FA03F37B61FB68FE
:104630001A6A7B69DB431A40FB681A62FB681A6AD4
:10464000BB6803F01F03796801FA03F31A43FB68A0
:104650001A6200BF1C37BD4680BC704780B485B06D
:1046600000AF786039607B6893F83C30012B01D152
:10467000022346E07B68012283F83C207B6802220B
:1046800083F83D207B681B685B68FB607B681B6868
:104690009B68BB60FB6823F07003FB603B681B6892
:1046A000FA681343FB607B681B68FA685A607B6892
:1046B0001B68164A93420ED07B681B68B3F1804F8B
:1046C00009D07B681B68124A934204D07B681B6840
:1046D000104A93420CD1BB6823F08003BB603B6857
:1046E0005B68BA681343BB607B681B68BA689A60F2
:1046F0007B68012283F83D207B68002283F83C2000
:10470000002318461437BD4680BC7047002C01407A
:10471000000400400008004080B483B000AF78601F
:1047200000BF0C37BD4680BC704780B483B000AF7B
:10473000786000BF0C37BD4680BC7047002B2DE968
:10474000F0471D46BBBF03F100431D4600232D2348
:1047500088B01446B8BF1446129A109E1370149B6A
:10476000DDF84CA023F02008B8F1460F05D0B8F1D1
:10477000450F00D10136022300E0032307AA04926B
:1047800006AACDE902A2CDE9003622462B4600F06A
:1047900083FEB8F1470F074619D1119BDB070ED5F1
:1047A00000EB06090022002320462946FCF7FCF80E
:1047B00008B1CDF81C903022079B4B451ED33846DC
:1047C000079B159ADB1B136008B0BDE8F087B8F1B2
:1047D000460F00EB0609E5D10378302B0AD1002201
:1047E000002320462946FCF7DFF818B9C6F1010678
:1047F000CAF80060DAF800309944D3E7591C0791F1
:104800001A70D9E7F7B50029B6BF2D232B234942EB
:1048100009290270437029DD0DF107031D460A279F
:10482000B1FBF7F61A4607FB1614303402F8014CB8
:104830000C46632C314603F1FF33F1DC3031941E1A
:1048400003F8011C2346411CAB420AD30DF10903B6
:104850009B1AAC4288BF002302330344181A03B0EA
:10486000F0BD13F8016B01F8016FEDE73023303133
:104870008370C170031DF1E72DE9F04F91B00C4634
:10488000DDF8688016461F46054600F0F5FC036813
:1048900018460893FBF75CFC00230E93D8F8003011
:1048A0000990073323F0070303F1080294F818A0D6
:1048B000D4F800B0C8F80020D3E9008929F00043FB
:1048C0000B93CDF828804FF0FF32DDE90A01C4E9EF
:1048D00012899C4BFCF79AF870BBDDE90A014FF096
:1048E000FF32984BFCF774F830BB0022002340469F
:1048F0004946FCF763F810B12D2384F84330924AFF
:10490000924BBAF1470F94BF9046984603234FF05D
:10491000000923612BF00403236033462146284617
:1049200000970FAA00F0D4F9013040F090804FF0CA
:10493000FF3011B0BDE8F08F42464B464046494635
:10494000FCF764F848B14B46002BB8BF2D23804AD2
:10495000B8BF84F843307F4BD3E763680AF0DF01C8
:104960005A1C3FD10623636000224BF4806323600E
:1049700006920EAACDE904A20DAA03920DF133020C
:10498000CDE9013263684246009328464B460A91BE
:10499000FFF7D4FE0A99804647290D9928D1C81CF3
:1049A00002DB6368994240DDAAF1020A5FFA8AFAE3
:1049B0005246013904F150000D91FFF723FF0E9A82
:1049C00081461318012A236102DC2268D20701D52F
:1049D000013323619DF83330002B9ED02D2384F8C2
:1049E00043309AE74729BFD1002BBDD10123BAE755
:1049F000BAF1650FDCD9BAF1660F18D100296368E6
:104A00000BDD216113B92268D00702D501330B44B5
:104A100023614FF00009A165DCE713B92268D207D2
:104A200001D50233F4E70123F2E74FF0670A0E9B4A
:104A3000994205DB23682161D807EAD54B1CE7E7DB
:104A40000029CCBF0122C1F102021344E0E7236830
:104A50005A0507D42369424631462846B8470130F3
:104A60002BD164E7BAF1650F40F2DC80D4E9120182
:104A700000220023FBF798FF002833D001233146A2
:104A80002846354AB84701303FF451AFDDE90D38CB
:104A9000434502DB2368D8070FD5DDE908233146FB
:104AA0002846B84701303FF442AF4FF0000908F103
:104AB000FF3804F11A0AC84509DC23689B0700F196
:104AC0000281E0680F9B9842B8BF184631E7012386
:104AD000524631462846B84701303FF428AF09F125
:104AE0000109E8E70D9B002B38DC012331462846FD
:104AF000194AB84701303FF41AAFDDE90D3959EAD8
:104B0000030302D12368D907D7D5DDE9082331464D
:104B10002846B84701303FF40AAF4FF0000A04F1CD
:104B20001A0B0D9B5B42534501DC4B4693E7012377
:104B30005A4631462846B84701303FF4F8AE0AF1EC
:104B4000010AEEE7FFFFEF7F167500081A750008EF
:104B50001E7500082275000826750008A36DDDF893
:104B600038A05345A8BF5346002B994636DC4FF07A
:104B7000000B29EAE97904F11A02A36D0A93A3EB69
:104B800009035B4531DC0D9B9A453ADC2368DA0763
:104B900037D40D9BAAEB03090A9BAAEB03039945A3
:104BA000A8BF9946B9F1000F33DC4FF0000829EA9D
:104BB000E97904F11A0B0D9BAAEB0303A3EB09039C
:104BC00043457FF77AAF01235A4631462846B84716
:104BD00001303FF4ACAE08F10108ECE74246314643
:104BE0002846B8470130C2D1A1E601233146284604
:104BF0000A92B84701303FF49AAE0A9A0BF1010BC2
:104C0000BBE73146DDE908232846B8470130C0D16B
:104C10008DE60A9A4B46314628464244B847013051
:104C2000C3D184E6DDF838A0BAF1010F01DCDB075F
:104C300036D50123424631462846B84701303FF475
:104C400076AEDDE9082331462846B84701303FF407
:104C50006EAED4E91201002200230AF1FF3AFBF7FD
:104C6000A3FEC0B9534608F1010231462846B847B1
:104C700001300CD15BE601235A4631462846B8473D
:104C800001303FF454AE08F10108D045F3DB4B4648
:104C900004F15002E0E64FF0000804F11A0BF4E7CB
:104CA00001234246E1E701234A4631462846B847F8
:104CB00001303FF43CAE08F10108E3680F995B1A3C
:104CC0004345F0DCFDE64FF0000804F11909F4E774
:104CD0002DE9F047164698468A680B6907469342C5
:104CE000B8BF1346336091F843200C46DDF820909E
:104CF0000AB1013333602368990642BF3368023337
:104D00003360256815F0060506D104F1190AE36839
:104D100032689B1AAB422BDC94F843302268003B8C
:104D200018BF0123920630D44146384604F14302AD
:104D3000C847013023D02368226903F00603042BFF
:104D400014BF002533684FF0000608BFE56804F182
:104D50001A0408BFED1A54F8123C08BF25EAE5759D
:104D60009342C4BF9B1AED18B5421AD1002008E047
:104D70000123524641463846C847013003D14FF01F
:104D8000FF30BDE8F0870135C1E73020E11881F838
:104D900043005A1C94F845102244023382F8431011
:104DA000C2E70123224641463846C8470130E6D0D3
:104DB0000136D9E72DE9FF470F7E9146782F8046CF
:104DC0000C469A460C9E01F1430207D8622F0AD87E
:104DD000002F00F0D380582F00F0BA8004F1420673
:104DE00084F842703AE0A7F16303152BF6D801A1CD
:104DF00051F823F04D4E0008614E0008DD4D0008CB
:104E0000DD4D0008DD4D0008DD4D0008614E000855
:104E1000DD4D0008DD4D0008DD4D0008DD4D0008CA
:104E2000634F00088B4E00081D4F0008DD4D000841
:104E3000DD4D0008854F0008DD4D00088B4E000851
:104E4000DD4D0008DD4D0008254F000833681A1DB0
:104E50001B68326004F1420684F8423001239EE070
:104E600033682068191D3160060601D51D6803E00E
:104E70004506FBD5B3F90050002D03DA2D236D4212
:104E800084F843300A23594811E021683368080642
:104E900053F8045B02D4490648BFADB26F2F3360AC
:104EA00014BF0A2308235148002184F84310666880
:104EB000002EA8BF2168A660A4BF21F004012160D4
:104EC0000DB9002E4BD01646B5FBF3F103FB11577D
:104ED000C75D06F8017D2F46BB420D46F4D9082B6D
:104EE0000BD12368DF0708D5236961689942DEBFCB
:104EF000302306F8013C06F1FF36921B22614B4637
:104F000021464046CDF800A003AAFFF7E1FE01309C
:104F10004AD14FF0FF3004B0BDE8F087236843F07A
:104F2000200323607827324884F84570236831686D
:104F30001F0651F8045B02D45F0648BFADB2316072
:104F4000D90744BF43F0200323601DB11023ABE712
:104F50002648E9E7236823F020032360F6E7164696
:104F6000BDE733682568181D616930602E061B682F
:104F700001D5196002E06806FBD5198000231646AA
:104F80002361BCE7336800211A1D32601E68626825
:104F9000304600F0E8F908B1801B60606368236167
:104FA000002384F84330AAE7324649464046236945
:104FB000D0470130ADD023689B0713D4E068039B32
:104FC0009842B8BF1846A6E70123324649464046F4
:104FD000D04701309DD00135E36803995B1AAB429D
:104FE000F2DCEBE7002504F11906F5E72875000867
:104FF00039750008002310B50446C0E90033C0E944
:105000000433836081814366C2818361194608222B
:105010005C3000F028F90D4B246263620C4BA362F4
:105020000C4BE3620C4B23630C4B9C4206D003F108
:105030006802944202D0D0339C4205D104F158005A
:10504000BDE8104000F08CB910BD00BFE151000870
:10505000035200083B5200085F5200082004002061
:10506000024A0349034800F069B800BF6C00002001
:10507000D56C00087C00002041680C4B10B59942AB
:10508000044601D001F026FEA168094B994202D0E6
:10509000204601F01FFEE168064B994204D02046ED
:1050A000BDE8104001F016BE10BD00BF2004002076
:1050B00088040020F004002010B50B4B0B4C0C4A68
:1050C00020461A6004210022FFF794FF04F16800D3
:1050D00001220921FFF78EFF04F1D0000222BDE872
:1050E00010401221FFF786BF580500202004002041
:1050F00061500008014800F034B900BF610500208C
:10510000014800F02FB900BF6105002010B504462A
:10511000FFF7F0FF236A1BB1BDE81040FFF7F0BFB7
:10512000044B2362044B1B68002BF5D1FFF7C4FF2F
:10513000F2E700BF79500008580500202DE9F84338
:105140000746884614460026D4E90195B9F10109BD
:1051500005D52468002CF7D13046BDE8F883AB892B
:10516000012B07D9B5F90E30013303D02946384653
:10517000C04706436835E9E70CB430B5174B0C1E41
:105180001D689DB008DA8B234FF0FF302B601DB0F7
:10519000BDE8304002B070474FF40273ADF81430F0
:1051A0000CBF234604F1FF33049307934FF6FF73BC
:1051B00002900690ADF81630284621AB209A02A93D
:1051C000019301F00BFC431CBCBF8B232B60002C14
:1051D000DDD00022029B1A70D9E700BF78000020C2
:1051E00010B50C46B1F90E1000F06CF80028ABBFFA
:1051F000636DA3891B1823F48053ACBF6365A3813F
:1052000010BD2DE9F0411F468B890546DB050C4694
:10521000164605D502230022B1F90E1000F040F821
:10522000A389324623F48053A38128463B46B4F930
:105230000E10BDE8F04100F057B810B50C46B1F9BA
:105240000E1000F02DF8431CA38915BF606523F4F0
:10525000805343F48053A38118BFA38110BDB1F9DB
:105260000E1000F00DB803460244934200D170477F
:1052700003F8011BF9E7000000487047B80100205F
:1052800038B50023054D044608462B60FDF7B9FAF2
:10529000431C02D12B6803B1236038BD5C0500209C
:1052A00038B50446084611460022054D2A601A46C4
:1052B000FDF7CBFA431C02D12B6803B1236038BD44
:1052C0005C05002038B50446084611460022054D0D
:1052D0002A601A46FDF75CFA431C02D12B6803B121
:1052E000236038BD5C05002038B5044608461146E9
:1052F0000022054D2A601A46FDF767FA431C02D1C9
:105300002B6803B1236038BD5C050020014B186891
:10531000704700BF7800002070B500260C4D0D4C82
:10532000641BA410A64209D102F070F800260A4DB1
:105330000A4C641BA410A64205D170BD55F8043B6D
:1053400098470136EEE755F8043B98470136F2E7F7
:105350009078000890780008907800089478000809
:10536000704770477047034610B5C9B20244934274
:10537000184601D1002003E0047801338C42F6D1B5
:1053800010BD2DE9F74F03690C690746A3427EDB88
:10539000013CA30000F1140501F11408009305EB92
:1053A0008403019358F8243055F8242001339A429D
:1053B000B2FBF3F608EB84092ED34FF0000AC44683
:1053C000AE46D3465CF8043B98B206FB00A01B0C2B
:1053D000020C06FB0323DEF8002080B292B2121A00
:1053E0005A44DEF800004FEA134A9BB2C3EB224353
:1053F00003EB104392B242EA0342E1454FEA234BEA
:105400004EF8042BDED2009BEB582BB9019B043BDA
:105410009D421A462FD33C61384601F07BF90028A3
:1054200025DB2946002058F8042BD1F800C01FFACC
:1054300082FE1FFA8CF3A3EB0E030344120CC2EBA3
:10544000234202EB1C429BB243EA0243C1454FEAAE
:10545000224041F8043BE6D255F8242005EB8403B2
:1054600022B9043B9D421A460BD33C6101363046BB
:1054700003B0BDE8F08F1268043B002ACBD1013C99
:10548000C6E71268043B002AEFD1013CEAE700209E
:10549000EEE70000000000002DE9F04F14461D4625
:1054A000C76997B08346CDE90245239E7FB9102096
:1054B00000F002FE0246CBF81C0020B9EF21A84BF9
:1054C000A84801F067FCC0E901770760C760DBF816
:1054D0001C30196859B15A68012393404A608B60A7
:1054E000584600F0DFFE0022DBF81C301A602B1E4D
:1054F000AFBF0023012223F000430393A8BF336012
:10550000DDF80C80984BB8BF326033EA080312D143
:1055100042F20F73229A1360C8F31303234300F07F
:105520005085249BDFF844A2002B00F052850AF13D
:10553000030300F04CBDDDE90223CDE90C23DDE9D6
:105540000C0100220023FBF72FFA074658B1012374
:10555000229A1360249B13B1854B249A1360DFF8C1
:1055600014A200F036BD14AB019315AB009358465E
:10557000DDE90C2301F07EF9C8F30A568146002EBE
:1055800077D0DDE90C010D9BA6F2FF36C3F31303C0
:1055900043F07F5343F44013129719460022764B91
:1055A000FAF7E2FD68A3D3E90023FAF795FF68A3B1
:1055B000D3E90023FAF7DAFD044630460D46FAF740
:1055C00021FF65A3D3E90023FAF786FF02460B46C5
:1055D00020462946FAF7CAFD04460D46FBF72CFA89
:1055E00000220746002320462946FBF7E7F940B191
:1055F0003846FAF707FF22462B46FBF7D5F900B9E4
:10560000013F162F53D8DDE90C015C4B03EBC703B8
:10561000D3E90023FBF7D2F900284AD00023013F49
:105620000F93149B9B1B5A1E46BFC3F10108002316
:105630004FF00008099248BF0993002F3BDB099BFC
:105640000E973B44099300230A93209B092B66D8AD
:10565000052BC4BF043B2093209BC8BF0024A3F1AB
:105660000203D8BF0124032B64D8DFE803F02B38F2
:105670003656DDE914631E4406F23243202BC1BFC7
:10568000C3F1400308FA03F806F2124324FA03F3C5
:10569000D6BFC3F1200348EA030004FA03F0FAF787
:1056A000A1FE0122A1F1F873013E129275E70123D8
:1056B000B6E70F90B5E77B420A930023A8EB0708F3
:1056C0000E93C2E700230B93219B002B35DC0123B3
:1056D0001A46CDE9073321920BE00123F3E70023BB
:1056E0000B93219BFB1808930133012B0793B8BF41
:1056F000012300210422DBF81C0002F114059D4265
:105700001FD94160584600F08DFD8246002839D1EE
:10571000024640F2AF111A4BD2E60123E0E7012422
:1057200000230B9420934FF0FF330022CDE9073381
:105730001223D0E701230B93F5E7219BCDE9073333
:10574000D7E701315200D8E761436F63A787D23FA3
:10575000B3C8608B288AC63FFB799F501344D33F60
:10576000577500086E7500080000F07F537500083B
:1057700027750008267500080000F83F68760008C5
:10578000C6750008DBF81C301860079B0E2B00F272
:10579000A480002C00F0A180002F33DD864B07F0A1
:1057A0000F0203EBC203F805D3E90034CDE904345A
:1057B0004FEA271416D5DDE90C01804B0326D3E907
:1057C0000823FAF7B3FFCDE9020104F00F047B4D83
:1057D00054B9DDE90423DDE90201FAF7A7FFCDE9B9
:1057E000020128E00226F2E7E10708D5DDE904011D
:1057F000D5E90023FAF770FECDE904010136641003
:105800000835E5E700F0D280DDE90C017C426A4B07
:1058100004F00F0203EBC203D3E90023FAF75CFEA6
:1058200002260023CDE90201644D2411002C40F032
:10583000B280002BD3D1DDE902450F9B002B00F095
:10584000B7800022204629465D4BFBF7B7F80028B9
:1058500000F0AE80079B002B00F0AA80089B002B75
:1058600037DD7B1E2046049300222946554BFAF76C
:1058700033FECDE90201089C01363046FAF7C2FD3D
:10588000DDE90223FAF728FE00224F4BFAF76EFCFF
:105890000546A1F15076002C40F09A80DDE9020126
:1058A00000224A4BFAF760FC02460B46CDE9022380
:1058B0002A463346FBF7A0F8002840F08E82DDE947
:1058C00002012A4606F10043FBF778F8002840F071
:1058D0002781DDE90C34CDE90234159B002BC0F2A1
:1058E00063810E2F00F36081334B03EBC703D3E9D1
:1058F0000034CDE90434219B002B03DA079B002BF5
:1059000040F30081DDE902455646DDE904232046E7
:105910002946FAF70BFFFBF78FF88046FAF772FD7E
:10592000DDE90423FAF7D8FD02460B462046294656
:10593000FAF71AFC08F13004079D06F8014BA6EBB4
:105940000A04A54202460B4640F01681FAF70EFC07
:10595000DDE9042304460D46FBF74EF8002840F02D
:10596000F880DDE9042320462946FBF71DF818B12D
:1059700018F0010F40F0ED804946584600F092FCC7
:1059800000233370229B01371F60249B002B00F003
:1059900020831E601DE3E20705D5D5E90023FAF751
:1059A0009BFD01230136641008353FE7022642E7DC
:1059B000079C049761E700BF6876000840760008FE
:1059C0000000F03F0000244000001C400000144094
:1059D000704B0B9903EBC40353E902235444002991
:1059E00045D000206C49FAF7A1FE33462A46FAF763
:1059F000BBFB5646CDE91001DDE90201FBF71CF8BF
:105A00000546FAF7FFFC02460B46DDE90201FAF70C
:105A1000ABFB02460B463035CDE90223DDE910230E
:105A200006F8015BFAF7CAFF002863D1DDE902231B
:105A300000205A49FAF798FBDDE91023FAF7BEFF78
:105A4000002840F08780A6423FF443AFDDE9100113
:105A50000022534BFAF740FD0022CDE91001DDE9A9
:105A600002014F4BFAF738FDCDE90201C4E7314698
:105A70002846FAF731FD5646CDE910011394DDE9C9
:105A80000201FAF7D9FF0546FAF7BCFC02460B46BD
:105A9000DDE90201FAF768FB02460B46303506F8ED
:105AA000015BA642CDE902234FF0000224D1DDE9DB
:105AB0001001394BFAF75AFB02460B46DDE90201A9
:105AC000FAF79AFF002845D1DDE91023002032497A
:105AD000FAF74AFB02460B46DDE90201FAF76EFFD0
