:020000040800F2
:1000000000500020DD090008D5080008DD080008C0
:10001000E5080008ED080008F508000800000000E9
:10002000000000000000000000000000FD080008C3
:10003000090900080000000015090008210900084E
:10004000250A0008250A0008250A0008250A0008D4
:10005000250A0008250A0008250A0008250A0008C4
:10006000250A0008250A0008250A0008250A0008B4
:10007000250A0008250A0008250A0008250A0008A4
:10008000250A0008250A0008250A0008250A000894
:10009000250A0008250A0008250A0008250A000884
:1000A000250A0008250A0008250A0008250A000874
:1000B0002D090008250A0008250A0008250A00085D
:1000C000250A0008250A0008250A0008250A000854
:1000D000250A0008250A0008250A0008250A000844
:1000E000250A0008250A0008250A0008000000006B
:1000F0000000000000000000000000000000000000
:0C01000000000000000000005FF808F1A3
:10010C0010B5054C237833B9044B13B10448AFF345
:10011C0000800123237010BD180000200000000097
:10012C005C25000808B5034B1BB103490348AFF32A
:10013C00008008BD000000001C0000205C250008A9
:10014C0080B582B000AF00F0C1FC3860234B1B6857
:10015C003A68D31A632B01D8FF233BE00023FB71D1
:10016C0034E000224FF470711D4800F062FFFB79FF
:10017C00402202FA03F39BB201221946184800F000
:10018C0058FF0023BB711BE0BB79012202FA03F379
:10019C009BB21946124800F035FF0346012B0CD1D7
:1001AC000E4A3B681360FA79B9790E4813469B00E6
:1001BC00134403440B441B780CE0BB790133BB7133
:1001CC00BB79042BE0D9FB790133FB71FB79032B51
:1001DC00C7D9FF2318460837BD4680BD3400002020
:1001EC00000C01407425000880B582B000AF786027
:1001FC00396000224FF480410A4800F01AFF3B6836
:10020C009AB24FF496737968074801F08DFB01227E
:10021C004FF48041034800F00CFF00BF0837BD4687
:10022C0080BD00BF000C01409000002080B582B062
:10023C0000AF78603960002240210A4800F0F9FED6
:10024C003B689AB24FF496737968074801F06CFBDF
:10025C0001224021034800F0ECFE00BF0837BD46E8
:10026C0080BD00BF000801403800002080B485B07C
:10027C0000AF78607B68154A934201D9002320E0D7
:10028C000023FB6019E07968114BA3FB0123DA080A
:10029C0013469B0013445B00CA1A0E4B995C0E4A22
:1002AC00FB6813440A461A707B68094AA2FB0323B5
:1002BC00DB087B60FB680133FB60FB68072BE2DD2E
:1002CC00054B18461437BD4680BC7047FFE0F5055A
:1002DC00CDCCCCCC000000203401002080B584B003
:1002EC0000AF78607868FFF7C1FFF860FB68002BFF
:1002FC0004D00821F868FFF799FF00E000BF103721
:10030C00BD4680BD80B584B000AF00F087FB00F027
:10031C00A3F800F095F900F011F900F045F900F0A0
:10032C00D7F8464801F03AFD0023FB606421002019
:10033C0000F006FB6421012000F002FB6421022086
:10034C0000F0FEFA3E4B1B68012B3CD1FF233B71A6
:10035C00F9683C4B83FB01239A10CB17D21A134636
:10036C009B0013445B00CA1A374B9B5C7B71FB6888
:10037C00591C344B83FB01239A10CB17D21A13460A
:10038C009B0013445B00CA1A2F4B9B5CBB71FB6830
:10039C00991C2C4B83FB01239A10CB17D21A1346B2
:1003AC009B0013445B00CA1A274B9B5CFB713B1DE3
:1003BC0004211846FFF718FFFB680133FB6064212A
:1003CC00002000F0BDFA1E4B5B68012BBAD1FFF781
:1003DC00B7FE03461A461D4B1A701C4B1B78092B93
:1003EC0017D81B4B1A6813469B0013445B001A4624
:1003FC00164B1B781344BB60BB68164A934218D843
:10040C00134ABB681360124B1B681846FFF766FF54
:10041C000FE00E4B1B78092B0BD90C4B1B78632B65
:10042C0007D80B4B00221A60094B1B681846FFF7C4
:10043C0055FF0A21012000F083FA83E7E800002031
:10044C006401002067666666000000200A00002038
:10045C00300100203F420F0080B590B000AF07F193
:10046C00180328220021184602F046F83B1D0022F2
:10047C001A605A609A60DA601A610223BB61012328
:10048C00BB621023FB6200237B6307F11803184641
:10049C0000F0E8FD0346002B01D000F04BF90F23D0
:1004AC007B600023BB600023FB6000233B610023C7
:1004BC007B613B1D0021184601F056F80346002BCA
:1004CC0001D000F037F900BF4037BD4680BD0000B9
:1004DC0080B500AF174B184A1A60164B4FF4827256
:1004EC005A60144B00229A60124B0022DA60114BB6
:1004FC0000221A610F4B00225A610E4B4FF400720E
:10050C009A610C4B0022DA610A4B00221A62094BE9
:10051C0000225A62074B00229A62064B0A22DA62C8
:10052C00044801F07DF90346002B01D000F002F9DC
:10053C0000BF80BD380000200030014080B500AF06
:10054C00174B184A1A60164B4FF482725A60144BB0
:10055C0000229A60124B0022DA60114B00221A61C1
:10056C000F4B00225A610E4B4FF400729A610C4BE8
:10057C000022DA610A4B00221A62094B00225A62ED
:10058C00074B00229A62064B0A22DA62044801F0F9
:10059C0047F90346002B01D000F0CCF800BF80BD1A
:1005AC00900000200038004080B586B000AF07F105
:1005BC00080300221A605A609A60DA603B460022F7
:1005CC001A605A601D4B4FF080421A601B4B41F66B
:1005DC003F725A60194B00229A60184B0922DA605C
:1005EC00164B00221A61154B00229A61134801F038
:1005FC0085FB0346002B01D000F09CF84FF4805390
:10060C00BB6007F1080319460C4801F021FD0346B5
:10061C00002B01D000F08EF800233B6000237B60A0
:10062C003B461946054801F0F7FE0346002B01D066
:10063C0000F080F800BF1837BD4680BDE8000020F0
:10064C0080B586B000AF07F1080300221A605A602B
:10065C009A60DA602F4B9B692E4A43F00403936136
:10066C002C4B9B6903F004037B607B68294B9B69D3
:10067C00284A43F008039361264B9B6903F0080357
:10068C003B603B6800224021234800F0D2FC002252
:10069C0044F2C031214800F0CCFC4023BB60012364
:1006AC00FB6000233B6102237B6107F108031946C1
:1006BC00194800F023FB1F23BB600023FB600223BF
:1006CC003B6107F108031946144800F017FB4FF47F
:1006DC008043BB600123FB6000233B6103237B61F0
:1006EC0007F1080319460D4800F008FB4FF470732E
:1006FC00BB600123FB6000233B6102237B6107F19C
:10070C0008031946054800F0F9FA00BF1837BD4632
:10071C0080BD00BF0010024000080140000C0140E9
:10072C0080B582B000AF786000F022F900BF0837C6
:10073C00BD4680BD80B400AF72B600BF00BFFDE700
:10074C0080B485B000AF154B9B69144A43F001038C
:10075C009361124B9B6903F00103BB60BB680F4BA9
:10076C00DB690E4A43F08053D3610C4BDB6903F019
:10077C0080537B607B680A4B5B68FB60FB6823F0F3
:10078C00E063FB60FB6843F00073FB60044AFB68AA
:10079C00536000BF1437BD4680BC70470010024048
:1007AC000000014080B58AB000AF786007F11803F3
:1007BC0000221A605A609A60DA607B681B682B4AC8
:1007CC00934224D12A4B9B69294A43F48053936169
:1007DC00274B9B6903F480537B617B69244B9B699A
:1007EC00234A43F004039361214B9B6903F00403F8
:1007FC003B613B69A023BB610223FB6103237B624A
:10080C0007F1180319461B4800F078FA29E07B68B9
:10081C001B68194A934224D1154BDB69144A43F4E3
:10082C008043D361124BDB6903F48043FB60FB68AC
:10083C000F4B9B690E4A43F0080393610C4B9B6969
:10084C0003F00803BB60BB684FF42043BB61022379
:10085C00FB6103237B6207F118031946074800F07C
:10086C004DFA00BF2837BD4680BD00BF00300140A7
:10087C00001002400008014000380040000C01400C
:10088C0080B584B000AF78607B681B68B3F1804F93
:10089C0013D10C4BDB690B4A43F00103D361094BB9
:1008AC00DB6903F00103FB60FB68002201211C20C3
:1008BC0000F0EDF91C2000F006FA00BF1037BD4621
:1008CC0080BD00BF0010024080B400AF00BFFDE748
:1008DC0080B400AF00BFFDE780B400AF00BFFDE700
:1008EC0080B400AF00BFFDE780B400AF00BFFDE7F0
:1008FC0080B400AF00BFBD4680BC704780B400AF71
:10090C0000BFBD4680BC704780B400AF00BFBD4681
:10091C0080BC704780B500AF00F0C6F800BF80BD4A
:10092C0080B500AF024801F08BFA00BF80BD00BF5C
:10093C00E800002080B400AF00BFBD4680BC70470B
:10094C0080B483B000AF7860396007497B683A683F
:10095C0041F82320054A7B68002142F8231000BF90
:10096C000C37BD4680BC70473C0100206401002060
:10097C0080B483B000AF00237B601CE0124A7B681C
:10098C0052F82330002B13DD0F4A7B6852F82330CA
:10099C005A1E0D497B6841F823200B4A7B6852F89C
:1009AC002330002B04DC094A7B68012142F8231018
:1009BC007B6801337B607B68092BDFDD00BF00BFE8
:1009CC000C37BD4680BC70473C0100206401002000
:1009DC00FFF7B0FF0B480C490C4A002302E0D45837
:1009EC00C4500433C4188C42F9D3094A094C00236F
:1009FC0001E013600432A242FBD301F085FDFFF746
:100A0C0081FC70470000002018000020B42500086D
:100A1C001800002090010020FEE7000080B500AF18
:100A2C00084B1B68074A43F010031360032000F0C7
:100A3C0023F90F2000F008F8FFF782FE0023184678
:100A4C0080BD00BF0020024080B582B000AF78604E
:100A5C00124B1A68124B1B7819464FF47A73B3FB7E
:100A6C00F1F3B2FBF3F3184600F03BF90346002B0D
:100A7C0001D001230EE07B680F2B0AD80022796885
:100A8C004FF0FF3000F003F9064A7B681360002337
:100A9C0000E0012318460837BD4680BD0C0000203D
:100AAC00140000201000002080B400AF054B1B7810
:100ABC001A46054B1B681344034A136000BFBD461E
:100ACC0080BC7047140000208C01002080B400AF63
:100ADC00024B1B681846BD4680BC70478C01002039
:100AEC0080B485B000AF78607B6803F00703FB60CF
:100AFC000C4BDB68BB60BA684FF6FF031340BB605E
:100B0C00FB681A02BB68134343F0BF6343F4003322
:100B1C00BB60044ABB68D36000BF1437BD4680BCC1
:100B2C00704700BF00ED00E080B400AF044BDB6801
:100B3C001B0A03F007031846BD4680BC704700BF74
:100B4C0000ED00E080B483B000AF0346FB7197F971
:100B5C000730002B0BDBFB7903F01F02064997F9DA
:100B6C0007305B09012000FA02F241F8232000BF94
:100B7C000C37BD4680BC704700E100E080B483B008
:100B8C0000AF03463960FB7197F90730002B0ADB85
:100B9C003B68DAB20C4997F907301201D2B20B4418
:100BAC0083F800230AE03B68DAB20849FB7903F0CA
:100BBC000F03043B1201D2B20B441A7600BF0C3760
:100BCC00BD4680BC704700BF00E100E000ED00E0D6
:100BDC0080B489B000AFF860B9607A60FB6803F04C
:100BEC000703FB61FB69C3F10703042B28BF042334
:100BFC00BB61FB690433062B02D9FB69033B00E0A4
:100C0C0000237B614FF0FF32BB6902FA03F3DA4336
:100C1C00BB681A407B699A404FF0FF317B6901FA3F
:100C2C0003F3D9437B680B40134318462437BD4666
:100C3C0080BC704780B582B000AF78607B68013BA8
:100C4C00B3F1807F01D301230FE00A4A7B68013B9B
:100C5C0053600F214FF0FF30FFF790FF054B002240
:100C6C009A60044B07221A60002318460837BD46C9
:100C7C0080BD00BF10E000E080B582B000AF7860AE
:100C8C007868FFF72DFF00BF0837BD4680BD80B5E3
:100C9C0086B000AF0346B9607A60FB7300237B61BA
:100CAC00FFF742FF78617A68B9687869FFF790FFBF
:100CBC00024697F90F3011461846FFF75FFF00BF49
:100CCC001837BD4680BD80B582B000AF0346FB71BE
:100CDC0097F907301846FFF735FF00BF0837BD46B8
:100CEC0080BD80B582B000AF78607868FFF7A2FF56
:100CFC00034618460837BD4680BD000080B48BB053
:100D0C0000AF7860396000237B6200233B6269E1AD
:100D1C0001227B6A02FA03F3FB613B681B68FA69E8
:100D2C001340BB61BA69FB699A4240F058813B6839
:100D3C005B689A4A93425ED0984A934275D8984A17
:100D4C00934258D0964A93426FD8964A934252D0C7
:100D5C00944A934269D8944A93424CD0924A934213
:100D6C0063D8924A934246D0904A93425DD8122B54
:100D7C002AD8122B59D801A252F823F0030E0008DE
:100D8C00DD0D0008EF0D0008310E0008370E0008CD
:100D9C00370E0008370E0008370E0008370E000813
:100DAC00370E0008370E0008370E0008370E000803
:100DBC00370E0008370E0008370E0008370E0008F3
:100DCC00E50D0008F90D0008794A934213D02CE088
:100DDC003B68DB683B6229E03B68DB6804333B62C1
:100DEC0024E03B68DB6808333B621FE03B68DB6850
:100DFC000C333B621AE03B689B68002B02D1042346
:100E0C003B6213E03B689B68012B05D108233B62D6
:100E1C007B68FA691A6109E008233B627B68FA690E
:100E2C005A6103E000233B6200E000BFBB69FF2B6B
:100E3C0001D87B6801E07B6804337B61BB69FF2BC5
:100E4C0002D87B6A9B0002E07B6A083B9B003B61FB
:100E5C007B691A680F213B6901FA03F3DB431A40E3
:100E6C00396A3B6901FA03F31A437B691A603B68E0
:100E7C005B6803F08053002B00F0B1804D4B9B69F5
:100E8C004C4A43F0010393614A4B9B6903F0010305
:100E9C00BB60BB68484A7B6A9B08023352F823301C
:100EAC00FB607B6A03F003039B000F2202FA03F33F
:100EBC00DB43FA681340FB607B68404A934213D0D3
:100ECC007B683F4A93420DD07B683E4A934207D0E1
:100EDC007B683D4A934201D1032306E0042304E0DE
:100EEC00022302E0012300E000237A6A02F00302ED
:100EFC0092009340FA681343FB602F497B6A9B086E
:100F0C000233FA6841F823203B685B6803F48013D2
:100F1C00002B06D02D4B9A682C49BB6913438B6070
:100F2C0006E02A4B9A68BB69DB43284913408B6067
:100F3C003B685B6803F40013002B06D0234BDA6884
:100F4C002249BB691343CB6006E0204BDA68BB69CE
:100F5C00DB431E491340CB603B685B6803F40033F2
:100F6C00002B06D0194B5A681849BB6913434B60C8
:100F7C0006E0164B5A68BB69DB43144913404B60BF
:100F8C003B685B6803F48033002B21D00F4B1A684D
:100F9C000E49BB6913430B6021E000BF0000321007
:100FAC00000031100000221000002110000012106F
:100FBC000000111000100240000001400008014028
:100FCC00000C0140001001400014014000040140DD
:100FDC000B4B1A68BB69DB43094913400B607B6AF6
:100FEC0001337B623B681A687B6A22FA03F3002B9D
:100FFC007FF48EAE00BF00BF2C37BD4680BC70475F
:10100C000004014080B485B000AF78600B467B8053
:10101C007B689A687B881340002B02D00123FB73FA
:10102C0001E00023FB73FB7B18461437BD4680BCE4
:10103C00704780B483B000AF78600B467B8013465A
:10104C007B707B78002B03D07A887B681A6103E075
:10105C007B881A047B681A6100BF0C37BD4680BCC4
:10106C007047000080B586B000AF78607B68002BBD
:10107C0001D1012372E27B681B6803F00103002B92
:10108C0000F08780924B5B6803F00C03042B0CD0B0
:10109C008F4B5B6803F00C03082B12D18C4B5B68F5
:1010AC0003F48033B3F5803F0BD1894B1B6803F4F9
:1010BC000033002B6CD07B685B68002B68D101235C
:1010CC004CE27B685B68B3F5803F06D1804B1B68B4
:1010DC007F4A43F4803313602EE07B685B68002BFF
:1010EC000CD17B4B1B687A4A23F480331360784B0A
:1010FC001B68774A23F4802313601DE07B685B68D0
:10110C00B3F5A02F0CD1724B1B68714A43F48023AA
:10111C0013606F4B1B686E4A43F4803313600BE013
:10112C006B4B1B686A4A23F480331360684B1B6853
:10113C00674A23F4802313607B685B68002B13D011
:10114C00FFF7C4FC386108E0FFF7C0FC02463B69BE
:10115C00D31A642B01D9032300E25D4B1B6803F403
:10116C000033002BF0D014E0FFF7B0FC386108E03E
:10117C00FFF7ACFC02463B69D31A642B01D903235D
:10118C00ECE1534B1B6803F40033002BF0D100E06F
:10119C0000BF7B681B6803F00203002B63D04C4B31
:1011AC005B6803F00C03002B0BD0494B5B6803F01E
:1011BC000C03082B1CD1464B5B6803F48033002BCB
:1011CC0016D1434B1B6803F00203002B05D07B6840
:1011DC001B69012B01D00123C0E13D4B1B6823F09F
:1011EC00F8027B685B69DB00394913430B603AE01A
:1011FC007B681B69002B20D0364B01221A60FFF74D
:10120C0065FC386108E0FFF761FC02463B69D31AC4
:10121C00022B01D90323A1E12D4B1B6803F0020320
:10122C00002BF0D02A4B1B6823F0F8027B685B691B
:10123C00DB00274913430B6015E0264B00221A6094
:10124C00FFF744FC386108E0FFF740FC02463B69BD
:10125C00D31A022B01D9032380E11D4B1B6803F029
:10126C000203002BF0D17B681B6803F00803002BF2
:10127C003AD07B689B69002B19D0174B01221A605E
:10128C00FFF724FC386108E0FFF720FC02463B69BD
:10129C00D31A022B01D9032360E10D4B5B6A03F0D7
:1012AC000203002BF0D0012000F09CFA1CE00A4B4A
:1012BC0000221A60FFF70AFC38610FE0FFF706FC0A
:1012CC0002463B69D31A022B08D9032346E100BF1F
:1012DC00001002400000424280044242924B5B6A82
:1012EC0003F00203002BE9D17B681B6803F00403B5
:1012FC00002B00F0A6800023FB758B4BDB6903F001
:10130C008053002B0DD1884BDB69874A43F0805307
:10131C00D361854BDB6903F08053BB60BB68012351
:10132C00FB75824B1B6803F48073002B18D17F4B29
:10133C001B687E4A43F480731360FFF7C7FB386168
:10134C0008E0FFF7C3FB02463B69D31A642B01D9B3
:10135C00032303E1754B1B6803F48073002BF0D05F
:10136C007B68DB68012B06D16F4B1B6A6E4A43F01E
:10137C00010313622DE07B68DB68002B0CD16A4BF8
:10138C001B6A694A23F001031362674B1B6A664AA6
:10139C0023F0040313621CE07B68DB68052B0CD183
:1013AC00614B1B6A604A43F0040313625E4B1B6A79
:1013BC005D4A43F0010313620BE05B4B1B6A5A4A14
:1013CC0023F001031362584B1B6A574A23F00403A2
:1013DC0013627B68DB68002B15D0FFF777FB386155
:1013EC000AE0FFF773FB02463B69D31A41F28832DD
:1013FC00934201D90323B1E04B4B1B6A03F0020368
:10140C00002BEED014E0FFF761FB38610AE0FFF728
:10141C005DFB02463B69D31A41F28832934201D9F3
:10142C0003239BE0404B1B6A03F00203002BEED11D
:10143C00FB7D012B05D13C4BDB693B4A23F08053F0
:10144C00D3617B68DB69002B00F08780364B5B68CF
:10145C0003F00C03082B61D07B68DB69022B46D1AF
:10146C00334B00221A60FFF731FB386108E0FFF7BD
:10147C002DFB02463B69D31A022B01D903236DE0E5
:10148C00294B1B6803F00073002BF0D17B681B6A9F
:10149C00B3F5803F08D1244B5B6823F400327B68A2
:1014AC009B68214913434B601F4B5B6823F47412F8
:1014BC007B68196A7B685B6A0B431B4913434B605F
:1014CC001B4B01221A60FFF701FB386108E0FFF7A4
:1014DC00FDFA02463B69D31A022B01D903233DE0E6
:1014EC00114B1B6803F00073002BF0D035E0104B50
:1014FC0000221A60FFF7EAFA386108E0FFF7E6FA13
:10150C0002463B69D31A022B01D9032326E0064B72
:10151C001B6803F00073002BF0D11EE07B68DB69C5
:10152C00012B07D1012319E000100240007000408C
:10153C00600042420B4B5B68FB60FB6803F480323B
:10154C007B681B6A9A4206D1FB6803F470127B68B5
:10155C005B6A9A4201D0012300E000231846183739
:10156C00BD4680BD0010024080B584B000AF7860ED
:10157C0039607B68002B01D10123D0E06A4B1B68DA
:10158C0003F007033A689A4210D9674B1B6823F0A3
:10159C00070265493B6813430B60634B1B6803F000
:1015AC0007033A689A4201D00123B8E07B681B68B4
:1015BC0003F00203002B20D07B681B6803F00403AC
:1015CC00002B05D0594B5B68584A43F4E0635360D9
:1015DC007B681B6803F00803002B05D0534B5B683A
:1015EC00524A43F460535360504B5B6823F0F00253
:1015FC007B689B684D4913434B607B681B6803F009
:10160C000103002B40D07B685B68012B07D1474B53
:10161C001B6803F40033002B15D101237FE07B689A
:10162C005B68022B07D1414B1B6803F00073002B46
:10163C0009D1012373E03D4B1B6803F00203002B1F
:10164C0001D101236BE0394B5B6823F003027B680B
:10165C005B68364913434B60FFF738FAF8600AE0D1
:10166C00FFF734FA0246FB68D31A41F288329342F0
:10167C0001D9032353E02D4B5B6803F00C027B680C
:10168C005B689B009A42EBD1274B1B6803F0070366
:10169C003A689A4210D2244B1B6823F00702224965
:1016AC003B6813430B60204B1B6803F007033A683D
:1016BC009A4201D0012332E07B681B6803F00403DB
:1016CC00002B08D0194B5B6823F4E0627B68DB6865
:1016DC00164913434B607B681B6803F00803002B0F
:1016EC0009D0124B5B6823F460527B681B69DB00EA
:1016FC000E4913434B6000F021F802460B4B5B681C
:10170C001B0903F00F030A49CB5C22FA03F3094AC5
:10171C001360094B1B681846FFF796F9002318460F
:10172C001037BD4680BD00BF0020024000100240B3
:10173C00882500080C0000201000002080B487B021
:10174C0000AF0023FB600023BB6000237B61002300
:10175C007B6000233B611E4B5B68FB60FB6803F006
:10176C000C03042B02D0082B03D027E0194B3B6150
:10177C0027E0FB689B0C03F00F03174AD35C7B60DC
:10178C00FB6803F48033002B10D0114B5B685B0CAF
:10179C0003F00103114AD35CBB607B680D4A03FB69
:1017AC0002F2BB68B2FBF3F37B6104E07B680C4A8A
:1017BC0002FB03F37B617B693B6102E0054B3B6100
:1017CC0000BF3B6918461C37BD4680BC704700BF44
:1017DC000010024000127A0098250008A825000885
:1017EC0000093D0080B485B000AF78600A4B1B68DF
:1017FC000A4AA2FB03235B0A7A6802FB03F3FB6031
:10180C0000BFFB685A1EFA60002BF9D100BF00BF65
:10181C001437BD4680BC70470C000020D34D6210BD
:10182C0080B582B000AF78607B68002B01D10123BA
:10183C0076E07B685B6A002B08D17B685B68B3F54C
:10184C00827F09D07B680022DA6105E07B68002288
:10185C001A617B6800225A617B6800229A627B685D
:10186C0093F85130DBB2002B06D17B68002283F851
:10187C0050207868FEF796FF7B68022283F851208F
:10188C007B681B681A687B681B6822F040021A6030
:10189C007B685B6803F482727B689B6803F4044387
:1018AC001A437B68DB6803F400631A437B681B698B
:1018BC0003F002031A437B685B6903F001031A43CC
:1018CC007B689B6903F400731A437B68DB6903F044
:1018DC0038031A437B681B6A03F0800342EA030156
:1018EC007B689B6A03F400527B681B680A431A608E
:1018FC007B689B691A0C7B681B6802F004025A60B7
:10190C007B681B68DA697B681B6822F40062DA6109
:10191C007B6800225A657B68012283F851200023E2
:10192C0018460837BD4680BD80B588B000AFF8605A
:10193C00B9603B601346FB800023FB77FB6893F890
:10194C005030012B01D102232DE1FB68012283F8D9
:10195C005020FFF7BBF8B861FB88FB82FB6893F85B
:10196C005130DBB2012B02D00223FB7716E1BB68AE
:10197C00002B02D0FB88002B02D10123FB770DE159
:10198C00FB68032283F85120FB6800225A65FB6830
:10199C00BA681A63FB68FA889A86FB68FA88DA8652
:1019AC00FB6800229A63FB6800229A87FB6800227E
:1019BC00DA87FB6800225A64FB6800221A64FB6811
:1019CC009B68B3F5004F0FD1FB681B681A68FB6866
:1019DC001B6822F040021A60FB681B681A68FB68DF
:1019EC001B6842F480421A60FB681B681B6803F09A
:1019FC004003402B07D0FB681B681A68FB681B6808
:101A0C0042F040021A60FB68DB68B3F5006F4FD1FF
:101A1C00FB685B68002B02D0FB8A012B42D1FB6870
:101A2C001B6B1A88FB681B68DA60FB681B6B9A1CC3
:101A3C00FB681A63FB68DB8E9BB2013B9AB2FB68B6
:101A4C00DA862FE0FB681B689B6803F00203022B0D
:101A5C0012D1FB681B6B1A88FB681B68DA60FB6889
:101A6C001B6B9A1CFB681A63FB68DB8E9BB2013BF9
:101A7C009AB2FB68DA8615E0FFF728F80246BB69D4
:101A8C00D31A3A689A4203D83B68B3F1FF3F02D1AC
:101A9C003B68002B06D10323FB77FB68012283F8FC
:101AAC0051207BE0FB68DB8E9BB2002BCAD150E04F
:101ABC00FB685B68002B02D0FB8A012B44D1FB68CE
:101ACC001A6BFB681B680C3312781A70FB681B6B63
:101ADC005A1CFB681A63FB68DB8E9BB2013B9AB203
:101AEC00FB68DA8630E0FB681B689B6803F0020336
:101AFC00022B13D1FB681A6BFB681B680C33127832
:101B0C001A70FB681B6B5A1CFB681A63FB68DB8E34
:101B1C009BB2013B9AB2FB68DA8615E0FEF7D6FF62
:101B2C000246BB69D31A3A689A4203D83B68B3F1B0
:101B3C00FF3F02D13B68002B06D10323FB77FB68E8
:101B4C00012283F8512029E0FB68DB8E9BB2002B2D
:101B5C00C9D1BA693968F86800F0B2F80346002BAD
:101B6C0002D0FB6820225A65FB689B68002B0AD1C7
:101B7C0000233B61FB681B68DB683B61FB681B68EF
:101B8C009B683B613B69FB685B6D002B02D00123BA
:101B9C00FB7703E0FB68012283F85120FB680022ED
:101BAC0083F85020FB7F18462037BD4680BD0000CF
:101BBC0080B588B000AFF860B9603B601346FB712C
:101BCC00FEF784FF0246BB6A9B1A3A681344FB611A
:101BDC00FEF77CFFB861394B1B685B011B0DFA6982
:101BEC0002FB03F37B6154E03B68B3F1FF3F50D041
:101BFC00FEF76CFF0246BB69D31AFA699A4202D906
:101C0C00FB69002B3DD1FB681B685A68FB681B689D
:101C1C0022F0E0025A60FB685B68B3F5827F11D159
:101C2C00FB689B68B3F5004F04D0FB689B68B3F569
:101C3C00806F07D1FB681B681A68FB681B6822F071
:101C4C0040021A60FB689B6AB3F5005F0FD1FB681A
:101C5C001B681A68FB681B6822F400521A60FB6848
:101C6C001B681A68FB681B6842F400521A60FB6818
:101C7C00012283F85120FB68002283F850200323B3
:101C8C0017E07B69002B01D10023FB617B69013BD1
:101C9C007B61FB681B689A68BB681340BA689A4200
:101CAC000CBF01230023DBB21A46FB799A429BD16D
:101CBC00002318462037BD4680BD00BF0C00002015
:101CCC0080B586B002AFF860B9607A607B6800932B
:101CDC00BB6800228021F868FFF76AFF0346002BDF
:101CEC0007D0FB685B6D43F02002FB685A65032349
:101CFC0000E0002318461037BD4680BD80B582B089
:101D0C0000AF78607B68002B01D1012341E07B6838
:101D1C0093F83D30DBB2002B06D17B68002283F8B0
:101D2C003C207868FEF7ACFD7B68022283F83D20EE
:101D3C007B681A687B6804331946104600F074FA05
:101D4C007B68012283F846207B68012283F83E20C1
:101D5C007B68012283F83F207B68012283F84020B6
:101D6C007B68012283F841207B68012283F84220A2
:101D7C007B68012283F843207B68012283F844208E
:101D8C007B68012283F845207B68012283F83D2083
:101D9C00002318460837BD4680BD000080B485B0CE
:101DAC0000AF78607B6893F83D30DBB2012B01D03B
:101DBC0001233AE07B68022283F83D207B681B6894
:101DCC00DA687B681B6842F00102DA607B681B688A
:101DDC00184A93420ED07B681B68B3F1804F09D030
:101DEC007B681B68144A934204D07B681B68134AB7
:101DFC00934211D17B681B689B6803F00703FB605F
:101E0C00FB68062B10D07B681B681A687B681B6804
:101E1C0042F001021A6007E07B681B681A687B6855
:101E2C001B6842F001021A60002318461437BD46A5
:101E3C0080BC7047002C01400004004000080040AA
:101E4C0080B582B000AF78607B681B681B6903F0BB
:101E5C000203022B22D17B681B68DB6803F00203B0
:101E6C00022B1BD17B681B686FF002021A617B6826
:101E7C0001221A777B681B689B6903F00303002B14
:101E8C0003D0786800F0B4F905E0786800F0A7F9A1
:101E9C00786800F0B6F97B6800221A777B681B68BB
:101EAC001B6903F00403042B22D17B681B68DB68DD
:101EBC0003F00403042B1BD17B681B686FF0040236
:101ECC001A617B6802221A777B681B689B6903F492
:101EDC004073002B03D0786800F08AF905E078682D
:101EEC0000F07DF9786800F08CF97B6800221A7795
:101EFC007B681B681B6903F00803082B22D17B68E5
:101F0C001B68DB6803F00803082B1BD17B681B687C
:101F1C006FF008021A617B6804221A777B681B68D1
:101F2C00DB6903F00303002B03D0786800F060F941
:101F3C0005E0786800F053F9786800F062F97B6886
:101F4C0000221A777B681B681B6903F01003102BA7
:101F5C0022D17B681B68DB6803F01003102B1BD1AC
:101F6C007B681B686FF010021A617B6808221A7775
:101F7C007B681B68DB6903F44073002B03D0786823
:101F8C0000F036F905E0786800F029F9786800F07F
:101F9C0038F97B6800221A777B681B681B6903F091
:101FAC000103012B0ED17B681B68DB6803F0010376
:101FBC00012B07D17B681B686FF001021A617868EE
:101FCC00FEF7AEFB7B681B681B6903F08003802B5C
:101FDC000ED17B681B68DB6803F08003802B07D174
:101FEC007B681B686FF080021A61786800F07BFADE
:101FFC007B681B681B6903F04003402B0ED17B6888
:10200C001B68DB6803F04003402B07D17B681B681F
:10201C006FF040021A61786800F0FCF87B681B686E
:10202C001B6903F02003202B0ED17B681B68DB6837
:10203C0003F02003202B07D17B681B686FF0200274
:10204C001A61786800F046FA00BF0837BD4680BDBB
:10205C0080B584B000AF786039600023FB737B6877
:10206C0093F83C30012B01D10223B4E07B680122B0
:10207C0083F83C207B68022283F83D207B681B6838
:10208C009B68BB60BB6823F07703BB60BB6823F421
:10209C007F43BB607B681B68BA689A603B681B68AF
:1020AC00B3F5005F3ED0B3F5005F00F28780B3F567
:1020BC00805F00F08680B3F5805F7FD8702B1AD0DC
:1020CC00702B7BD8602B50D0602B77D8502B3CD00A
:1020DC00502B73D8402B58D0402B6FD8302B64D05A
:1020EC00302B6BD8202B60D0202B67D8002B5CD0EA
:1020FC00102B5AD062E07B6818683B6899683B6883
:10210C005A683B68DB6800F068F97B681B689B6861
:10211C00BB60BB6843F07703BB607B681B68BA6825
:10212C009A604FE07B6818683B6899683B685A680E
:10213C003B68DB6800F051F97B681B689A687B6828
:10214C001B6842F480429A603CE07B6818683B68EC
:10215C0059683B68DB681A4600F0C8F87B681B6856
:10216C005021184600F01FF92CE07B6818683B687A
:10217C0059683B68DB681A4600F0E6F87B681B6818
:10218C006021184600F00FF91CE07B6818683B686A
:10219C0059683B68DB681A4600F0A8F87B681B6836
:1021AC004021184600F0FFF80CE07B681A683B6889
:1021BC001B681946104600F0F6F803E00123FB7388
:1021CC0000E000BF7B68012283F83D207B68002281
:1021DC0083F83C20FB7B18461037BD4680BD80B48D
:1021EC0083B000AF786000BF0C37BD4680BC704731
:1021FC0080B483B000AF786000BF0C37BD4680BCA4
:10220C00704780B483B000AF786000BF0C37BD4618
:10221C0080BC704780B483B000AF786000BF0C37CF
:10222C00BD4680BC7047000080B485B000AF7860BC
:10223C0039607B681B68FB607B68294A93420BD032
:10224C007B68B3F1804F07D07B68264A934203D05A
:10225C007B68254A934208D1FB6823F07003FB602E
:10226C003B685B68FA681343FB607B681C4A9342CB
:10227C000BD07B68B3F1804F07D07B68194A93422F
:10228C0003D07B68184A934208D1FB6823F440734F
:10229C00FB603B68DB68FA681343FB60FB6823F068
:1022AC0080023B685B691343FB607B68FA681A60C9
:1022BC003B689A687B68DA623B681A687B689A624A
:1022CC007B68074A934203D13B681A697B681A639F
:1022DC007B6801225A6100BF1437BD4680BC704731
:1022EC00002C0140000400400008004080B487B07E
:1022FC0000AFF860B9607A60FB681B6A7B61FB68B1
:10230C001B6A23F00102FB681A62FB689B693B6144
:10231C003B6923F0F0033B617B681B013A69134373
:10232C003B617B6923F00A037B617A69BB681343C9
:10233C007B61FB683A699A61FB687A691A6200BF33
:10234C001C37BD4680BC704780B487B000AFF860C6
:10235C00B9607A60FB681B6A7B61FB681B6A23F0BF
:10236C001002FB681A62FB689B693B613B6923F4B2
:10237C0070433B617B681B033A6913433B617B6988
:10238C0023F0A0037B61BB681B017A6913437B615B
:10239C00FB683A699A61FB687A691A6200BF1C375C
:1023AC00BD4680BC704780B485B000AF78603960A2
:1023BC007B689B68FB60FB6823F07003FB603A68EA
:1023CC00FB68134343F00703FB607B68FA689A6071
:1023DC0000BF1437BD4680BC704780B487B000AFD7
:1023EC00F860B9607A603B60FB689B687B617B69D5
:1023FC0023F47F437B613B681A027B681A43BB68FA
:10240C0013437A6913437B61FB687A699A6000BF56
:10241C001C37BD4680BC704780B485B000AF786077
:10242C0039607B6893F83C30012B01D1022346E0E4
:10243C007B68012283F83C207B68022283F83D20D4
:10244C007B681B685B68FB607B681B689B68BB6078
:10245C00FB6823F07003FB603B681B68FA6813434E
:10246C00FB607B681B68FA685A607B681B68164ABD
:10247C0093420ED07B681B68B3F1804F09D07B6808
:10248C001B68124A934204D07B681B68104A934223
:10249C000CD1BB6823F08003BB603B685B68BA68F7
:1024AC001343BB607B681B68BA689A607B68012227
:1024BC0083F83D207B68002283F83C2000231846DB
:1024CC001437BD4680BC7047002C0140000400400E
:1024DC000008004080B483B000AF786000BF0C37B8
:1024EC00BD4680BC704780B483B000AF786000BF3D
:1024FC000C37BD4680BC704703460244934200D162
:10250C00704703F8011BF9E770B500260C4D0D4C14
:10251C00641BA410A64209D100F01AF800260A4D3B
:10252C000A4C641BA410A64205D170BD55F8043B9F
:10253C0098470136EEE755F8043B98470136F2E729
:10254C00AC250008AC250008AC250008B025000817
:10255C00F8B500BFF8BC08BC9E467047F8B500BF84
:08256C00F8BC08BC9E46704754
:102574000D0C0B0A64C8090603070008050204646D
:102584000704010100000000000000000102030430
:102594000607080902030405060708090A0B0C0DBF
:0825A4000E0F101001020000EF
:0425AC0031010008F1
:0425B0000D01000811
:1025B400C0F9A430191202780010FF000024F400BE
:0825C4001000000001000000FE
:04000005080009DD09
:00000001FF
